{
	"bharani.sol": {
		"BlockchainBasedHealthcare": {
			"abi": [
				{
					"inputs": [
						{
							"internalType": "address",
							"name": "",
							"type": "address"
						}
					],
					"name": "doctorMapping",
					"outputs": [
						{
							"internalType": "string",
							"name": "name",
							"type": "string"
						},
						{
							"internalType": "string",
							"name": "designation",
							"type": "string"
						},
						{
							"internalType": "bool",
							"name": "isRegistered",
							"type": "bool"
						}
					],
					"stateMutability": "view",
					"type": "function"
				},
				{
					"inputs": [
						{
							"internalType": "uint256",
							"name": "_id",
							"type": "uint256"
						}
					],
					"name": "generateUniqueID",
					"outputs": [
						{
							"internalType": "bytes32",
							"name": "",
							"type": "bytes32"
						}
					],
					"stateMutability": "view",
					"type": "function"
				},
				{
					"inputs": [
						{
							"internalType": "address",
							"name": "_doctorAddress",
							"type": "address"
						}
					],
					"name": "getDoctorDetails",
					"outputs": [
						{
							"internalType": "string",
							"name": "",
							"type": "string"
						},
						{
							"internalType": "string",
							"name": "",
							"type": "string"
						}
					],
					"stateMutability": "view",
					"type": "function"
				},
				{
					"inputs": [
						{
							"internalType": "bytes32",
							"name": "_uniqueID",
							"type": "bytes32"
						}
					],
					"name": "getPatientDetails",
					"outputs": [
						{
							"internalType": "string",
							"name": "",
							"type": "string"
						},
						{
							"internalType": "uint256",
							"name": "",
							"type": "uint256"
						},
						{
							"internalType": "string",
							"name": "",
							"type": "string"
						},
						{
							"internalType": "uint256",
							"name": "",
							"type": "uint256"
						},
						{
							"internalType": "uint256",
							"name": "",
							"type": "uint256"
						},
						{
							"internalType": "uint256",
							"name": "",
							"type": "uint256"
						}
					],
					"stateMutability": "view",
					"type": "function"
				},
				{
					"inputs": [],
					"name": "patientCount",
					"outputs": [
						{
							"internalType": "uint256",
							"name": "",
							"type": "uint256"
						}
					],
					"stateMutability": "view",
					"type": "function"
				},
				{
					"inputs": [
						{
							"internalType": "bytes32",
							"name": "",
							"type": "bytes32"
						}
					],
					"name": "patientMapping",
					"outputs": [
						{
							"internalType": "bool",
							"name": "isUIDGenerated",
							"type": "bool"
						},
						{
							"internalType": "string",
							"name": "name",
							"type": "string"
						},
						{
							"internalType": "uint256",
							"name": "age",
							"type": "uint256"
						},
						{
							"internalType": "string",
							"name": "dob",
							"type": "string"
						},
						{
							"internalType": "uint256",
							"name": "cholesterol",
							"type": "uint256"
						},
						{
							"internalType": "uint256",
							"name": "restECG",
							"type": "uint256"
						},
						{
							"internalType": "uint256",
							"name": "bloodPressure",
							"type": "uint256"
						}
					],
					"stateMutability": "view",
					"type": "function"
				},
				{
					"inputs": [
						{
							"internalType": "uint256",
							"name": "",
							"type": "uint256"
						}
					],
					"name": "pid",
					"outputs": [
						{
							"internalType": "bytes32",
							"name": "",
							"type": "bytes32"
						}
					],
					"stateMutability": "view",
					"type": "function"
				},
				{
					"inputs": [
						{
							"internalType": "address",
							"name": "_doctorAddress",
							"type": "address"
						},
						{
							"internalType": "string",
							"name": "_name",
							"type": "string"
						},
						{
							"internalType": "string",
							"name": "_designation",
							"type": "string"
						}
					],
					"name": "registerDoctor",
					"outputs": [],
					"stateMutability": "nonpayable",
					"type": "function"
				},
				{
					"inputs": [
						{
							"internalType": "bytes32",
							"name": "uniqueID",
							"type": "bytes32"
						},
						{
							"internalType": "string",
							"name": "_name",
							"type": "string"
						},
						{
							"internalType": "uint256",
							"name": "_age",
							"type": "uint256"
						},
						{
							"internalType": "string",
							"name": "_dob",
							"type": "string"
						},
						{
							"internalType": "uint256",
							"name": "_cholesterol",
							"type": "uint256"
						},
						{
							"internalType": "uint256",
							"name": "_restECG",
							"type": "uint256"
						},
						{
							"internalType": "uint256",
							"name": "_bloodPressure",
							"type": "uint256"
						}
					],
					"name": "registerPatient",
					"outputs": [],
					"stateMutability": "nonpayable",
					"type": "function"
				}
			],
			"devdoc": {
				"kind": "dev",
				"methods": {},
				"version": 1
			},
			"evm": {
				"assembly": "    /* \"bharani.sol\":60:2907  contract BlockchainBasedHealthcare {... */\n  mstore(0x40, 0x80)\n  callvalue\n  dup1\n  iszero\n  tag_1\n  jumpi\n  0x00\n  dup1\n  revert\ntag_1:\n  pop\n  dataSize(sub_0)\n  dup1\n  dataOffset(sub_0)\n  0x00\n  codecopy\n  0x00\n  return\nstop\n\nsub_0: assembly {\n        /* \"bharani.sol\":60:2907  contract BlockchainBasedHealthcare {... */\n      mstore(0x40, 0x80)\n      callvalue\n      dup1\n      iszero\n      tag_1\n      jumpi\n      0x00\n      dup1\n      revert\n    tag_1:\n      pop\n      jumpi(tag_2, lt(calldatasize, 0x04))\n      shr(0xe0, calldataload(0x00))\n      dup1\n      0xa0303c41\n      gt\n      tag_12\n      jumpi\n      dup1\n      0xa0303c41\n      eq\n      tag_7\n      jumpi\n      dup1\n      0xbab90dbd\n      eq\n      tag_8\n      jumpi\n      dup1\n      0xbf94effa\n      eq\n      tag_9\n      jumpi\n      dup1\n      0xea88629c\n      eq\n      tag_10\n      jumpi\n      dup1\n      0xeadb6252\n      eq\n      tag_11\n      jumpi\n      jump(tag_2)\n    tag_12:\n      dup1\n      0x354d52ac\n      eq\n      tag_3\n      jumpi\n      dup1\n      0x53d08ef4\n      eq\n      tag_4\n      jumpi\n      dup1\n      0x61da081d\n      eq\n      tag_5\n      jumpi\n      dup1\n      0x6f8de438\n      eq\n      tag_6\n      jumpi\n    tag_2:\n      0x00\n      dup1\n      revert\n        /* \"bharani.sol\":504:553  mapping(bytes32 => Patient) public patientMapping */\n    tag_3:\n      tag_13\n      0x04\n      dup1\n      calldatasize\n      sub\n      dup2\n      add\n      swap1\n      tag_14\n      swap2\n      swap1\n      tag_15\n      jump\t// in\n    tag_14:\n      tag_16\n      jump\t// in\n    tag_13:\n      mload(0x40)\n      tag_17\n      swap8\n      swap7\n      swap6\n      swap5\n      swap4\n      swap3\n      swap2\n      swap1\n      tag_18\n      jump\t// in\n    tag_17:\n      mload(0x40)\n      dup1\n      swap2\n      sub\n      swap1\n      return\n        /* \"bharani.sol\":667:1042  function registerDoctor(address _doctorAddress, string memory _name, string memory _designation) public {... */\n    tag_4:\n      tag_19\n      0x04\n      dup1\n      calldatasize\n      sub\n      dup2\n      add\n      swap1\n      tag_20\n      swap2\n      swap1\n      tag_21\n      jump\t// in\n    tag_20:\n      tag_22\n      jump\t// in\n    tag_19:\n      stop\n        /* \"bharani.sol\":560:595  mapping(uint => bytes32) public pid */\n    tag_5:\n      tag_23\n      0x04\n      dup1\n      calldatasize\n      sub\n      dup2\n      add\n      swap1\n      tag_24\n      swap2\n      swap1\n      tag_25\n      jump\t// in\n    tag_24:\n      tag_26\n      jump\t// in\n    tag_23:\n      mload(0x40)\n      tag_27\n      swap2\n      swap1\n      tag_28\n      jump\t// in\n    tag_27:\n      mload(0x40)\n      dup1\n      swap2\n      sub\n      swap1\n      return\n        /* \"bharani.sol\":1335:2009  function registerPatient(... */\n    tag_6:\n      tag_29\n      0x04\n      dup1\n      calldatasize\n      sub\n      dup2\n      add\n      swap1\n      tag_30\n      swap2\n      swap1\n      tag_31\n      jump\t// in\n    tag_30:\n      tag_32\n      jump\t// in\n    tag_29:\n      stop\n        /* \"bharani.sol\":102:126  uint public patientCount */\n    tag_7:\n      tag_33\n      tag_34\n      jump\t// in\n    tag_33:\n      mload(0x40)\n      tag_35\n      swap2\n      swap1\n      tag_36\n      jump\t// in\n    tag_35:\n      mload(0x40)\n      dup1\n      swap2\n      sub\n      swap1\n      return\n        /* \"bharani.sol\":2616:2904  function getDoctorDetails(address _doctorAddress) public view returns (string memory, string memory) {... */\n    tag_8:\n      tag_37\n      0x04\n      dup1\n      calldatasize\n      sub\n      dup2\n      add\n      swap1\n      tag_38\n      swap2\n      swap1\n      tag_39\n      jump\t// in\n    tag_38:\n      tag_40\n      jump\t// in\n    tag_37:\n      mload(0x40)\n      tag_41\n      swap3\n      swap2\n      swap1\n      tag_42\n      jump\t// in\n    tag_41:\n      mload(0x40)\n      dup1\n      swap2\n      sub\n      swap1\n      return\n        /* \"bharani.sol\":450:497  mapping(address => Doctor) public doctorMapping */\n    tag_9:\n      tag_43\n      0x04\n      dup1\n      calldatasize\n      sub\n      dup2\n      add\n      swap1\n      tag_44\n      swap2\n      swap1\n      tag_39\n      jump\t// in\n    tag_44:\n      tag_45\n      jump\t// in\n    tag_43:\n      mload(0x40)\n      tag_46\n      swap4\n      swap3\n      swap2\n      swap1\n      tag_47\n      jump\t// in\n    tag_46:\n      mload(0x40)\n      dup1\n      swap2\n      sub\n      swap1\n      return\n        /* \"bharani.sol\":2078:2549  function getPatientDetails(bytes32 _uniqueID)... */\n    tag_10:\n      tag_48\n      0x04\n      dup1\n      calldatasize\n      sub\n      dup2\n      add\n      swap1\n      tag_49\n      swap2\n      swap1\n      tag_15\n      jump\t// in\n    tag_49:\n      tag_50\n      jump\t// in\n    tag_48:\n      mload(0x40)\n      tag_51\n      swap7\n      swap6\n      swap5\n      swap4\n      swap3\n      swap2\n      swap1\n      tag_52\n      jump\t// in\n    tag_51:\n      mload(0x40)\n      dup1\n      swap2\n      sub\n      swap1\n      return\n        /* \"bharani.sol\":1110:1260  function generateUniqueID(uint _id) public view returns (bytes32) {... */\n    tag_11:\n      tag_53\n      0x04\n      dup1\n      calldatasize\n      sub\n      dup2\n      add\n      swap1\n      tag_54\n      swap2\n      swap1\n      tag_25\n      jump\t// in\n    tag_54:\n      tag_55\n      jump\t// in\n    tag_53:\n      mload(0x40)\n      tag_56\n      swap2\n      swap1\n      tag_28\n      jump\t// in\n    tag_56:\n      mload(0x40)\n      dup1\n      swap2\n      sub\n      swap1\n      return\n        /* \"bharani.sol\":504:553  mapping(bytes32 => Patient) public patientMapping */\n    tag_16:\n      mstore(0x20, 0x02)\n      dup1\n      0x00\n      mstore\n      keccak256(0x00, 0x40)\n      0x00\n      swap2\n      pop\n      swap1\n      pop\n      dup1\n      0x00\n      add\n      0x00\n      swap1\n      sload\n      swap1\n      0x0100\n      exp\n      swap1\n      div\n      0xff\n      and\n      swap1\n      dup1\n      0x01\n      add\n      dup1\n      sload\n      tag_57\n      swap1\n      tag_58\n      jump\t// in\n    tag_57:\n      dup1\n      0x1f\n      add\n      0x20\n      dup1\n      swap2\n      div\n      mul\n      0x20\n      add\n      mload(0x40)\n      swap1\n      dup2\n      add\n      0x40\n      mstore\n      dup1\n      swap3\n      swap2\n      swap1\n      dup2\n      dup2\n      mstore\n      0x20\n      add\n      dup3\n      dup1\n      sload\n      tag_59\n      swap1\n      tag_58\n      jump\t// in\n    tag_59:\n      dup1\n      iszero\n      tag_60\n      jumpi\n      dup1\n      0x1f\n      lt\n      tag_61\n      jumpi\n      0x0100\n      dup1\n      dup4\n      sload\n      div\n      mul\n      dup4\n      mstore\n      swap2\n      0x20\n      add\n      swap2\n      jump(tag_60)\n    tag_61:\n      dup3\n      add\n      swap2\n      swap1\n      0x00\n      mstore\n      keccak256(0x00, 0x20)\n      swap1\n    tag_62:\n      dup2\n      sload\n      dup2\n      mstore\n      swap1\n      0x01\n      add\n      swap1\n      0x20\n      add\n      dup1\n      dup4\n      gt\n      tag_62\n      jumpi\n      dup3\n      swap1\n      sub\n      0x1f\n      and\n      dup3\n      add\n      swap2\n    tag_60:\n      pop\n      pop\n      pop\n      pop\n      pop\n      swap1\n      dup1\n      0x02\n      add\n      sload\n      swap1\n      dup1\n      0x03\n      add\n      dup1\n      sload\n      tag_63\n      swap1\n      tag_58\n      jump\t// in\n    tag_63:\n      dup1\n      0x1f\n      add\n      0x20\n      dup1\n      swap2\n      div\n      mul\n      0x20\n      add\n      mload(0x40)\n      swap1\n      dup2\n      add\n      0x40\n      mstore\n      dup1\n      swap3\n      swap2\n      swap1\n      dup2\n      dup2\n      mstore\n      0x20\n      add\n      dup3\n      dup1\n      sload\n      tag_64\n      swap1\n      tag_58\n      jump\t// in\n    tag_64:\n      dup1\n      iszero\n      tag_65\n      jumpi\n      dup1\n      0x1f\n      lt\n      tag_66\n      jumpi\n      0x0100\n      dup1\n      dup4\n      sload\n      div\n      mul\n      dup4\n      mstore\n      swap2\n      0x20\n      add\n      swap2\n      jump(tag_65)\n    tag_66:\n      dup3\n      add\n      swap2\n      swap1\n      0x00\n      mstore\n      keccak256(0x00, 0x20)\n      swap1\n    tag_67:\n      dup2\n      sload\n      dup2\n      mstore\n      swap1\n      0x01\n      add\n      swap1\n      0x20\n      add\n      dup1\n      dup4\n      gt\n      tag_67\n      jumpi\n      dup3\n      swap1\n      sub\n      0x1f\n      and\n      dup3\n      add\n      swap2\n    tag_65:\n      pop\n      pop\n      pop\n      pop\n      pop\n      swap1\n      dup1\n      0x04\n      add\n      sload\n      swap1\n      dup1\n      0x05\n      add\n      sload\n      swap1\n      dup1\n      0x06\n      add\n      sload\n      swap1\n      pop\n      dup8\n      jump\t// out\n        /* \"bharani.sol\":667:1042  function registerDoctor(address _doctorAddress, string memory _name, string memory _designation) public {... */\n    tag_22:\n        /* \"bharani.sol\":791:804  doctorMapping */\n      0x01\n        /* \"bharani.sol\":791:820  doctorMapping[_doctorAddress] */\n      0x00\n        /* \"bharani.sol\":805:819  _doctorAddress */\n      dup5\n        /* \"bharani.sol\":791:820  doctorMapping[_doctorAddress] */\n      0xffffffffffffffffffffffffffffffffffffffff\n      and\n      0xffffffffffffffffffffffffffffffffffffffff\n      and\n      dup2\n      mstore\n      0x20\n      add\n      swap1\n      dup2\n      mstore\n      0x20\n      add\n      0x00\n      keccak256\n        /* \"bharani.sol\":791:833  doctorMapping[_doctorAddress].isRegistered */\n      0x02\n      add\n      0x00\n      swap1\n      sload\n      swap1\n      0x0100\n      exp\n      swap1\n      div\n      0xff\n      and\n        /* \"bharani.sol\":790:833  !doctorMapping[_doctorAddress].isRegistered */\n      iszero\n        /* \"bharani.sol\":782:863  require(!doctorMapping[_doctorAddress].isRegistered, \"Doctor already registered\") */\n      tag_69\n      jumpi\n      mload(0x40)\n      0x08c379a000000000000000000000000000000000000000000000000000000000\n      dup2\n      mstore\n      0x04\n      add\n      tag_70\n      swap1\n      tag_71\n      jump\t// in\n    tag_70:\n      mload(0x40)\n      dup1\n      swap2\n      sub\n      swap1\n      revert\n    tag_69:\n        /* \"bharani.sol\":916:1034  Doctor({... */\n      mload(0x40)\n      dup1\n      0x60\n      add\n      0x40\n      mstore\n      dup1\n        /* \"bharani.sol\":944:949  _name */\n      dup4\n        /* \"bharani.sol\":916:1034  Doctor({... */\n      dup2\n      mstore\n      0x20\n      add\n        /* \"bharani.sol\":977:989  _designation */\n      dup3\n        /* \"bharani.sol\":916:1034  Doctor({... */\n      dup2\n      mstore\n      0x20\n      add\n        /* \"bharani.sol\":1018:1022  true */\n      0x01\n        /* \"bharani.sol\":916:1034  Doctor({... */\n      iszero\n      iszero\n      dup2\n      mstore\n      pop\n        /* \"bharani.sol\":884:897  doctorMapping */\n      0x01\n        /* \"bharani.sol\":884:913  doctorMapping[_doctorAddress] */\n      0x00\n        /* \"bharani.sol\":898:912  _doctorAddress */\n      dup6\n        /* \"bharani.sol\":884:913  doctorMapping[_doctorAddress] */\n      0xffffffffffffffffffffffffffffffffffffffff\n      and\n      0xffffffffffffffffffffffffffffffffffffffff\n      and\n      dup2\n      mstore\n      0x20\n      add\n      swap1\n      dup2\n      mstore\n      0x20\n      add\n      0x00\n      keccak256\n        /* \"bharani.sol\":884:1034  doctorMapping[_doctorAddress] = Doctor({... */\n      0x00\n      dup3\n      add\n      mload\n      dup2\n      0x00\n      add\n      swap1\n      dup2\n      tag_72\n      swap2\n      swap1\n      tag_73\n      jump\t// in\n    tag_72:\n      pop\n      0x20\n      dup3\n      add\n      mload\n      dup2\n      0x01\n      add\n      swap1\n      dup2\n      tag_74\n      swap2\n      swap1\n      tag_73\n      jump\t// in\n    tag_74:\n      pop\n      0x40\n      dup3\n      add\n      mload\n      dup2\n      0x02\n      add\n      exp(0x0100, 0x00)\n      dup2\n      sload\n      dup2\n      0xff\n      mul\n      not\n      and\n      swap1\n      dup4\n      iszero\n      iszero\n      mul\n      or\n      swap1\n      sstore\n      pop\n      swap1\n      pop\n      pop\n        /* \"bharani.sol\":667:1042  function registerDoctor(address _doctorAddress, string memory _name, string memory _designation) public {... */\n      pop\n      pop\n      pop\n      jump\t// out\n        /* \"bharani.sol\":560:595  mapping(uint => bytes32) public pid */\n    tag_26:\n      mstore(0x20, 0x03)\n      dup1\n      0x00\n      mstore\n      keccak256(0x00, 0x40)\n      0x00\n      swap2\n      pop\n      swap1\n      pop\n      sload\n      dup2\n      jump\t// out\n        /* \"bharani.sol\":1335:2009  function registerPatient(... */\n    tag_32:\n        /* \"bharani.sol\":1582:1596  patientMapping */\n      0x02\n        /* \"bharani.sol\":1582:1606  patientMapping[uniqueID] */\n      0x00\n        /* \"bharani.sol\":1597:1605  uniqueID */\n      dup9\n        /* \"bharani.sol\":1582:1606  patientMapping[uniqueID] */\n      dup2\n      mstore\n      0x20\n      add\n      swap1\n      dup2\n      mstore\n      0x20\n      add\n      0x00\n      keccak256\n        /* \"bharani.sol\":1582:1621  patientMapping[uniqueID].isUIDGenerated */\n      0x00\n      add\n      0x00\n      swap1\n      sload\n      swap1\n      0x0100\n      exp\n      swap1\n      div\n      0xff\n      and\n        /* \"bharani.sol\":1581:1621  !patientMapping[uniqueID].isUIDGenerated */\n      iszero\n        /* \"bharani.sol\":1573:1650  require(!patientMapping[uniqueID].isUIDGenerated, \"Unique ID already exists\") */\n      tag_76\n      jumpi\n      mload(0x40)\n      0x08c379a000000000000000000000000000000000000000000000000000000000\n      dup2\n      mstore\n      0x04\n      add\n      tag_77\n      swap1\n      tag_78\n      jump\t// in\n    tag_77:\n      mload(0x40)\n      dup1\n      swap2\n      sub\n      swap1\n      revert\n    tag_76:\n        /* \"bharani.sol\":1690:1935  Patient({... */\n      mload(0x40)\n      dup1\n      0xe0\n      add\n      0x40\n      mstore\n      dup1\n        /* \"bharani.sol\":1729:1733  true */\n      0x01\n        /* \"bharani.sol\":1690:1935  Patient({... */\n      iszero\n      iszero\n      dup2\n      mstore\n      0x20\n      add\n        /* \"bharani.sol\":1754:1759  _name */\n      dup8\n        /* \"bharani.sol\":1690:1935  Patient({... */\n      dup2\n      mstore\n      0x20\n      add\n        /* \"bharani.sol\":1779:1783  _age */\n      dup7\n        /* \"bharani.sol\":1690:1935  Patient({... */\n      dup2\n      mstore\n      0x20\n      add\n        /* \"bharani.sol\":1803:1807  _dob */\n      dup6\n        /* \"bharani.sol\":1690:1935  Patient({... */\n      dup2\n      mstore\n      0x20\n      add\n        /* \"bharani.sol\":1835:1847  _cholesterol */\n      dup5\n        /* \"bharani.sol\":1690:1935  Patient({... */\n      dup2\n      mstore\n      0x20\n      add\n        /* \"bharani.sol\":1871:1879  _restECG */\n      dup4\n        /* \"bharani.sol\":1690:1935  Patient({... */\n      dup2\n      mstore\n      0x20\n      add\n        /* \"bharani.sol\":1909:1923  _bloodPressure */\n      dup3\n        /* \"bharani.sol\":1690:1935  Patient({... */\n      dup2\n      mstore\n      pop\n        /* \"bharani.sol\":1663:1677  patientMapping */\n      0x02\n        /* \"bharani.sol\":1663:1687  patientMapping[uniqueID] */\n      0x00\n        /* \"bharani.sol\":1678:1686  uniqueID */\n      dup10\n        /* \"bharani.sol\":1663:1687  patientMapping[uniqueID] */\n      dup2\n      mstore\n      0x20\n      add\n      swap1\n      dup2\n      mstore\n      0x20\n      add\n      0x00\n      keccak256\n        /* \"bharani.sol\":1663:1935  patientMapping[uniqueID] = Patient({... */\n      0x00\n      dup3\n      add\n      mload\n      dup2\n      0x00\n      add\n      exp(0x0100, 0x00)\n      dup2\n      sload\n      dup2\n      0xff\n      mul\n      not\n      and\n      swap1\n      dup4\n      iszero\n      iszero\n      mul\n      or\n      swap1\n      sstore\n      pop\n      0x20\n      dup3\n      add\n      mload\n      dup2\n      0x01\n      add\n      swap1\n      dup2\n      tag_79\n      swap2\n      swap1\n      tag_73\n      jump\t// in\n    tag_79:\n      pop\n      0x40\n      dup3\n      add\n      mload\n      dup2\n      0x02\n      add\n      sstore\n      0x60\n      dup3\n      add\n      mload\n      dup2\n      0x03\n      add\n      swap1\n      dup2\n      tag_80\n      swap2\n      swap1\n      tag_73\n      jump\t// in\n    tag_80:\n      pop\n      0x80\n      dup3\n      add\n      mload\n      dup2\n      0x04\n      add\n      sstore\n      0xa0\n      dup3\n      add\n      mload\n      dup2\n      0x05\n      add\n      sstore\n      0xc0\n      dup3\n      add\n      mload\n      dup2\n      0x06\n      add\n      sstore\n      swap1\n      pop\n      pop\n        /* \"bharani.sol\":1968:1976  uniqueID */\n      dup7\n        /* \"bharani.sol\":1948:1951  pid */\n      0x03\n        /* \"bharani.sol\":1948:1965  pid[patientCount] */\n      0x00\n        /* \"bharani.sol\":1952:1964  patientCount */\n      dup1\n      sload\n        /* \"bharani.sol\":1948:1965  pid[patientCount] */\n      dup2\n      mstore\n      0x20\n      add\n      swap1\n      dup2\n      mstore\n      0x20\n      add\n      0x00\n      keccak256\n        /* \"bharani.sol\":1948:1976  pid[patientCount] = uniqueID */\n      dup2\n      swap1\n      sstore\n      pop\n        /* \"bharani.sol\":1987:1999  patientCount */\n      0x00\n      dup1\n        /* \"bharani.sol\":1987:2001  patientCount++ */\n      dup2\n      sload\n      dup1\n      swap3\n      swap2\n      swap1\n      tag_81\n      swap1\n      tag_82\n      jump\t// in\n    tag_81:\n      swap2\n      swap1\n      pop\n      sstore\n      pop\n        /* \"bharani.sol\":1335:2009  function registerPatient(... */\n      pop\n      pop\n      pop\n      pop\n      pop\n      pop\n      pop\n      jump\t// out\n        /* \"bharani.sol\":102:126  uint public patientCount */\n    tag_34:\n      sload(0x00)\n      dup2\n      jump\t// out\n        /* \"bharani.sol\":2616:2904  function getDoctorDetails(address _doctorAddress) public view returns (string memory, string memory) {... */\n    tag_40:\n        /* \"bharani.sol\":2687:2700  string memory */\n      0x60\n        /* \"bharani.sol\":2702:2715  string memory */\n      dup1\n        /* \"bharani.sol\":2736:2749  doctorMapping */\n      0x01\n        /* \"bharani.sol\":2736:2765  doctorMapping[_doctorAddress] */\n      0x00\n        /* \"bharani.sol\":2750:2764  _doctorAddress */\n      dup5\n        /* \"bharani.sol\":2736:2765  doctorMapping[_doctorAddress] */\n      0xffffffffffffffffffffffffffffffffffffffff\n      and\n      0xffffffffffffffffffffffffffffffffffffffff\n      and\n      dup2\n      mstore\n      0x20\n      add\n      swap1\n      dup2\n      mstore\n      0x20\n      add\n      0x00\n      keccak256\n        /* \"bharani.sol\":2736:2778  doctorMapping[_doctorAddress].isRegistered */\n      0x02\n      add\n      0x00\n      swap1\n      sload\n      swap1\n      0x0100\n      exp\n      swap1\n      div\n      0xff\n      and\n        /* \"bharani.sol\":2728:2799  require(doctorMapping[_doctorAddress].isRegistered, \"Doctor not found\") */\n      tag_84\n      jumpi\n      mload(0x40)\n      0x08c379a000000000000000000000000000000000000000000000000000000000\n      dup2\n      mstore\n      0x04\n      add\n      tag_85\n      swap1\n      tag_86\n      jump\t// in\n    tag_85:\n      mload(0x40)\n      dup1\n      swap2\n      sub\n      swap1\n      revert\n    tag_84:\n        /* \"bharani.sol\":2818:2831  doctorMapping */\n      0x01\n        /* \"bharani.sol\":2818:2847  doctorMapping[_doctorAddress] */\n      0x00\n        /* \"bharani.sol\":2832:2846  _doctorAddress */\n      dup5\n        /* \"bharani.sol\":2818:2847  doctorMapping[_doctorAddress] */\n      0xffffffffffffffffffffffffffffffffffffffff\n      and\n      0xffffffffffffffffffffffffffffffffffffffff\n      and\n      dup2\n      mstore\n      0x20\n      add\n      swap1\n      dup2\n      mstore\n      0x20\n      add\n      0x00\n      keccak256\n        /* \"bharani.sol\":2818:2852  doctorMapping[_doctorAddress].name */\n      0x00\n      add\n        /* \"bharani.sol\":2854:2867  doctorMapping */\n      0x01\n        /* \"bharani.sol\":2854:2883  doctorMapping[_doctorAddress] */\n      0x00\n        /* \"bharani.sol\":2868:2882  _doctorAddress */\n      dup6\n        /* \"bharani.sol\":2854:2883  doctorMapping[_doctorAddress] */\n      0xffffffffffffffffffffffffffffffffffffffff\n      and\n      0xffffffffffffffffffffffffffffffffffffffff\n      and\n      dup2\n      mstore\n      0x20\n      add\n      swap1\n      dup2\n      mstore\n      0x20\n      add\n      0x00\n      keccak256\n        /* \"bharani.sol\":2854:2895  doctorMapping[_doctorAddress].designation */\n      0x01\n      add\n        /* \"bharani.sol\":2810:2896  return (doctorMapping[_doctorAddress].name, doctorMapping[_doctorAddress].designation) */\n      dup2\n      dup1\n      sload\n      tag_87\n      swap1\n      tag_58\n      jump\t// in\n    tag_87:\n      dup1\n      0x1f\n      add\n      0x20\n      dup1\n      swap2\n      div\n      mul\n      0x20\n      add\n      mload(0x40)\n      swap1\n      dup2\n      add\n      0x40\n      mstore\n      dup1\n      swap3\n      swap2\n      swap1\n      dup2\n      dup2\n      mstore\n      0x20\n      add\n      dup3\n      dup1\n      sload\n      tag_88\n      swap1\n      tag_58\n      jump\t// in\n    tag_88:\n      dup1\n      iszero\n      tag_89\n      jumpi\n      dup1\n      0x1f\n      lt\n      tag_90\n      jumpi\n      0x0100\n      dup1\n      dup4\n      sload\n      div\n      mul\n      dup4\n      mstore\n      swap2\n      0x20\n      add\n      swap2\n      jump(tag_89)\n    tag_90:\n      dup3\n      add\n      swap2\n      swap1\n      0x00\n      mstore\n      keccak256(0x00, 0x20)\n      swap1\n    tag_91:\n      dup2\n      sload\n      dup2\n      mstore\n      swap1\n      0x01\n      add\n      swap1\n      0x20\n      add\n      dup1\n      dup4\n      gt\n      tag_91\n      jumpi\n      dup3\n      swap1\n      sub\n      0x1f\n      and\n      dup3\n      add\n      swap2\n    tag_89:\n      pop\n      pop\n      pop\n      pop\n      pop\n      swap2\n      pop\n      dup1\n      dup1\n      sload\n      tag_92\n      swap1\n      tag_58\n      jump\t// in\n    tag_92:\n      dup1\n      0x1f\n      add\n      0x20\n      dup1\n      swap2\n      div\n      mul\n      0x20\n      add\n      mload(0x40)\n      swap1\n      dup2\n      add\n      0x40\n      mstore\n      dup1\n      swap3\n      swap2\n      swap1\n      dup2\n      dup2\n      mstore\n      0x20\n      add\n      dup3\n      dup1\n      sload\n      tag_93\n      swap1\n      tag_58\n      jump\t// in\n    tag_93:\n      dup1\n      iszero\n      tag_94\n      jumpi\n      dup1\n      0x1f\n      lt\n      tag_95\n      jumpi\n      0x0100\n      dup1\n      dup4\n      sload\n      div\n      mul\n      dup4\n      mstore\n      swap2\n      0x20\n      add\n      swap2\n      jump(tag_94)\n    tag_95:\n      dup3\n      add\n      swap2\n      swap1\n      0x00\n      mstore\n      keccak256(0x00, 0x20)\n      swap1\n    tag_96:\n      dup2\n      sload\n      dup2\n      mstore\n      swap1\n      0x01\n      add\n      swap1\n      0x20\n      add\n      dup1\n      dup4\n      gt\n      tag_96\n      jumpi\n      dup3\n      swap1\n      sub\n      0x1f\n      and\n      dup3\n      add\n      swap2\n    tag_94:\n      pop\n      pop\n      pop\n      pop\n      pop\n      swap1\n      pop\n      swap2\n      pop\n      swap2\n      pop\n        /* \"bharani.sol\":2616:2904  function getDoctorDetails(address _doctorAddress) public view returns (string memory, string memory) {... */\n      swap2\n      pop\n      swap2\n      jump\t// out\n        /* \"bharani.sol\":450:497  mapping(address => Doctor) public doctorMapping */\n    tag_45:\n      mstore(0x20, 0x01)\n      dup1\n      0x00\n      mstore\n      keccak256(0x00, 0x40)\n      0x00\n      swap2\n      pop\n      swap1\n      pop\n      dup1\n      0x00\n      add\n      dup1\n      sload\n      tag_97\n      swap1\n      tag_58\n      jump\t// in\n    tag_97:\n      dup1\n      0x1f\n      add\n      0x20\n      dup1\n      swap2\n      div\n      mul\n      0x20\n      add\n      mload(0x40)\n      swap1\n      dup2\n      add\n      0x40\n      mstore\n      dup1\n      swap3\n      swap2\n      swap1\n      dup2\n      dup2\n      mstore\n      0x20\n      add\n      dup3\n      dup1\n      sload\n      tag_98\n      swap1\n      tag_58\n      jump\t// in\n    tag_98:\n      dup1\n      iszero\n      tag_99\n      jumpi\n      dup1\n      0x1f\n      lt\n      tag_100\n      jumpi\n      0x0100\n      dup1\n      dup4\n      sload\n      div\n      mul\n      dup4\n      mstore\n      swap2\n      0x20\n      add\n      swap2\n      jump(tag_99)\n    tag_100:\n      dup3\n      add\n      swap2\n      swap1\n      0x00\n      mstore\n      keccak256(0x00, 0x20)\n      swap1\n    tag_101:\n      dup2\n      sload\n      dup2\n      mstore\n      swap1\n      0x01\n      add\n      swap1\n      0x20\n      add\n      dup1\n      dup4\n      gt\n      tag_101\n      jumpi\n      dup3\n      swap1\n      sub\n      0x1f\n      and\n      dup3\n      add\n      swap2\n    tag_99:\n      pop\n      pop\n      pop\n      pop\n      pop\n      swap1\n      dup1\n      0x01\n      add\n      dup1\n      sload\n      tag_102\n      swap1\n      tag_58\n      jump\t// in\n    tag_102:\n      dup1\n      0x1f\n      add\n      0x20\n      dup1\n      swap2\n      div\n      mul\n      0x20\n      add\n      mload(0x40)\n      swap1\n      dup2\n      add\n      0x40\n      mstore\n      dup1\n      swap3\n      swap2\n      swap1\n      dup2\n      dup2\n      mstore\n      0x20\n      add\n      dup3\n      dup1\n      sload\n      tag_103\n      swap1\n      tag_58\n      jump\t// in\n    tag_103:\n      dup1\n      iszero\n      tag_104\n      jumpi\n      dup1\n      0x1f\n      lt\n      tag_105\n      jumpi\n      0x0100\n      dup1\n      dup4\n      sload\n      div\n      mul\n      dup4\n      mstore\n      swap2\n      0x20\n      add\n      swap2\n      jump(tag_104)\n    tag_105:\n      dup3\n      add\n      swap2\n      swap1\n      0x00\n      mstore\n      keccak256(0x00, 0x20)\n      swap1\n    tag_106:\n      dup2\n      sload\n      dup2\n      mstore\n      swap1\n      0x01\n      add\n      swap1\n      0x20\n      add\n      dup1\n      dup4\n      gt\n      tag_106\n      jumpi\n      dup3\n      swap1\n      sub\n      0x1f\n      and\n      dup3\n      add\n      swap2\n    tag_104:\n      pop\n      pop\n      pop\n      pop\n      pop\n      swap1\n      dup1\n      0x02\n      add\n      0x00\n      swap1\n      sload\n      swap1\n      0x0100\n      exp\n      swap1\n      div\n      0xff\n      and\n      swap1\n      pop\n      dup4\n      jump\t// out\n        /* \"bharani.sol\":2078:2549  function getPatientDetails(bytes32 _uniqueID)... */\n    tag_50:\n        /* \"bharani.sol\":2186:2199  string memory */\n      0x60\n        /* \"bharani.sol\":2214:2218  uint */\n      0x00\n        /* \"bharani.sol\":2233:2246  string memory */\n      0x60\n        /* \"bharani.sol\":2261:2265  uint */\n      0x00\n        /* \"bharani.sol\":2280:2284  uint */\n      dup1\n        /* \"bharani.sol\":2299:2303  uint */\n      0x00\n        /* \"bharani.sol\":2339:2353  patientMapping */\n      0x02\n        /* \"bharani.sol\":2339:2364  patientMapping[_uniqueID] */\n      0x00\n        /* \"bharani.sol\":2354:2363  _uniqueID */\n      dup9\n        /* \"bharani.sol\":2339:2364  patientMapping[_uniqueID] */\n      dup2\n      mstore\n      0x20\n      add\n      swap1\n      dup2\n      mstore\n      0x20\n      add\n      0x00\n      keccak256\n        /* \"bharani.sol\":2339:2379  patientMapping[_uniqueID].isUIDGenerated */\n      0x00\n      add\n      0x00\n      swap1\n      sload\n      swap1\n      0x0100\n      exp\n      swap1\n      div\n      0xff\n      and\n        /* \"bharani.sol\":2331:2401  require(patientMapping[_uniqueID].isUIDGenerated, \"Patient not found\") */\n      tag_108\n      jumpi\n      mload(0x40)\n      0x08c379a000000000000000000000000000000000000000000000000000000000\n      dup2\n      mstore\n      0x04\n      add\n      tag_109\n      swap1\n      tag_110\n      jump\t// in\n    tag_109:\n      mload(0x40)\n      dup1\n      swap2\n      sub\n      swap1\n      revert\n    tag_108:\n        /* \"bharani.sol\":2414:2430  Patient memory p */\n      0x00\n        /* \"bharani.sol\":2433:2447  patientMapping */\n      0x02\n        /* \"bharani.sol\":2433:2458  patientMapping[_uniqueID] */\n      0x00\n        /* \"bharani.sol\":2448:2457  _uniqueID */\n      dup10\n        /* \"bharani.sol\":2433:2458  patientMapping[_uniqueID] */\n      dup2\n      mstore\n      0x20\n      add\n      swap1\n      dup2\n      mstore\n      0x20\n      add\n      0x00\n      keccak256\n        /* \"bharani.sol\":2414:2458  Patient memory p = patientMapping[_uniqueID] */\n      mload(0x40)\n      dup1\n      0xe0\n      add\n      0x40\n      mstore\n      swap1\n      dup2\n      0x00\n      dup3\n      add\n      0x00\n      swap1\n      sload\n      swap1\n      0x0100\n      exp\n      swap1\n      div\n      0xff\n      and\n      iszero\n      iszero\n      iszero\n      iszero\n      dup2\n      mstore\n      0x20\n      add\n      0x01\n      dup3\n      add\n      dup1\n      sload\n      tag_111\n      swap1\n      tag_58\n      jump\t// in\n    tag_111:\n      dup1\n      0x1f\n      add\n      0x20\n      dup1\n      swap2\n      div\n      mul\n      0x20\n      add\n      mload(0x40)\n      swap1\n      dup2\n      add\n      0x40\n      mstore\n      dup1\n      swap3\n      swap2\n      swap1\n      dup2\n      dup2\n      mstore\n      0x20\n      add\n      dup3\n      dup1\n      sload\n      tag_112\n      swap1\n      tag_58\n      jump\t// in\n    tag_112:\n      dup1\n      iszero\n      tag_113\n      jumpi\n      dup1\n      0x1f\n      lt\n      tag_114\n      jumpi\n      0x0100\n      dup1\n      dup4\n      sload\n      div\n      mul\n      dup4\n      mstore\n      swap2\n      0x20\n      add\n      swap2\n      jump(tag_113)\n    tag_114:\n      dup3\n      add\n      swap2\n      swap1\n      0x00\n      mstore\n      keccak256(0x00, 0x20)\n      swap1\n    tag_115:\n      dup2\n      sload\n      dup2\n      mstore\n      swap1\n      0x01\n      add\n      swap1\n      0x20\n      add\n      dup1\n      dup4\n      gt\n      tag_115\n      jumpi\n      dup3\n      swap1\n      sub\n      0x1f\n      and\n      dup3\n      add\n      swap2\n    tag_113:\n      pop\n      pop\n      pop\n      pop\n      pop\n      dup2\n      mstore\n      0x20\n      add\n      0x02\n      dup3\n      add\n      sload\n      dup2\n      mstore\n      0x20\n      add\n      0x03\n      dup3\n      add\n      dup1\n      sload\n      tag_116\n      swap1\n      tag_58\n      jump\t// in\n    tag_116:\n      dup1\n      0x1f\n      add\n      0x20\n      dup1\n      swap2\n      div\n      mul\n      0x20\n      add\n      mload(0x40)\n      swap1\n      dup2\n      add\n      0x40\n      mstore\n      dup1\n      swap3\n      swap2\n      swap1\n      dup2\n      dup2\n      mstore\n      0x20\n      add\n      dup3\n      dup1\n      sload\n      tag_117\n      swap1\n      tag_58\n      jump\t// in\n    tag_117:\n      dup1\n      iszero\n      tag_118\n      jumpi\n      dup1\n      0x1f\n      lt\n      tag_119\n      jumpi\n      0x0100\n      dup1\n      dup4\n      sload\n      div\n      mul\n      dup4\n      mstore\n      swap2\n      0x20\n      add\n      swap2\n      jump(tag_118)\n    tag_119:\n      dup3\n      add\n      swap2\n      swap1\n      0x00\n      mstore\n      keccak256(0x00, 0x20)\n      swap1\n    tag_120:\n      dup2\n      sload\n      dup2\n      mstore\n      swap1\n      0x01\n      add\n      swap1\n      0x20\n      add\n      dup1\n      dup4\n      gt\n      tag_120\n      jumpi\n      dup3\n      swap1\n      sub\n      0x1f\n      and\n      dup3\n      add\n      swap2\n    tag_118:\n      pop\n      pop\n      pop\n      pop\n      pop\n      dup2\n      mstore\n      0x20\n      add\n      0x04\n      dup3\n      add\n      sload\n      dup2\n      mstore\n      0x20\n      add\n      0x05\n      dup3\n      add\n      sload\n      dup2\n      mstore\n      0x20\n      add\n      0x06\n      dup3\n      add\n      sload\n      dup2\n      mstore\n      pop\n      pop\n      swap1\n      pop\n        /* \"bharani.sol\":2477:2478  p */\n      dup1\n        /* \"bharani.sol\":2477:2483  p.name */\n      0x20\n      add\n      mload\n        /* \"bharani.sol\":2485:2486  p */\n      dup2\n        /* \"bharani.sol\":2485:2490  p.age */\n      0x40\n      add\n      mload\n        /* \"bharani.sol\":2492:2493  p */\n      dup3\n        /* \"bharani.sol\":2492:2497  p.dob */\n      0x60\n      add\n      mload\n        /* \"bharani.sol\":2499:2500  p */\n      dup4\n        /* \"bharani.sol\":2499:2512  p.cholesterol */\n      0x80\n      add\n      mload\n        /* \"bharani.sol\":2514:2515  p */\n      dup5\n        /* \"bharani.sol\":2514:2523  p.restECG */\n      0xa0\n      add\n      mload\n        /* \"bharani.sol\":2525:2526  p */\n      dup6\n        /* \"bharani.sol\":2525:2540  p.bloodPressure */\n      0xc0\n      add\n      mload\n        /* \"bharani.sol\":2469:2541  return (p.name, p.age, p.dob, p.cholesterol, p.restECG, p.bloodPressure) */\n      swap7\n      pop\n      swap7\n      pop\n      swap7\n      pop\n      swap7\n      pop\n      swap7\n      pop\n      swap7\n      pop\n      pop\n        /* \"bharani.sol\":2078:2549  function getPatientDetails(bytes32 _uniqueID)... */\n      swap2\n      swap4\n      swap6\n      pop\n      swap2\n      swap4\n      swap6\n      jump\t// out\n        /* \"bharani.sol\":1110:1260  function generateUniqueID(uint _id) public view returns (bytes32) {... */\n    tag_55:\n        /* \"bharani.sol\":1167:1174  bytes32 */\n      0x00\n        /* \"bharani.sol\":1194:1252  sha256(abi.encodePacked(_id, block.timestamp, msg.sender)) */\n      0x02\n        /* \"bharani.sol\":1218:1221  _id */\n      dup3\n        /* \"bharani.sol\":1223:1238  block.timestamp */\n      timestamp\n        /* \"bharani.sol\":1240:1250  msg.sender */\n      caller\n        /* \"bharani.sol\":1201:1251  abi.encodePacked(_id, block.timestamp, msg.sender) */\n      add(0x20, mload(0x40))\n      tag_122\n      swap4\n      swap3\n      swap2\n      swap1\n      tag_123\n      jump\t// in\n    tag_122:\n      mload(0x40)\n      0x20\n      dup2\n      dup4\n      sub\n      sub\n      dup2\n      mstore\n      swap1\n      0x40\n      mstore\n        /* \"bharani.sol\":1194:1252  sha256(abi.encodePacked(_id, block.timestamp, msg.sender)) */\n      mload(0x40)\n      tag_124\n      swap2\n      swap1\n      tag_125\n      jump\t// in\n    tag_124:\n      0x20\n      mload(0x40)\n      dup1\n      dup4\n      sub\n      dup2\n      dup6\n      gas\n      staticcall\n      iszero\n      dup1\n      iszero\n      tag_127\n      jumpi\n      returndatasize\n      0x00\n      dup1\n      returndatacopy\n      revert(0x00, returndatasize)\n    tag_127:\n      pop\n      pop\n      pop\n      mload(0x40)\n      returndatasize\n      not(0x1f)\n      0x1f\n      dup3\n      add\n      and\n      dup3\n      add\n      dup1\n      0x40\n      mstore\n      pop\n      dup2\n      add\n      swap1\n      tag_128\n      swap2\n      swap1\n      tag_129\n      jump\t// in\n    tag_128:\n        /* \"bharani.sol\":1187:1252  return sha256(abi.encodePacked(_id, block.timestamp, msg.sender)) */\n      swap1\n      pop\n        /* \"bharani.sol\":1110:1260  function generateUniqueID(uint _id) public view returns (bytes32) {... */\n      swap2\n      swap1\n      pop\n      jump\t// out\n        /* \"#utility.yul\":7:82   */\n    tag_130:\n        /* \"#utility.yul\":40:46   */\n      0x00\n        /* \"#utility.yul\":73:75   */\n      0x40\n        /* \"#utility.yul\":67:76   */\n      mload\n        /* \"#utility.yul\":57:76   */\n      swap1\n      pop\n        /* \"#utility.yul\":7:82   */\n      swap1\n      jump\t// out\n        /* \"#utility.yul\":88:205   */\n    tag_131:\n        /* \"#utility.yul\":197:198   */\n      0x00\n        /* \"#utility.yul\":194:195   */\n      dup1\n        /* \"#utility.yul\":187:199   */\n      revert\n        /* \"#utility.yul\":211:328   */\n    tag_132:\n        /* \"#utility.yul\":320:321   */\n      0x00\n        /* \"#utility.yul\":317:318   */\n      dup1\n        /* \"#utility.yul\":310:322   */\n      revert\n        /* \"#utility.yul\":334:411   */\n    tag_133:\n        /* \"#utility.yul\":371:378   */\n      0x00\n        /* \"#utility.yul\":400:405   */\n      dup2\n        /* \"#utility.yul\":389:405   */\n      swap1\n      pop\n        /* \"#utility.yul\":334:411   */\n      swap2\n      swap1\n      pop\n      jump\t// out\n        /* \"#utility.yul\":417:539   */\n    tag_134:\n        /* \"#utility.yul\":490:514   */\n      tag_202\n        /* \"#utility.yul\":508:513   */\n      dup2\n        /* \"#utility.yul\":490:514   */\n      tag_133\n      jump\t// in\n    tag_202:\n        /* \"#utility.yul\":483:488   */\n      dup2\n        /* \"#utility.yul\":480:515   */\n      eq\n        /* \"#utility.yul\":470:533   */\n      tag_203\n      jumpi\n        /* \"#utility.yul\":529:530   */\n      0x00\n        /* \"#utility.yul\":526:527   */\n      dup1\n        /* \"#utility.yul\":519:531   */\n      revert\n        /* \"#utility.yul\":470:533   */\n    tag_203:\n        /* \"#utility.yul\":417:539   */\n      pop\n      jump\t// out\n        /* \"#utility.yul\":545:684   */\n    tag_135:\n        /* \"#utility.yul\":591:596   */\n      0x00\n        /* \"#utility.yul\":629:635   */\n      dup2\n        /* \"#utility.yul\":616:636   */\n      calldataload\n        /* \"#utility.yul\":607:636   */\n      swap1\n      pop\n        /* \"#utility.yul\":645:678   */\n      tag_205\n        /* \"#utility.yul\":672:677   */\n      dup2\n        /* \"#utility.yul\":645:678   */\n      tag_134\n      jump\t// in\n    tag_205:\n        /* \"#utility.yul\":545:684   */\n      swap3\n      swap2\n      pop\n      pop\n      jump\t// out\n        /* \"#utility.yul\":690:1019   */\n    tag_15:\n        /* \"#utility.yul\":749:755   */\n      0x00\n        /* \"#utility.yul\":798:800   */\n      0x20\n        /* \"#utility.yul\":786:795   */\n      dup3\n        /* \"#utility.yul\":777:784   */\n      dup5\n        /* \"#utility.yul\":773:796   */\n      sub\n        /* \"#utility.yul\":769:801   */\n      slt\n        /* \"#utility.yul\":766:885   */\n      iszero\n      tag_207\n      jumpi\n        /* \"#utility.yul\":804:883   */\n      tag_208\n      tag_131\n      jump\t// in\n    tag_208:\n        /* \"#utility.yul\":766:885   */\n    tag_207:\n        /* \"#utility.yul\":924:925   */\n      0x00\n        /* \"#utility.yul\":949:1002   */\n      tag_209\n        /* \"#utility.yul\":994:1001   */\n      dup5\n        /* \"#utility.yul\":985:991   */\n      dup3\n        /* \"#utility.yul\":974:983   */\n      dup6\n        /* \"#utility.yul\":970:992   */\n      add\n        /* \"#utility.yul\":949:1002   */\n      tag_135\n      jump\t// in\n    tag_209:\n        /* \"#utility.yul\":939:1002   */\n      swap2\n      pop\n        /* \"#utility.yul\":895:1012   */\n      pop\n        /* \"#utility.yul\":690:1019   */\n      swap3\n      swap2\n      pop\n      pop\n      jump\t// out\n        /* \"#utility.yul\":1025:1115   */\n    tag_136:\n        /* \"#utility.yul\":1059:1066   */\n      0x00\n        /* \"#utility.yul\":1102:1107   */\n      dup2\n        /* \"#utility.yul\":1095:1108   */\n      iszero\n        /* \"#utility.yul\":1088:1109   */\n      iszero\n        /* \"#utility.yul\":1077:1109   */\n      swap1\n      pop\n        /* \"#utility.yul\":1025:1115   */\n      swap2\n      swap1\n      pop\n      jump\t// out\n        /* \"#utility.yul\":1121:1230   */\n    tag_137:\n        /* \"#utility.yul\":1202:1223   */\n      tag_212\n        /* \"#utility.yul\":1217:1222   */\n      dup2\n        /* \"#utility.yul\":1202:1223   */\n      tag_136\n      jump\t// in\n    tag_212:\n        /* \"#utility.yul\":1197:1200   */\n      dup3\n        /* \"#utility.yul\":1190:1224   */\n      mstore\n        /* \"#utility.yul\":1121:1230   */\n      pop\n      pop\n      jump\t// out\n        /* \"#utility.yul\":1236:1335   */\n    tag_138:\n        /* \"#utility.yul\":1288:1294   */\n      0x00\n        /* \"#utility.yul\":1322:1327   */\n      dup2\n        /* \"#utility.yul\":1316:1328   */\n      mload\n        /* \"#utility.yul\":1306:1328   */\n      swap1\n      pop\n        /* \"#utility.yul\":1236:1335   */\n      swap2\n      swap1\n      pop\n      jump\t// out\n        /* \"#utility.yul\":1341:1510   */\n    tag_139:\n        /* \"#utility.yul\":1425:1436   */\n      0x00\n        /* \"#utility.yul\":1459:1465   */\n      dup3\n        /* \"#utility.yul\":1454:1457   */\n      dup3\n        /* \"#utility.yul\":1447:1466   */\n      mstore\n        /* \"#utility.yul\":1499:1503   */\n      0x20\n        /* \"#utility.yul\":1494:1497   */\n      dup3\n        /* \"#utility.yul\":1490:1504   */\n      add\n        /* \"#utility.yul\":1475:1504   */\n      swap1\n      pop\n        /* \"#utility.yul\":1341:1510   */\n      swap3\n      swap2\n      pop\n      pop\n      jump\t// out\n        /* \"#utility.yul\":1516:1655   */\n    tag_140:\n        /* \"#utility.yul\":1605:1611   */\n      dup3\n        /* \"#utility.yul\":1600:1603   */\n      dup2\n        /* \"#utility.yul\":1595:1598   */\n      dup4\n        /* \"#utility.yul\":1589:1612   */\n      mcopy\n        /* \"#utility.yul\":1646:1647   */\n      0x00\n        /* \"#utility.yul\":1637:1643   */\n      dup4\n        /* \"#utility.yul\":1632:1635   */\n      dup4\n        /* \"#utility.yul\":1628:1644   */\n      add\n        /* \"#utility.yul\":1621:1648   */\n      mstore\n        /* \"#utility.yul\":1516:1655   */\n      pop\n      pop\n      pop\n      jump\t// out\n        /* \"#utility.yul\":1661:1763   */\n    tag_141:\n        /* \"#utility.yul\":1702:1708   */\n      0x00\n        /* \"#utility.yul\":1753:1755   */\n      0x1f\n        /* \"#utility.yul\":1749:1756   */\n      not\n        /* \"#utility.yul\":1744:1746   */\n      0x1f\n        /* \"#utility.yul\":1737:1742   */\n      dup4\n        /* \"#utility.yul\":1733:1747   */\n      add\n        /* \"#utility.yul\":1729:1757   */\n      and\n        /* \"#utility.yul\":1719:1757   */\n      swap1\n      pop\n        /* \"#utility.yul\":1661:1763   */\n      swap2\n      swap1\n      pop\n      jump\t// out\n        /* \"#utility.yul\":1769:2146   */\n    tag_142:\n        /* \"#utility.yul\":1857:1860   */\n      0x00\n        /* \"#utility.yul\":1885:1924   */\n      tag_218\n        /* \"#utility.yul\":1918:1923   */\n      dup3\n        /* \"#utility.yul\":1885:1924   */\n      tag_138\n      jump\t// in\n    tag_218:\n        /* \"#utility.yul\":1940:2011   */\n      tag_219\n        /* \"#utility.yul\":2004:2010   */\n      dup2\n        /* \"#utility.yul\":1999:2002   */\n      dup6\n        /* \"#utility.yul\":1940:2011   */\n      tag_139\n      jump\t// in\n    tag_219:\n        /* \"#utility.yul\":1933:2011   */\n      swap4\n      pop\n        /* \"#utility.yul\":2020:2085   */\n      tag_220\n        /* \"#utility.yul\":2078:2084   */\n      dup2\n        /* \"#utility.yul\":2073:2076   */\n      dup6\n        /* \"#utility.yul\":2066:2070   */\n      0x20\n        /* \"#utility.yul\":2059:2064   */\n      dup7\n        /* \"#utility.yul\":2055:2071   */\n      add\n        /* \"#utility.yul\":2020:2085   */\n      tag_140\n      jump\t// in\n    tag_220:\n        /* \"#utility.yul\":2110:2139   */\n      tag_221\n        /* \"#utility.yul\":2132:2138   */\n      dup2\n        /* \"#utility.yul\":2110:2139   */\n      tag_141\n      jump\t// in\n    tag_221:\n        /* \"#utility.yul\":2105:2108   */\n      dup5\n        /* \"#utility.yul\":2101:2140   */\n      add\n        /* \"#utility.yul\":2094:2140   */\n      swap2\n      pop\n        /* \"#utility.yul\":1861:2146   */\n      pop\n        /* \"#utility.yul\":1769:2146   */\n      swap3\n      swap2\n      pop\n      pop\n      jump\t// out\n        /* \"#utility.yul\":2152:2229   */\n    tag_143:\n        /* \"#utility.yul\":2189:2196   */\n      0x00\n        /* \"#utility.yul\":2218:2223   */\n      dup2\n        /* \"#utility.yul\":2207:2223   */\n      swap1\n      pop\n        /* \"#utility.yul\":2152:2229   */\n      swap2\n      swap1\n      pop\n      jump\t// out\n        /* \"#utility.yul\":2235:2353   */\n    tag_144:\n        /* \"#utility.yul\":2322:2346   */\n      tag_224\n        /* \"#utility.yul\":2340:2345   */\n      dup2\n        /* \"#utility.yul\":2322:2346   */\n      tag_143\n      jump\t// in\n    tag_224:\n        /* \"#utility.yul\":2317:2320   */\n      dup3\n        /* \"#utility.yul\":2310:2347   */\n      mstore\n        /* \"#utility.yul\":2235:2353   */\n      pop\n      pop\n      jump\t// out\n        /* \"#utility.yul\":2359:3415   */\n    tag_18:\n        /* \"#utility.yul\":2654:2658   */\n      0x00\n        /* \"#utility.yul\":2692:2695   */\n      0xe0\n        /* \"#utility.yul\":2681:2690   */\n      dup3\n        /* \"#utility.yul\":2677:2696   */\n      add\n        /* \"#utility.yul\":2669:2696   */\n      swap1\n      pop\n        /* \"#utility.yul\":2706:2771   */\n      tag_226\n        /* \"#utility.yul\":2768:2769   */\n      0x00\n        /* \"#utility.yul\":2757:2766   */\n      dup4\n        /* \"#utility.yul\":2753:2770   */\n      add\n        /* \"#utility.yul\":2744:2750   */\n      dup11\n        /* \"#utility.yul\":2706:2771   */\n      tag_137\n      jump\t// in\n    tag_226:\n        /* \"#utility.yul\":2818:2827   */\n      dup2\n        /* \"#utility.yul\":2812:2816   */\n      dup2\n        /* \"#utility.yul\":2808:2828   */\n      sub\n        /* \"#utility.yul\":2803:2805   */\n      0x20\n        /* \"#utility.yul\":2792:2801   */\n      dup4\n        /* \"#utility.yul\":2788:2806   */\n      add\n        /* \"#utility.yul\":2781:2829   */\n      mstore\n        /* \"#utility.yul\":2846:2924   */\n      tag_227\n        /* \"#utility.yul\":2919:2923   */\n      dup2\n        /* \"#utility.yul\":2910:2916   */\n      dup10\n        /* \"#utility.yul\":2846:2924   */\n      tag_142\n      jump\t// in\n    tag_227:\n        /* \"#utility.yul\":2838:2924   */\n      swap1\n      pop\n        /* \"#utility.yul\":2934:3006   */\n      tag_228\n        /* \"#utility.yul\":3002:3004   */\n      0x40\n        /* \"#utility.yul\":2991:3000   */\n      dup4\n        /* \"#utility.yul\":2987:3005   */\n      add\n        /* \"#utility.yul\":2978:2984   */\n      dup9\n        /* \"#utility.yul\":2934:3006   */\n      tag_144\n      jump\t// in\n    tag_228:\n        /* \"#utility.yul\":3053:3062   */\n      dup2\n        /* \"#utility.yul\":3047:3051   */\n      dup2\n        /* \"#utility.yul\":3043:3063   */\n      sub\n        /* \"#utility.yul\":3038:3040   */\n      0x60\n        /* \"#utility.yul\":3027:3036   */\n      dup4\n        /* \"#utility.yul\":3023:3041   */\n      add\n        /* \"#utility.yul\":3016:3064   */\n      mstore\n        /* \"#utility.yul\":3081:3159   */\n      tag_229\n        /* \"#utility.yul\":3154:3158   */\n      dup2\n        /* \"#utility.yul\":3145:3151   */\n      dup8\n        /* \"#utility.yul\":3081:3159   */\n      tag_142\n      jump\t// in\n    tag_229:\n        /* \"#utility.yul\":3073:3159   */\n      swap1\n      pop\n        /* \"#utility.yul\":3169:3242   */\n      tag_230\n        /* \"#utility.yul\":3237:3240   */\n      0x80\n        /* \"#utility.yul\":3226:3235   */\n      dup4\n        /* \"#utility.yul\":3222:3241   */\n      add\n        /* \"#utility.yul\":3213:3219   */\n      dup7\n        /* \"#utility.yul\":3169:3242   */\n      tag_144\n      jump\t// in\n    tag_230:\n        /* \"#utility.yul\":3252:3325   */\n      tag_231\n        /* \"#utility.yul\":3320:3323   */\n      0xa0\n        /* \"#utility.yul\":3309:3318   */\n      dup4\n        /* \"#utility.yul\":3305:3324   */\n      add\n        /* \"#utility.yul\":3296:3302   */\n      dup6\n        /* \"#utility.yul\":3252:3325   */\n      tag_144\n      jump\t// in\n    tag_231:\n        /* \"#utility.yul\":3335:3408   */\n      tag_232\n        /* \"#utility.yul\":3403:3406   */\n      0xc0\n        /* \"#utility.yul\":3392:3401   */\n      dup4\n        /* \"#utility.yul\":3388:3407   */\n      add\n        /* \"#utility.yul\":3379:3385   */\n      dup5\n        /* \"#utility.yul\":3335:3408   */\n      tag_144\n      jump\t// in\n    tag_232:\n        /* \"#utility.yul\":2359:3415   */\n      swap9\n      swap8\n      pop\n      pop\n      pop\n      pop\n      pop\n      pop\n      pop\n      pop\n      jump\t// out\n        /* \"#utility.yul\":3421:3547   */\n    tag_145:\n        /* \"#utility.yul\":3458:3465   */\n      0x00\n        /* \"#utility.yul\":3498:3540   */\n      0xffffffffffffffffffffffffffffffffffffffff\n        /* \"#utility.yul\":3491:3496   */\n      dup3\n        /* \"#utility.yul\":3487:3541   */\n      and\n        /* \"#utility.yul\":3476:3541   */\n      swap1\n      pop\n        /* \"#utility.yul\":3421:3547   */\n      swap2\n      swap1\n      pop\n      jump\t// out\n        /* \"#utility.yul\":3553:3649   */\n    tag_146:\n        /* \"#utility.yul\":3590:3597   */\n      0x00\n        /* \"#utility.yul\":3619:3643   */\n      tag_235\n        /* \"#utility.yul\":3637:3642   */\n      dup3\n        /* \"#utility.yul\":3619:3643   */\n      tag_145\n      jump\t// in\n    tag_235:\n        /* \"#utility.yul\":3608:3643   */\n      swap1\n      pop\n        /* \"#utility.yul\":3553:3649   */\n      swap2\n      swap1\n      pop\n      jump\t// out\n        /* \"#utility.yul\":3655:3777   */\n    tag_147:\n        /* \"#utility.yul\":3728:3752   */\n      tag_237\n        /* \"#utility.yul\":3746:3751   */\n      dup2\n        /* \"#utility.yul\":3728:3752   */\n      tag_146\n      jump\t// in\n    tag_237:\n        /* \"#utility.yul\":3721:3726   */\n      dup2\n        /* \"#utility.yul\":3718:3753   */\n      eq\n        /* \"#utility.yul\":3708:3771   */\n      tag_238\n      jumpi\n        /* \"#utility.yul\":3767:3768   */\n      0x00\n        /* \"#utility.yul\":3764:3765   */\n      dup1\n        /* \"#utility.yul\":3757:3769   */\n      revert\n        /* \"#utility.yul\":3708:3771   */\n    tag_238:\n        /* \"#utility.yul\":3655:3777   */\n      pop\n      jump\t// out\n        /* \"#utility.yul\":3783:3922   */\n    tag_148:\n        /* \"#utility.yul\":3829:3834   */\n      0x00\n        /* \"#utility.yul\":3867:3873   */\n      dup2\n        /* \"#utility.yul\":3854:3874   */\n      calldataload\n        /* \"#utility.yul\":3845:3874   */\n      swap1\n      pop\n        /* \"#utility.yul\":3883:3916   */\n      tag_240\n        /* \"#utility.yul\":3910:3915   */\n      dup2\n        /* \"#utility.yul\":3883:3916   */\n      tag_147\n      jump\t// in\n    tag_240:\n        /* \"#utility.yul\":3783:3922   */\n      swap3\n      swap2\n      pop\n      pop\n      jump\t// out\n        /* \"#utility.yul\":3928:4045   */\n    tag_149:\n        /* \"#utility.yul\":4037:4038   */\n      0x00\n        /* \"#utility.yul\":4034:4035   */\n      dup1\n        /* \"#utility.yul\":4027:4039   */\n      revert\n        /* \"#utility.yul\":4051:4168   */\n    tag_150:\n        /* \"#utility.yul\":4160:4161   */\n      0x00\n        /* \"#utility.yul\":4157:4158   */\n      dup1\n        /* \"#utility.yul\":4150:4162   */\n      revert\n        /* \"#utility.yul\":4174:4354   */\n    tag_151:\n        /* \"#utility.yul\":4222:4299   */\n      0x4e487b7100000000000000000000000000000000000000000000000000000000\n        /* \"#utility.yul\":4219:4220   */\n      0x00\n        /* \"#utility.yul\":4212:4300   */\n      mstore\n        /* \"#utility.yul\":4319:4323   */\n      0x41\n        /* \"#utility.yul\":4316:4317   */\n      0x04\n        /* \"#utility.yul\":4309:4324   */\n      mstore\n        /* \"#utility.yul\":4343:4347   */\n      0x24\n        /* \"#utility.yul\":4340:4341   */\n      0x00\n        /* \"#utility.yul\":4333:4348   */\n      revert\n        /* \"#utility.yul\":4360:4641   */\n    tag_152:\n        /* \"#utility.yul\":4443:4470   */\n      tag_245\n        /* \"#utility.yul\":4465:4469   */\n      dup3\n        /* \"#utility.yul\":4443:4470   */\n      tag_141\n      jump\t// in\n    tag_245:\n        /* \"#utility.yul\":4435:4441   */\n      dup2\n        /* \"#utility.yul\":4431:4471   */\n      add\n        /* \"#utility.yul\":4573:4579   */\n      dup2\n        /* \"#utility.yul\":4561:4571   */\n      dup2\n        /* \"#utility.yul\":4558:4580   */\n      lt\n        /* \"#utility.yul\":4537:4555   */\n      0xffffffffffffffff\n        /* \"#utility.yul\":4525:4535   */\n      dup3\n        /* \"#utility.yul\":4522:4556   */\n      gt\n        /* \"#utility.yul\":4519:4581   */\n      or\n        /* \"#utility.yul\":4516:4604   */\n      iszero\n      tag_246\n      jumpi\n        /* \"#utility.yul\":4584:4602   */\n      tag_247\n      tag_151\n      jump\t// in\n    tag_247:\n        /* \"#utility.yul\":4516:4604   */\n    tag_246:\n        /* \"#utility.yul\":4624:4634   */\n      dup1\n        /* \"#utility.yul\":4620:4622   */\n      0x40\n        /* \"#utility.yul\":4613:4635   */\n      mstore\n        /* \"#utility.yul\":4403:4641   */\n      pop\n        /* \"#utility.yul\":4360:4641   */\n      pop\n      pop\n      jump\t// out\n        /* \"#utility.yul\":4647:4776   */\n    tag_153:\n        /* \"#utility.yul\":4681:4687   */\n      0x00\n        /* \"#utility.yul\":4708:4728   */\n      tag_249\n      tag_130\n      jump\t// in\n    tag_249:\n        /* \"#utility.yul\":4698:4728   */\n      swap1\n      pop\n        /* \"#utility.yul\":4737:4770   */\n      tag_250\n        /* \"#utility.yul\":4765:4769   */\n      dup3\n        /* \"#utility.yul\":4757:4763   */\n      dup3\n        /* \"#utility.yul\":4737:4770   */\n      tag_152\n      jump\t// in\n    tag_250:\n        /* \"#utility.yul\":4647:4776   */\n      swap2\n      swap1\n      pop\n      jump\t// out\n        /* \"#utility.yul\":4782:5090   */\n    tag_154:\n        /* \"#utility.yul\":4844:4848   */\n      0x00\n        /* \"#utility.yul\":4934:4952   */\n      0xffffffffffffffff\n        /* \"#utility.yul\":4926:4932   */\n      dup3\n        /* \"#utility.yul\":4923:4953   */\n      gt\n        /* \"#utility.yul\":4920:4976   */\n      iszero\n      tag_252\n      jumpi\n        /* \"#utility.yul\":4956:4974   */\n      tag_253\n      tag_151\n      jump\t// in\n    tag_253:\n        /* \"#utility.yul\":4920:4976   */\n    tag_252:\n        /* \"#utility.yul\":4994:5023   */\n      tag_254\n        /* \"#utility.yul\":5016:5022   */\n      dup3\n        /* \"#utility.yul\":4994:5023   */\n      tag_141\n      jump\t// in\n    tag_254:\n        /* \"#utility.yul\":4986:5023   */\n      swap1\n      pop\n        /* \"#utility.yul\":5078:5082   */\n      0x20\n        /* \"#utility.yul\":5072:5076   */\n      dup2\n        /* \"#utility.yul\":5068:5083   */\n      add\n        /* \"#utility.yul\":5060:5083   */\n      swap1\n      pop\n        /* \"#utility.yul\":4782:5090   */\n      swap2\n      swap1\n      pop\n      jump\t// out\n        /* \"#utility.yul\":5096:5244   */\n    tag_155:\n        /* \"#utility.yul\":5194:5200   */\n      dup3\n        /* \"#utility.yul\":5189:5192   */\n      dup2\n        /* \"#utility.yul\":5184:5187   */\n      dup4\n        /* \"#utility.yul\":5171:5201   */\n      calldatacopy\n        /* \"#utility.yul\":5235:5236   */\n      0x00\n        /* \"#utility.yul\":5226:5232   */\n      dup4\n        /* \"#utility.yul\":5221:5224   */\n      dup4\n        /* \"#utility.yul\":5217:5233   */\n      add\n        /* \"#utility.yul\":5210:5237   */\n      mstore\n        /* \"#utility.yul\":5096:5244   */\n      pop\n      pop\n      pop\n      jump\t// out\n        /* \"#utility.yul\":5250:5675   */\n    tag_156:\n        /* \"#utility.yul\":5328:5333   */\n      0x00\n        /* \"#utility.yul\":5353:5419   */\n      tag_257\n        /* \"#utility.yul\":5369:5418   */\n      tag_258\n        /* \"#utility.yul\":5411:5417   */\n      dup5\n        /* \"#utility.yul\":5369:5418   */\n      tag_154\n      jump\t// in\n    tag_258:\n        /* \"#utility.yul\":5353:5419   */\n      tag_153\n      jump\t// in\n    tag_257:\n        /* \"#utility.yul\":5344:5419   */\n      swap1\n      pop\n        /* \"#utility.yul\":5442:5448   */\n      dup3\n        /* \"#utility.yul\":5435:5440   */\n      dup2\n        /* \"#utility.yul\":5428:5449   */\n      mstore\n        /* \"#utility.yul\":5480:5484   */\n      0x20\n        /* \"#utility.yul\":5473:5478   */\n      dup2\n        /* \"#utility.yul\":5469:5485   */\n      add\n        /* \"#utility.yul\":5518:5521   */\n      dup5\n        /* \"#utility.yul\":5509:5515   */\n      dup5\n        /* \"#utility.yul\":5504:5507   */\n      dup5\n        /* \"#utility.yul\":5500:5516   */\n      add\n        /* \"#utility.yul\":5497:5522   */\n      gt\n        /* \"#utility.yul\":5494:5606   */\n      iszero\n      tag_259\n      jumpi\n        /* \"#utility.yul\":5525:5604   */\n      tag_260\n      tag_150\n      jump\t// in\n    tag_260:\n        /* \"#utility.yul\":5494:5606   */\n    tag_259:\n        /* \"#utility.yul\":5615:5669   */\n      tag_261\n        /* \"#utility.yul\":5662:5668   */\n      dup5\n        /* \"#utility.yul\":5657:5660   */\n      dup3\n        /* \"#utility.yul\":5652:5655   */\n      dup6\n        /* \"#utility.yul\":5615:5669   */\n      tag_155\n      jump\t// in\n    tag_261:\n        /* \"#utility.yul\":5334:5675   */\n      pop\n        /* \"#utility.yul\":5250:5675   */\n      swap4\n      swap3\n      pop\n      pop\n      pop\n      jump\t// out\n        /* \"#utility.yul\":5695:6035   */\n    tag_157:\n        /* \"#utility.yul\":5751:5756   */\n      0x00\n        /* \"#utility.yul\":5800:5803   */\n      dup3\n        /* \"#utility.yul\":5793:5797   */\n      0x1f\n        /* \"#utility.yul\":5785:5791   */\n      dup4\n        /* \"#utility.yul\":5781:5798   */\n      add\n        /* \"#utility.yul\":5777:5804   */\n      slt\n        /* \"#utility.yul\":5767:5889   */\n      tag_263\n      jumpi\n        /* \"#utility.yul\":5808:5887   */\n      tag_264\n      tag_149\n      jump\t// in\n    tag_264:\n        /* \"#utility.yul\":5767:5889   */\n    tag_263:\n        /* \"#utility.yul\":5925:5931   */\n      dup2\n        /* \"#utility.yul\":5912:5932   */\n      calldataload\n        /* \"#utility.yul\":5950:6029   */\n      tag_265\n        /* \"#utility.yul\":6025:6028   */\n      dup5\n        /* \"#utility.yul\":6017:6023   */\n      dup3\n        /* \"#utility.yul\":6010:6014   */\n      0x20\n        /* \"#utility.yul\":6002:6008   */\n      dup7\n        /* \"#utility.yul\":5998:6015   */\n      add\n        /* \"#utility.yul\":5950:6029   */\n      tag_156\n      jump\t// in\n    tag_265:\n        /* \"#utility.yul\":5941:6029   */\n      swap2\n      pop\n        /* \"#utility.yul\":5757:6035   */\n      pop\n        /* \"#utility.yul\":5695:6035   */\n      swap3\n      swap2\n      pop\n      pop\n      jump\t// out\n        /* \"#utility.yul\":6041:7020   */\n    tag_21:\n        /* \"#utility.yul\":6138:6144   */\n      0x00\n        /* \"#utility.yul\":6146:6152   */\n      dup1\n        /* \"#utility.yul\":6154:6160   */\n      0x00\n        /* \"#utility.yul\":6203:6205   */\n      0x60\n        /* \"#utility.yul\":6191:6200   */\n      dup5\n        /* \"#utility.yul\":6182:6189   */\n      dup7\n        /* \"#utility.yul\":6178:6201   */\n      sub\n        /* \"#utility.yul\":6174:6206   */\n      slt\n        /* \"#utility.yul\":6171:6290   */\n      iszero\n      tag_267\n      jumpi\n        /* \"#utility.yul\":6209:6288   */\n      tag_268\n      tag_131\n      jump\t// in\n    tag_268:\n        /* \"#utility.yul\":6171:6290   */\n    tag_267:\n        /* \"#utility.yul\":6329:6330   */\n      0x00\n        /* \"#utility.yul\":6354:6407   */\n      tag_269\n        /* \"#utility.yul\":6399:6406   */\n      dup7\n        /* \"#utility.yul\":6390:6396   */\n      dup3\n        /* \"#utility.yul\":6379:6388   */\n      dup8\n        /* \"#utility.yul\":6375:6397   */\n      add\n        /* \"#utility.yul\":6354:6407   */\n      tag_148\n      jump\t// in\n    tag_269:\n        /* \"#utility.yul\":6344:6407   */\n      swap4\n      pop\n        /* \"#utility.yul\":6300:6417   */\n      pop\n        /* \"#utility.yul\":6484:6486   */\n      0x20\n        /* \"#utility.yul\":6473:6482   */\n      dup5\n        /* \"#utility.yul\":6469:6487   */\n      add\n        /* \"#utility.yul\":6456:6488   */\n      calldataload\n        /* \"#utility.yul\":6515:6533   */\n      0xffffffffffffffff\n        /* \"#utility.yul\":6507:6513   */\n      dup2\n        /* \"#utility.yul\":6504:6534   */\n      gt\n        /* \"#utility.yul\":6501:6618   */\n      iszero\n      tag_270\n      jumpi\n        /* \"#utility.yul\":6537:6616   */\n      tag_271\n      tag_132\n      jump\t// in\n    tag_271:\n        /* \"#utility.yul\":6501:6618   */\n    tag_270:\n        /* \"#utility.yul\":6642:6705   */\n      tag_272\n        /* \"#utility.yul\":6697:6704   */\n      dup7\n        /* \"#utility.yul\":6688:6694   */\n      dup3\n        /* \"#utility.yul\":6677:6686   */\n      dup8\n        /* \"#utility.yul\":6673:6695   */\n      add\n        /* \"#utility.yul\":6642:6705   */\n      tag_157\n      jump\t// in\n    tag_272:\n        /* \"#utility.yul\":6632:6705   */\n      swap3\n      pop\n        /* \"#utility.yul\":6427:6715   */\n      pop\n        /* \"#utility.yul\":6782:6784   */\n      0x40\n        /* \"#utility.yul\":6771:6780   */\n      dup5\n        /* \"#utility.yul\":6767:6785   */\n      add\n        /* \"#utility.yul\":6754:6786   */\n      calldataload\n        /* \"#utility.yul\":6813:6831   */\n      0xffffffffffffffff\n        /* \"#utility.yul\":6805:6811   */\n      dup2\n        /* \"#utility.yul\":6802:6832   */\n      gt\n        /* \"#utility.yul\":6799:6916   */\n      iszero\n      tag_273\n      jumpi\n        /* \"#utility.yul\":6835:6914   */\n      tag_274\n      tag_132\n      jump\t// in\n    tag_274:\n        /* \"#utility.yul\":6799:6916   */\n    tag_273:\n        /* \"#utility.yul\":6940:7003   */\n      tag_275\n        /* \"#utility.yul\":6995:7002   */\n      dup7\n        /* \"#utility.yul\":6986:6992   */\n      dup3\n        /* \"#utility.yul\":6975:6984   */\n      dup8\n        /* \"#utility.yul\":6971:6993   */\n      add\n        /* \"#utility.yul\":6940:7003   */\n      tag_157\n      jump\t// in\n    tag_275:\n        /* \"#utility.yul\":6930:7003   */\n      swap2\n      pop\n        /* \"#utility.yul\":6725:7013   */\n      pop\n        /* \"#utility.yul\":6041:7020   */\n      swap3\n      pop\n      swap3\n      pop\n      swap3\n      jump\t// out\n        /* \"#utility.yul\":7026:7148   */\n    tag_158:\n        /* \"#utility.yul\":7099:7123   */\n      tag_277\n        /* \"#utility.yul\":7117:7122   */\n      dup2\n        /* \"#utility.yul\":7099:7123   */\n      tag_143\n      jump\t// in\n    tag_277:\n        /* \"#utility.yul\":7092:7097   */\n      dup2\n        /* \"#utility.yul\":7089:7124   */\n      eq\n        /* \"#utility.yul\":7079:7142   */\n      tag_278\n      jumpi\n        /* \"#utility.yul\":7138:7139   */\n      0x00\n        /* \"#utility.yul\":7135:7136   */\n      dup1\n        /* \"#utility.yul\":7128:7140   */\n      revert\n        /* \"#utility.yul\":7079:7142   */\n    tag_278:\n        /* \"#utility.yul\":7026:7148   */\n      pop\n      jump\t// out\n        /* \"#utility.yul\":7154:7293   */\n    tag_159:\n        /* \"#utility.yul\":7200:7205   */\n      0x00\n        /* \"#utility.yul\":7238:7244   */\n      dup2\n        /* \"#utility.yul\":7225:7245   */\n      calldataload\n        /* \"#utility.yul\":7216:7245   */\n      swap1\n      pop\n        /* \"#utility.yul\":7254:7287   */\n      tag_280\n        /* \"#utility.yul\":7281:7286   */\n      dup2\n        /* \"#utility.yul\":7254:7287   */\n      tag_158\n      jump\t// in\n    tag_280:\n        /* \"#utility.yul\":7154:7293   */\n      swap3\n      swap2\n      pop\n      pop\n      jump\t// out\n        /* \"#utility.yul\":7299:7628   */\n    tag_25:\n        /* \"#utility.yul\":7358:7364   */\n      0x00\n        /* \"#utility.yul\":7407:7409   */\n      0x20\n        /* \"#utility.yul\":7395:7404   */\n      dup3\n        /* \"#utility.yul\":7386:7393   */\n      dup5\n        /* \"#utility.yul\":7382:7405   */\n      sub\n        /* \"#utility.yul\":7378:7410   */\n      slt\n        /* \"#utility.yul\":7375:7494   */\n      iszero\n      tag_282\n      jumpi\n        /* \"#utility.yul\":7413:7492   */\n      tag_283\n      tag_131\n      jump\t// in\n    tag_283:\n        /* \"#utility.yul\":7375:7494   */\n    tag_282:\n        /* \"#utility.yul\":7533:7534   */\n      0x00\n        /* \"#utility.yul\":7558:7611   */\n      tag_284\n        /* \"#utility.yul\":7603:7610   */\n      dup5\n        /* \"#utility.yul\":7594:7600   */\n      dup3\n        /* \"#utility.yul\":7583:7592   */\n      dup6\n        /* \"#utility.yul\":7579:7601   */\n      add\n        /* \"#utility.yul\":7558:7611   */\n      tag_159\n      jump\t// in\n    tag_284:\n        /* \"#utility.yul\":7548:7611   */\n      swap2\n      pop\n        /* \"#utility.yul\":7504:7621   */\n      pop\n        /* \"#utility.yul\":7299:7628   */\n      swap3\n      swap2\n      pop\n      pop\n      jump\t// out\n        /* \"#utility.yul\":7634:7752   */\n    tag_160:\n        /* \"#utility.yul\":7721:7745   */\n      tag_286\n        /* \"#utility.yul\":7739:7744   */\n      dup2\n        /* \"#utility.yul\":7721:7745   */\n      tag_133\n      jump\t// in\n    tag_286:\n        /* \"#utility.yul\":7716:7719   */\n      dup3\n        /* \"#utility.yul\":7709:7746   */\n      mstore\n        /* \"#utility.yul\":7634:7752   */\n      pop\n      pop\n      jump\t// out\n        /* \"#utility.yul\":7758:7980   */\n    tag_28:\n        /* \"#utility.yul\":7851:7855   */\n      0x00\n        /* \"#utility.yul\":7889:7891   */\n      0x20\n        /* \"#utility.yul\":7878:7887   */\n      dup3\n        /* \"#utility.yul\":7874:7892   */\n      add\n        /* \"#utility.yul\":7866:7892   */\n      swap1\n      pop\n        /* \"#utility.yul\":7902:7973   */\n      tag_288\n        /* \"#utility.yul\":7970:7971   */\n      0x00\n        /* \"#utility.yul\":7959:7968   */\n      dup4\n        /* \"#utility.yul\":7955:7972   */\n      add\n        /* \"#utility.yul\":7946:7952   */\n      dup5\n        /* \"#utility.yul\":7902:7973   */\n      tag_160\n      jump\t// in\n    tag_288:\n        /* \"#utility.yul\":7758:7980   */\n      swap3\n      swap2\n      pop\n      pop\n      jump\t// out\n        /* \"#utility.yul\":7986:9549   */\n    tag_31:\n        /* \"#utility.yul\":8119:8125   */\n      0x00\n        /* \"#utility.yul\":8127:8133   */\n      dup1\n        /* \"#utility.yul\":8135:8141   */\n      0x00\n        /* \"#utility.yul\":8143:8149   */\n      dup1\n        /* \"#utility.yul\":8151:8157   */\n      0x00\n        /* \"#utility.yul\":8159:8165   */\n      dup1\n        /* \"#utility.yul\":8167:8173   */\n      0x00\n        /* \"#utility.yul\":8216:8219   */\n      0xe0\n        /* \"#utility.yul\":8204:8213   */\n      dup9\n        /* \"#utility.yul\":8195:8202   */\n      dup11\n        /* \"#utility.yul\":8191:8214   */\n      sub\n        /* \"#utility.yul\":8187:8220   */\n      slt\n        /* \"#utility.yul\":8184:8304   */\n      iszero\n      tag_290\n      jumpi\n        /* \"#utility.yul\":8223:8302   */\n      tag_291\n      tag_131\n      jump\t// in\n    tag_291:\n        /* \"#utility.yul\":8184:8304   */\n    tag_290:\n        /* \"#utility.yul\":8343:8344   */\n      0x00\n        /* \"#utility.yul\":8368:8421   */\n      tag_292\n        /* \"#utility.yul\":8413:8420   */\n      dup11\n        /* \"#utility.yul\":8404:8410   */\n      dup3\n        /* \"#utility.yul\":8393:8402   */\n      dup12\n        /* \"#utility.yul\":8389:8411   */\n      add\n        /* \"#utility.yul\":8368:8421   */\n      tag_135\n      jump\t// in\n    tag_292:\n        /* \"#utility.yul\":8358:8421   */\n      swap8\n      pop\n        /* \"#utility.yul\":8314:8431   */\n      pop\n        /* \"#utility.yul\":8498:8500   */\n      0x20\n        /* \"#utility.yul\":8487:8496   */\n      dup9\n        /* \"#utility.yul\":8483:8501   */\n      add\n        /* \"#utility.yul\":8470:8502   */\n      calldataload\n        /* \"#utility.yul\":8529:8547   */\n      0xffffffffffffffff\n        /* \"#utility.yul\":8521:8527   */\n      dup2\n        /* \"#utility.yul\":8518:8548   */\n      gt\n        /* \"#utility.yul\":8515:8632   */\n      iszero\n      tag_293\n      jumpi\n        /* \"#utility.yul\":8551:8630   */\n      tag_294\n      tag_132\n      jump\t// in\n    tag_294:\n        /* \"#utility.yul\":8515:8632   */\n    tag_293:\n        /* \"#utility.yul\":8656:8719   */\n      tag_295\n        /* \"#utility.yul\":8711:8718   */\n      dup11\n        /* \"#utility.yul\":8702:8708   */\n      dup3\n        /* \"#utility.yul\":8691:8700   */\n      dup12\n        /* \"#utility.yul\":8687:8709   */\n      add\n        /* \"#utility.yul\":8656:8719   */\n      tag_157\n      jump\t// in\n    tag_295:\n        /* \"#utility.yul\":8646:8719   */\n      swap7\n      pop\n        /* \"#utility.yul\":8441:8729   */\n      pop\n        /* \"#utility.yul\":8768:8770   */\n      0x40\n        /* \"#utility.yul\":8794:8847   */\n      tag_296\n        /* \"#utility.yul\":8839:8846   */\n      dup11\n        /* \"#utility.yul\":8830:8836   */\n      dup3\n        /* \"#utility.yul\":8819:8828   */\n      dup12\n        /* \"#utility.yul\":8815:8837   */\n      add\n        /* \"#utility.yul\":8794:8847   */\n      tag_159\n      jump\t// in\n    tag_296:\n        /* \"#utility.yul\":8784:8847   */\n      swap6\n      pop\n        /* \"#utility.yul\":8739:8857   */\n      pop\n        /* \"#utility.yul\":8924:8926   */\n      0x60\n        /* \"#utility.yul\":8913:8922   */\n      dup9\n        /* \"#utility.yul\":8909:8927   */\n      add\n        /* \"#utility.yul\":8896:8928   */\n      calldataload\n        /* \"#utility.yul\":8955:8973   */\n      0xffffffffffffffff\n        /* \"#utility.yul\":8947:8953   */\n      dup2\n        /* \"#utility.yul\":8944:8974   */\n      gt\n        /* \"#utility.yul\":8941:9058   */\n      iszero\n      tag_297\n      jumpi\n        /* \"#utility.yul\":8977:9056   */\n      tag_298\n      tag_132\n      jump\t// in\n    tag_298:\n        /* \"#utility.yul\":8941:9058   */\n    tag_297:\n        /* \"#utility.yul\":9082:9145   */\n      tag_299\n        /* \"#utility.yul\":9137:9144   */\n      dup11\n        /* \"#utility.yul\":9128:9134   */\n      dup3\n        /* \"#utility.yul\":9117:9126   */\n      dup12\n        /* \"#utility.yul\":9113:9135   */\n      add\n        /* \"#utility.yul\":9082:9145   */\n      tag_157\n      jump\t// in\n    tag_299:\n        /* \"#utility.yul\":9072:9145   */\n      swap5\n      pop\n        /* \"#utility.yul\":8867:9155   */\n      pop\n        /* \"#utility.yul\":9194:9197   */\n      0x80\n        /* \"#utility.yul\":9221:9274   */\n      tag_300\n        /* \"#utility.yul\":9266:9273   */\n      dup11\n        /* \"#utility.yul\":9257:9263   */\n      dup3\n        /* \"#utility.yul\":9246:9255   */\n      dup12\n        /* \"#utility.yul\":9242:9264   */\n      add\n        /* \"#utility.yul\":9221:9274   */\n      tag_159\n      jump\t// in\n    tag_300:\n        /* \"#utility.yul\":9211:9274   */\n      swap4\n      pop\n        /* \"#utility.yul\":9165:9284   */\n      pop\n        /* \"#utility.yul\":9323:9326   */\n      0xa0\n        /* \"#utility.yul\":9350:9403   */\n      tag_301\n        /* \"#utility.yul\":9395:9402   */\n      dup11\n        /* \"#utility.yul\":9386:9392   */\n      dup3\n        /* \"#utility.yul\":9375:9384   */\n      dup12\n        /* \"#utility.yul\":9371:9393   */\n      add\n        /* \"#utility.yul\":9350:9403   */\n      tag_159\n      jump\t// in\n    tag_301:\n        /* \"#utility.yul\":9340:9403   */\n      swap3\n      pop\n        /* \"#utility.yul\":9294:9413   */\n      pop\n        /* \"#utility.yul\":9452:9455   */\n      0xc0\n        /* \"#utility.yul\":9479:9532   */\n      tag_302\n        /* \"#utility.yul\":9524:9531   */\n      dup11\n        /* \"#utility.yul\":9515:9521   */\n      dup3\n        /* \"#utility.yul\":9504:9513   */\n      dup12\n        /* \"#utility.yul\":9500:9522   */\n      add\n        /* \"#utility.yul\":9479:9532   */\n      tag_159\n      jump\t// in\n    tag_302:\n        /* \"#utility.yul\":9469:9532   */\n      swap2\n      pop\n        /* \"#utility.yul\":9423:9542   */\n      pop\n        /* \"#utility.yul\":7986:9549   */\n      swap3\n      swap6\n      swap9\n      swap2\n      swap5\n      swap8\n      pop\n      swap3\n      swap6\n      pop\n      jump\t// out\n        /* \"#utility.yul\":9555:9777   */\n    tag_36:\n        /* \"#utility.yul\":9648:9652   */\n      0x00\n        /* \"#utility.yul\":9686:9688   */\n      0x20\n        /* \"#utility.yul\":9675:9684   */\n      dup3\n        /* \"#utility.yul\":9671:9689   */\n      add\n        /* \"#utility.yul\":9663:9689   */\n      swap1\n      pop\n        /* \"#utility.yul\":9699:9770   */\n      tag_304\n        /* \"#utility.yul\":9767:9768   */\n      0x00\n        /* \"#utility.yul\":9756:9765   */\n      dup4\n        /* \"#utility.yul\":9752:9769   */\n      add\n        /* \"#utility.yul\":9743:9749   */\n      dup5\n        /* \"#utility.yul\":9699:9770   */\n      tag_144\n      jump\t// in\n    tag_304:\n        /* \"#utility.yul\":9555:9777   */\n      swap3\n      swap2\n      pop\n      pop\n      jump\t// out\n        /* \"#utility.yul\":9783:10112   */\n    tag_39:\n        /* \"#utility.yul\":9842:9848   */\n      0x00\n        /* \"#utility.yul\":9891:9893   */\n      0x20\n        /* \"#utility.yul\":9879:9888   */\n      dup3\n        /* \"#utility.yul\":9870:9877   */\n      dup5\n        /* \"#utility.yul\":9866:9889   */\n      sub\n        /* \"#utility.yul\":9862:9894   */\n      slt\n        /* \"#utility.yul\":9859:9978   */\n      iszero\n      tag_306\n      jumpi\n        /* \"#utility.yul\":9897:9976   */\n      tag_307\n      tag_131\n      jump\t// in\n    tag_307:\n        /* \"#utility.yul\":9859:9978   */\n    tag_306:\n        /* \"#utility.yul\":10017:10018   */\n      0x00\n        /* \"#utility.yul\":10042:10095   */\n      tag_308\n        /* \"#utility.yul\":10087:10094   */\n      dup5\n        /* \"#utility.yul\":10078:10084   */\n      dup3\n        /* \"#utility.yul\":10067:10076   */\n      dup6\n        /* \"#utility.yul\":10063:10085   */\n      add\n        /* \"#utility.yul\":10042:10095   */\n      tag_148\n      jump\t// in\n    tag_308:\n        /* \"#utility.yul\":10032:10095   */\n      swap2\n      pop\n        /* \"#utility.yul\":9988:10105   */\n      pop\n        /* \"#utility.yul\":9783:10112   */\n      swap3\n      swap2\n      pop\n      pop\n      jump\t// out\n        /* \"#utility.yul\":10118:10632   */\n    tag_42:\n        /* \"#utility.yul\":10279:10283   */\n      0x00\n        /* \"#utility.yul\":10317:10319   */\n      0x40\n        /* \"#utility.yul\":10306:10315   */\n      dup3\n        /* \"#utility.yul\":10302:10320   */\n      add\n        /* \"#utility.yul\":10294:10320   */\n      swap1\n      pop\n        /* \"#utility.yul\":10366:10375   */\n      dup2\n        /* \"#utility.yul\":10360:10364   */\n      dup2\n        /* \"#utility.yul\":10356:10376   */\n      sub\n        /* \"#utility.yul\":10352:10353   */\n      0x00\n        /* \"#utility.yul\":10341:10350   */\n      dup4\n        /* \"#utility.yul\":10337:10354   */\n      add\n        /* \"#utility.yul\":10330:10377   */\n      mstore\n        /* \"#utility.yul\":10394:10472   */\n      tag_310\n        /* \"#utility.yul\":10467:10471   */\n      dup2\n        /* \"#utility.yul\":10458:10464   */\n      dup6\n        /* \"#utility.yul\":10394:10472   */\n      tag_142\n      jump\t// in\n    tag_310:\n        /* \"#utility.yul\":10386:10472   */\n      swap1\n      pop\n        /* \"#utility.yul\":10519:10528   */\n      dup2\n        /* \"#utility.yul\":10513:10517   */\n      dup2\n        /* \"#utility.yul\":10509:10529   */\n      sub\n        /* \"#utility.yul\":10504:10506   */\n      0x20\n        /* \"#utility.yul\":10493:10502   */\n      dup4\n        /* \"#utility.yul\":10489:10507   */\n      add\n        /* \"#utility.yul\":10482:10530   */\n      mstore\n        /* \"#utility.yul\":10547:10625   */\n      tag_311\n        /* \"#utility.yul\":10620:10624   */\n      dup2\n        /* \"#utility.yul\":10611:10617   */\n      dup5\n        /* \"#utility.yul\":10547:10625   */\n      tag_142\n      jump\t// in\n    tag_311:\n        /* \"#utility.yul\":10539:10625   */\n      swap1\n      pop\n        /* \"#utility.yul\":10118:10632   */\n      swap4\n      swap3\n      pop\n      pop\n      pop\n      jump\t// out\n        /* \"#utility.yul\":10638:11250   */\n    tag_47:\n        /* \"#utility.yul\":10821:10825   */\n      0x00\n        /* \"#utility.yul\":10859:10861   */\n      0x60\n        /* \"#utility.yul\":10848:10857   */\n      dup3\n        /* \"#utility.yul\":10844:10862   */\n      add\n        /* \"#utility.yul\":10836:10862   */\n      swap1\n      pop\n        /* \"#utility.yul\":10908:10917   */\n      dup2\n        /* \"#utility.yul\":10902:10906   */\n      dup2\n        /* \"#utility.yul\":10898:10918   */\n      sub\n        /* \"#utility.yul\":10894:10895   */\n      0x00\n        /* \"#utility.yul\":10883:10892   */\n      dup4\n        /* \"#utility.yul\":10879:10896   */\n      add\n        /* \"#utility.yul\":10872:10919   */\n      mstore\n        /* \"#utility.yul\":10936:11014   */\n      tag_313\n        /* \"#utility.yul\":11009:11013   */\n      dup2\n        /* \"#utility.yul\":11000:11006   */\n      dup7\n        /* \"#utility.yul\":10936:11014   */\n      tag_142\n      jump\t// in\n    tag_313:\n        /* \"#utility.yul\":10928:11014   */\n      swap1\n      pop\n        /* \"#utility.yul\":11061:11070   */\n      dup2\n        /* \"#utility.yul\":11055:11059   */\n      dup2\n        /* \"#utility.yul\":11051:11071   */\n      sub\n        /* \"#utility.yul\":11046:11048   */\n      0x20\n        /* \"#utility.yul\":11035:11044   */\n      dup4\n        /* \"#utility.yul\":11031:11049   */\n      add\n        /* \"#utility.yul\":11024:11072   */\n      mstore\n        /* \"#utility.yul\":11089:11167   */\n      tag_314\n        /* \"#utility.yul\":11162:11166   */\n      dup2\n        /* \"#utility.yul\":11153:11159   */\n      dup6\n        /* \"#utility.yul\":11089:11167   */\n      tag_142\n      jump\t// in\n    tag_314:\n        /* \"#utility.yul\":11081:11167   */\n      swap1\n      pop\n        /* \"#utility.yul\":11177:11243   */\n      tag_315\n        /* \"#utility.yul\":11239:11241   */\n      0x40\n        /* \"#utility.yul\":11228:11237   */\n      dup4\n        /* \"#utility.yul\":11224:11242   */\n      add\n        /* \"#utility.yul\":11215:11221   */\n      dup5\n        /* \"#utility.yul\":11177:11243   */\n      tag_137\n      jump\t// in\n    tag_315:\n        /* \"#utility.yul\":10638:11250   */\n      swap5\n      swap4\n      pop\n      pop\n      pop\n      pop\n      jump\t// out\n        /* \"#utility.yul\":11256:12213   */\n    tag_52:\n        /* \"#utility.yul\":11529:11533   */\n      0x00\n        /* \"#utility.yul\":11567:11570   */\n      0xc0\n        /* \"#utility.yul\":11556:11565   */\n      dup3\n        /* \"#utility.yul\":11552:11571   */\n      add\n        /* \"#utility.yul\":11544:11571   */\n      swap1\n      pop\n        /* \"#utility.yul\":11617:11626   */\n      dup2\n        /* \"#utility.yul\":11611:11615   */\n      dup2\n        /* \"#utility.yul\":11607:11627   */\n      sub\n        /* \"#utility.yul\":11603:11604   */\n      0x00\n        /* \"#utility.yul\":11592:11601   */\n      dup4\n        /* \"#utility.yul\":11588:11605   */\n      add\n        /* \"#utility.yul\":11581:11628   */\n      mstore\n        /* \"#utility.yul\":11645:11723   */\n      tag_317\n        /* \"#utility.yul\":11718:11722   */\n      dup2\n        /* \"#utility.yul\":11709:11715   */\n      dup10\n        /* \"#utility.yul\":11645:11723   */\n      tag_142\n      jump\t// in\n    tag_317:\n        /* \"#utility.yul\":11637:11723   */\n      swap1\n      pop\n        /* \"#utility.yul\":11733:11805   */\n      tag_318\n        /* \"#utility.yul\":11801:11803   */\n      0x20\n        /* \"#utility.yul\":11790:11799   */\n      dup4\n        /* \"#utility.yul\":11786:11804   */\n      add\n        /* \"#utility.yul\":11777:11783   */\n      dup9\n        /* \"#utility.yul\":11733:11805   */\n      tag_144\n      jump\t// in\n    tag_318:\n        /* \"#utility.yul\":11852:11861   */\n      dup2\n        /* \"#utility.yul\":11846:11850   */\n      dup2\n        /* \"#utility.yul\":11842:11862   */\n      sub\n        /* \"#utility.yul\":11837:11839   */\n      0x40\n        /* \"#utility.yul\":11826:11835   */\n      dup4\n        /* \"#utility.yul\":11822:11840   */\n      add\n        /* \"#utility.yul\":11815:11863   */\n      mstore\n        /* \"#utility.yul\":11880:11958   */\n      tag_319\n        /* \"#utility.yul\":11953:11957   */\n      dup2\n        /* \"#utility.yul\":11944:11950   */\n      dup8\n        /* \"#utility.yul\":11880:11958   */\n      tag_142\n      jump\t// in\n    tag_319:\n        /* \"#utility.yul\":11872:11958   */\n      swap1\n      pop\n        /* \"#utility.yul\":11968:12040   */\n      tag_320\n        /* \"#utility.yul\":12036:12038   */\n      0x60\n        /* \"#utility.yul\":12025:12034   */\n      dup4\n        /* \"#utility.yul\":12021:12039   */\n      add\n        /* \"#utility.yul\":12012:12018   */\n      dup7\n        /* \"#utility.yul\":11968:12040   */\n      tag_144\n      jump\t// in\n    tag_320:\n        /* \"#utility.yul\":12050:12123   */\n      tag_321\n        /* \"#utility.yul\":12118:12121   */\n      0x80\n        /* \"#utility.yul\":12107:12116   */\n      dup4\n        /* \"#utility.yul\":12103:12122   */\n      add\n        /* \"#utility.yul\":12094:12100   */\n      dup6\n        /* \"#utility.yul\":12050:12123   */\n      tag_144\n      jump\t// in\n    tag_321:\n        /* \"#utility.yul\":12133:12206   */\n      tag_322\n        /* \"#utility.yul\":12201:12204   */\n      0xa0\n        /* \"#utility.yul\":12190:12199   */\n      dup4\n        /* \"#utility.yul\":12186:12205   */\n      add\n        /* \"#utility.yul\":12177:12183   */\n      dup5\n        /* \"#utility.yul\":12133:12206   */\n      tag_144\n      jump\t// in\n    tag_322:\n        /* \"#utility.yul\":11256:12213   */\n      swap8\n      swap7\n      pop\n      pop\n      pop\n      pop\n      pop\n      pop\n      pop\n      jump\t// out\n        /* \"#utility.yul\":12219:12399   */\n    tag_161:\n        /* \"#utility.yul\":12267:12344   */\n      0x4e487b7100000000000000000000000000000000000000000000000000000000\n        /* \"#utility.yul\":12264:12265   */\n      0x00\n        /* \"#utility.yul\":12257:12345   */\n      mstore\n        /* \"#utility.yul\":12364:12368   */\n      0x22\n        /* \"#utility.yul\":12361:12362   */\n      0x04\n        /* \"#utility.yul\":12354:12369   */\n      mstore\n        /* \"#utility.yul\":12388:12392   */\n      0x24\n        /* \"#utility.yul\":12385:12386   */\n      0x00\n        /* \"#utility.yul\":12378:12393   */\n      revert\n        /* \"#utility.yul\":12405:12725   */\n    tag_58:\n        /* \"#utility.yul\":12449:12455   */\n      0x00\n        /* \"#utility.yul\":12486:12487   */\n      0x02\n        /* \"#utility.yul\":12480:12484   */\n      dup3\n        /* \"#utility.yul\":12476:12488   */\n      div\n        /* \"#utility.yul\":12466:12488   */\n      swap1\n      pop\n        /* \"#utility.yul\":12533:12534   */\n      0x01\n        /* \"#utility.yul\":12527:12531   */\n      dup3\n        /* \"#utility.yul\":12523:12535   */\n      and\n        /* \"#utility.yul\":12554:12572   */\n      dup1\n        /* \"#utility.yul\":12544:12625   */\n      tag_325\n      jumpi\n        /* \"#utility.yul\":12610:12614   */\n      0x7f\n        /* \"#utility.yul\":12602:12608   */\n      dup3\n        /* \"#utility.yul\":12598:12615   */\n      and\n        /* \"#utility.yul\":12588:12615   */\n      swap2\n      pop\n        /* \"#utility.yul\":12544:12625   */\n    tag_325:\n        /* \"#utility.yul\":12672:12674   */\n      0x20\n        /* \"#utility.yul\":12664:12670   */\n      dup3\n        /* \"#utility.yul\":12661:12675   */\n      lt\n        /* \"#utility.yul\":12641:12659   */\n      dup2\n        /* \"#utility.yul\":12638:12676   */\n      sub\n        /* \"#utility.yul\":12635:12719   */\n      tag_326\n      jumpi\n        /* \"#utility.yul\":12691:12709   */\n      tag_327\n      tag_161\n      jump\t// in\n    tag_327:\n        /* \"#utility.yul\":12635:12719   */\n    tag_326:\n        /* \"#utility.yul\":12456:12725   */\n      pop\n        /* \"#utility.yul\":12405:12725   */\n      swap2\n      swap1\n      pop\n      jump\t// out\n        /* \"#utility.yul\":12731:12906   */\n    tag_162:\n        /* \"#utility.yul\":12871:12898   */\n      0x446f63746f7220616c7265616479207265676973746572656400000000000000\n        /* \"#utility.yul\":12867:12868   */\n      0x00\n        /* \"#utility.yul\":12859:12865   */\n      dup3\n        /* \"#utility.yul\":12855:12869   */\n      add\n        /* \"#utility.yul\":12848:12899   */\n      mstore\n        /* \"#utility.yul\":12731:12906   */\n      pop\n      jump\t// out\n        /* \"#utility.yul\":12912:13278   */\n    tag_163:\n        /* \"#utility.yul\":13054:13057   */\n      0x00\n        /* \"#utility.yul\":13075:13142   */\n      tag_330\n        /* \"#utility.yul\":13139:13141   */\n      0x19\n        /* \"#utility.yul\":13134:13137   */\n      dup4\n        /* \"#utility.yul\":13075:13142   */\n      tag_139\n      jump\t// in\n    tag_330:\n        /* \"#utility.yul\":13068:13142   */\n      swap2\n      pop\n        /* \"#utility.yul\":13151:13244   */\n      tag_331\n        /* \"#utility.yul\":13240:13243   */\n      dup3\n        /* \"#utility.yul\":13151:13244   */\n      tag_162\n      jump\t// in\n    tag_331:\n        /* \"#utility.yul\":13269:13271   */\n      0x20\n        /* \"#utility.yul\":13264:13267   */\n      dup3\n        /* \"#utility.yul\":13260:13272   */\n      add\n        /* \"#utility.yul\":13253:13272   */\n      swap1\n      pop\n        /* \"#utility.yul\":12912:13278   */\n      swap2\n      swap1\n      pop\n      jump\t// out\n        /* \"#utility.yul\":13284:13703   */\n    tag_71:\n        /* \"#utility.yul\":13450:13454   */\n      0x00\n        /* \"#utility.yul\":13488:13490   */\n      0x20\n        /* \"#utility.yul\":13477:13486   */\n      dup3\n        /* \"#utility.yul\":13473:13491   */\n      add\n        /* \"#utility.yul\":13465:13491   */\n      swap1\n      pop\n        /* \"#utility.yul\":13537:13546   */\n      dup2\n        /* \"#utility.yul\":13531:13535   */\n      dup2\n        /* \"#utility.yul\":13527:13547   */\n      sub\n        /* \"#utility.yul\":13523:13524   */\n      0x00\n        /* \"#utility.yul\":13512:13521   */\n      dup4\n        /* \"#utility.yul\":13508:13525   */\n      add\n        /* \"#utility.yul\":13501:13548   */\n      mstore\n        /* \"#utility.yul\":13565:13696   */\n      tag_333\n        /* \"#utility.yul\":13691:13695   */\n      dup2\n        /* \"#utility.yul\":13565:13696   */\n      tag_163\n      jump\t// in\n    tag_333:\n        /* \"#utility.yul\":13557:13696   */\n      swap1\n      pop\n        /* \"#utility.yul\":13284:13703   */\n      swap2\n      swap1\n      pop\n      jump\t// out\n        /* \"#utility.yul\":13709:13850   */\n    tag_164:\n        /* \"#utility.yul\":13758:13762   */\n      0x00\n        /* \"#utility.yul\":13781:13784   */\n      dup2\n        /* \"#utility.yul\":13773:13784   */\n      swap1\n      pop\n        /* \"#utility.yul\":13804:13807   */\n      dup2\n        /* \"#utility.yul\":13801:13802   */\n      0x00\n        /* \"#utility.yul\":13794:13808   */\n      mstore\n        /* \"#utility.yul\":13838:13842   */\n      0x20\n        /* \"#utility.yul\":13835:13836   */\n      0x00\n        /* \"#utility.yul\":13825:13843   */\n      keccak256\n        /* \"#utility.yul\":13817:13843   */\n      swap1\n      pop\n        /* \"#utility.yul\":13709:13850   */\n      swap2\n      swap1\n      pop\n      jump\t// out\n        /* \"#utility.yul\":13856:13949   */\n    tag_165:\n        /* \"#utility.yul\":13893:13899   */\n      0x00\n        /* \"#utility.yul\":13940:13942   */\n      0x20\n        /* \"#utility.yul\":13935:13937   */\n      0x1f\n        /* \"#utility.yul\":13928:13933   */\n      dup4\n        /* \"#utility.yul\":13924:13938   */\n      add\n        /* \"#utility.yul\":13920:13943   */\n      div\n        /* \"#utility.yul\":13910:13943   */\n      swap1\n      pop\n        /* \"#utility.yul\":13856:13949   */\n      swap2\n      swap1\n      pop\n      jump\t// out\n        /* \"#utility.yul\":13955:14062   */\n    tag_166:\n        /* \"#utility.yul\":13999:14007   */\n      0x00\n        /* \"#utility.yul\":14049:14054   */\n      dup3\n        /* \"#utility.yul\":14043:14047   */\n      dup3\n        /* \"#utility.yul\":14039:14055   */\n      shl\n        /* \"#utility.yul\":14018:14055   */\n      swap1\n      pop\n        /* \"#utility.yul\":13955:14062   */\n      swap3\n      swap2\n      pop\n      pop\n      jump\t// out\n        /* \"#utility.yul\":14068:14461   */\n    tag_167:\n        /* \"#utility.yul\":14137:14143   */\n      0x00\n        /* \"#utility.yul\":14187:14188   */\n      0x08\n        /* \"#utility.yul\":14175:14185   */\n      dup4\n        /* \"#utility.yul\":14171:14189   */\n      mul\n        /* \"#utility.yul\":14210:14307   */\n      tag_338\n        /* \"#utility.yul\":14240:14306   */\n      0xffffffffffffffffffffffffffffffffffffffffffffffffffffffffffffffff\n        /* \"#utility.yul\":14229:14238   */\n      dup3\n        /* \"#utility.yul\":14210:14307   */\n      tag_166\n      jump\t// in\n    tag_338:\n        /* \"#utility.yul\":14328:14367   */\n      tag_339\n        /* \"#utility.yul\":14358:14366   */\n      dup7\n        /* \"#utility.yul\":14347:14356   */\n      dup4\n        /* \"#utility.yul\":14328:14367   */\n      tag_166\n      jump\t// in\n    tag_339:\n        /* \"#utility.yul\":14316:14367   */\n      swap6\n      pop\n        /* \"#utility.yul\":14400:14404   */\n      dup1\n        /* \"#utility.yul\":14396:14405   */\n      not\n        /* \"#utility.yul\":14389:14394   */\n      dup5\n        /* \"#utility.yul\":14385:14406   */\n      and\n        /* \"#utility.yul\":14376:14406   */\n      swap4\n      pop\n        /* \"#utility.yul\":14449:14453   */\n      dup1\n        /* \"#utility.yul\":14439:14447   */\n      dup7\n        /* \"#utility.yul\":14435:14454   */\n      and\n        /* \"#utility.yul\":14428:14433   */\n      dup5\n        /* \"#utility.yul\":14425:14455   */\n      or\n        /* \"#utility.yul\":14415:14455   */\n      swap3\n      pop\n        /* \"#utility.yul\":14144:14461   */\n      pop\n      pop\n        /* \"#utility.yul\":14068:14461   */\n      swap4\n      swap3\n      pop\n      pop\n      pop\n      jump\t// out\n        /* \"#utility.yul\":14467:14527   */\n    tag_168:\n        /* \"#utility.yul\":14495:14498   */\n      0x00\n        /* \"#utility.yul\":14516:14521   */\n      dup2\n        /* \"#utility.yul\":14509:14521   */\n      swap1\n      pop\n        /* \"#utility.yul\":14467:14527   */\n      swap2\n      swap1\n      pop\n      jump\t// out\n        /* \"#utility.yul\":14533:14675   */\n    tag_169:\n        /* \"#utility.yul\":14583:14592   */\n      0x00\n        /* \"#utility.yul\":14616:14669   */\n      tag_342\n        /* \"#utility.yul\":14634:14668   */\n      tag_343\n        /* \"#utility.yul\":14643:14667   */\n      tag_344\n        /* \"#utility.yul\":14661:14666   */\n      dup5\n        /* \"#utility.yul\":14643:14667   */\n      tag_143\n      jump\t// in\n    tag_344:\n        /* \"#utility.yul\":14634:14668   */\n      tag_168\n      jump\t// in\n    tag_343:\n        /* \"#utility.yul\":14616:14669   */\n      tag_143\n      jump\t// in\n    tag_342:\n        /* \"#utility.yul\":14603:14669   */\n      swap1\n      pop\n        /* \"#utility.yul\":14533:14675   */\n      swap2\n      swap1\n      pop\n      jump\t// out\n        /* \"#utility.yul\":14681:14756   */\n    tag_170:\n        /* \"#utility.yul\":14724:14727   */\n      0x00\n        /* \"#utility.yul\":14745:14750   */\n      dup2\n        /* \"#utility.yul\":14738:14750   */\n      swap1\n      pop\n        /* \"#utility.yul\":14681:14756   */\n      swap2\n      swap1\n      pop\n      jump\t// out\n        /* \"#utility.yul\":14762:15031   */\n    tag_171:\n        /* \"#utility.yul\":14872:14911   */\n      tag_347\n        /* \"#utility.yul\":14903:14910   */\n      dup4\n        /* \"#utility.yul\":14872:14911   */\n      tag_169\n      jump\t// in\n    tag_347:\n        /* \"#utility.yul\":14933:15024   */\n      tag_348\n        /* \"#utility.yul\":14982:15023   */\n      tag_349\n        /* \"#utility.yul\":15006:15022   */\n      dup3\n        /* \"#utility.yul\":14982:15023   */\n      tag_170\n      jump\t// in\n    tag_349:\n        /* \"#utility.yul\":14974:14980   */\n      dup5\n        /* \"#utility.yul\":14967:14971   */\n      dup5\n        /* \"#utility.yul\":14961:14972   */\n      sload\n        /* \"#utility.yul\":14933:15024   */\n      tag_167\n      jump\t// in\n    tag_348:\n        /* \"#utility.yul\":14927:14931   */\n      dup3\n        /* \"#utility.yul\":14920:15025   */\n      sstore\n        /* \"#utility.yul\":14838:15031   */\n      pop\n        /* \"#utility.yul\":14762:15031   */\n      pop\n      pop\n      pop\n      jump\t// out\n        /* \"#utility.yul\":15037:15110   */\n    tag_172:\n        /* \"#utility.yul\":15082:15085   */\n      0x00\n        /* \"#utility.yul\":15037:15110   */\n      swap1\n      jump\t// out\n        /* \"#utility.yul\":15116:15305   */\n    tag_173:\n        /* \"#utility.yul\":15193:15225   */\n      tag_352\n      tag_172\n      jump\t// in\n    tag_352:\n        /* \"#utility.yul\":15234:15299   */\n      tag_353\n        /* \"#utility.yul\":15292:15298   */\n      dup2\n        /* \"#utility.yul\":15284:15290   */\n      dup5\n        /* \"#utility.yul\":15278:15282   */\n      dup5\n        /* \"#utility.yul\":15234:15299   */\n      tag_171\n      jump\t// in\n    tag_353:\n        /* \"#utility.yul\":15169:15305   */\n      pop\n        /* \"#utility.yul\":15116:15305   */\n      pop\n      pop\n      jump\t// out\n        /* \"#utility.yul\":15311:15497   */\n    tag_174:\n        /* \"#utility.yul\":15371:15491   */\n    tag_355:\n        /* \"#utility.yul\":15388:15391   */\n      dup2\n        /* \"#utility.yul\":15381:15386   */\n      dup2\n        /* \"#utility.yul\":15378:15392   */\n      lt\n        /* \"#utility.yul\":15371:15491   */\n      iszero\n      tag_357\n      jumpi\n        /* \"#utility.yul\":15442:15481   */\n      tag_358\n        /* \"#utility.yul\":15479:15480   */\n      0x00\n        /* \"#utility.yul\":15472:15477   */\n      dup3\n        /* \"#utility.yul\":15442:15481   */\n      tag_173\n      jump\t// in\n    tag_358:\n        /* \"#utility.yul\":15415:15416   */\n      0x01\n        /* \"#utility.yul\":15408:15413   */\n      dup2\n        /* \"#utility.yul\":15404:15417   */\n      add\n        /* \"#utility.yul\":15395:15417   */\n      swap1\n      pop\n        /* \"#utility.yul\":15371:15491   */\n      jump(tag_355)\n    tag_357:\n        /* \"#utility.yul\":15311:15497   */\n      pop\n      pop\n      jump\t// out\n        /* \"#utility.yul\":15503:16046   */\n    tag_175:\n        /* \"#utility.yul\":15604:15606   */\n      0x1f\n        /* \"#utility.yul\":15599:15602   */\n      dup3\n        /* \"#utility.yul\":15596:15607   */\n      gt\n        /* \"#utility.yul\":15593:16039   */\n      iszero\n      tag_360\n      jumpi\n        /* \"#utility.yul\":15638:15676   */\n      tag_361\n        /* \"#utility.yul\":15670:15675   */\n      dup2\n        /* \"#utility.yul\":15638:15676   */\n      tag_164\n      jump\t// in\n    tag_361:\n        /* \"#utility.yul\":15722:15751   */\n      tag_362\n        /* \"#utility.yul\":15740:15750   */\n      dup5\n        /* \"#utility.yul\":15722:15751   */\n      tag_165\n      jump\t// in\n    tag_362:\n        /* \"#utility.yul\":15712:15720   */\n      dup2\n        /* \"#utility.yul\":15708:15752   */\n      add\n        /* \"#utility.yul\":15905:15907   */\n      0x20\n        /* \"#utility.yul\":15893:15903   */\n      dup6\n        /* \"#utility.yul\":15890:15908   */\n      lt\n        /* \"#utility.yul\":15887:15936   */\n      iszero\n      tag_363\n      jumpi\n        /* \"#utility.yul\":15926:15934   */\n      dup2\n        /* \"#utility.yul\":15911:15934   */\n      swap1\n      pop\n        /* \"#utility.yul\":15887:15936   */\n    tag_363:\n        /* \"#utility.yul\":15949:16029   */\n      tag_364\n        /* \"#utility.yul\":16005:16027   */\n      tag_365\n        /* \"#utility.yul\":16023:16026   */\n      dup6\n        /* \"#utility.yul\":16005:16027   */\n      tag_165\n      jump\t// in\n    tag_365:\n        /* \"#utility.yul\":15995:16003   */\n      dup4\n        /* \"#utility.yul\":15991:16028   */\n      add\n        /* \"#utility.yul\":15978:15989   */\n      dup3\n        /* \"#utility.yul\":15949:16029   */\n      tag_174\n      jump\t// in\n    tag_364:\n        /* \"#utility.yul\":15608:16039   */\n      pop\n      pop\n        /* \"#utility.yul\":15593:16039   */\n    tag_360:\n        /* \"#utility.yul\":15503:16046   */\n      pop\n      pop\n      pop\n      jump\t// out\n        /* \"#utility.yul\":16052:16169   */\n    tag_176:\n        /* \"#utility.yul\":16106:16114   */\n      0x00\n        /* \"#utility.yul\":16156:16161   */\n      dup3\n        /* \"#utility.yul\":16150:16154   */\n      dup3\n        /* \"#utility.yul\":16146:16162   */\n      shr\n        /* \"#utility.yul\":16125:16162   */\n      swap1\n      pop\n        /* \"#utility.yul\":16052:16169   */\n      swap3\n      swap2\n      pop\n      pop\n      jump\t// out\n        /* \"#utility.yul\":16175:16344   */\n    tag_177:\n        /* \"#utility.yul\":16219:16225   */\n      0x00\n        /* \"#utility.yul\":16252:16303   */\n      tag_368\n        /* \"#utility.yul\":16300:16301   */\n      0x00\n        /* \"#utility.yul\":16296:16302   */\n      not\n        /* \"#utility.yul\":16288:16293   */\n      dup5\n        /* \"#utility.yul\":16285:16286   */\n      0x08\n        /* \"#utility.yul\":16281:16294   */\n      mul\n        /* \"#utility.yul\":16252:16303   */\n      tag_176\n      jump\t// in\n    tag_368:\n        /* \"#utility.yul\":16248:16304   */\n      not\n        /* \"#utility.yul\":16333:16337   */\n      dup1\n        /* \"#utility.yul\":16327:16331   */\n      dup4\n        /* \"#utility.yul\":16323:16338   */\n      and\n        /* \"#utility.yul\":16313:16338   */\n      swap2\n      pop\n        /* \"#utility.yul\":16226:16344   */\n      pop\n        /* \"#utility.yul\":16175:16344   */\n      swap3\n      swap2\n      pop\n      pop\n      jump\t// out\n        /* \"#utility.yul\":16349:16644   */\n    tag_178:\n        /* \"#utility.yul\":16425:16429   */\n      0x00\n        /* \"#utility.yul\":16571:16600   */\n      tag_370\n        /* \"#utility.yul\":16596:16599   */\n      dup4\n        /* \"#utility.yul\":16590:16594   */\n      dup4\n        /* \"#utility.yul\":16571:16600   */\n      tag_177\n      jump\t// in\n    tag_370:\n        /* \"#utility.yul\":16563:16600   */\n      swap2\n      pop\n        /* \"#utility.yul\":16633:16636   */\n      dup3\n        /* \"#utility.yul\":16630:16631   */\n      0x02\n        /* \"#utility.yul\":16626:16637   */\n      mul\n        /* \"#utility.yul\":16620:16624   */\n      dup3\n        /* \"#utility.yul\":16617:16638   */\n      or\n        /* \"#utility.yul\":16609:16638   */\n      swap1\n      pop\n        /* \"#utility.yul\":16349:16644   */\n      swap3\n      swap2\n      pop\n      pop\n      jump\t// out\n        /* \"#utility.yul\":16649:18044   */\n    tag_73:\n        /* \"#utility.yul\":16766:16803   */\n      tag_372\n        /* \"#utility.yul\":16799:16802   */\n      dup3\n        /* \"#utility.yul\":16766:16803   */\n      tag_138\n      jump\t// in\n    tag_372:\n        /* \"#utility.yul\":16868:16886   */\n      0xffffffffffffffff\n        /* \"#utility.yul\":16860:16866   */\n      dup2\n        /* \"#utility.yul\":16857:16887   */\n      gt\n        /* \"#utility.yul\":16854:16910   */\n      iszero\n      tag_373\n      jumpi\n        /* \"#utility.yul\":16890:16908   */\n      tag_374\n      tag_151\n      jump\t// in\n    tag_374:\n        /* \"#utility.yul\":16854:16910   */\n    tag_373:\n        /* \"#utility.yul\":16934:16972   */\n      tag_375\n        /* \"#utility.yul\":16966:16970   */\n      dup3\n        /* \"#utility.yul\":16960:16971   */\n      sload\n        /* \"#utility.yul\":16934:16972   */\n      tag_58\n      jump\t// in\n    tag_375:\n        /* \"#utility.yul\":17019:17086   */\n      tag_376\n        /* \"#utility.yul\":17079:17085   */\n      dup3\n        /* \"#utility.yul\":17071:17077   */\n      dup3\n        /* \"#utility.yul\":17065:17069   */\n      dup6\n        /* \"#utility.yul\":17019:17086   */\n      tag_175\n      jump\t// in\n    tag_376:\n        /* \"#utility.yul\":17113:17114   */\n      0x00\n        /* \"#utility.yul\":17137:17141   */\n      0x20\n        /* \"#utility.yul\":17124:17141   */\n      swap1\n      pop\n        /* \"#utility.yul\":17169:17171   */\n      0x1f\n        /* \"#utility.yul\":17161:17167   */\n      dup4\n        /* \"#utility.yul\":17158:17172   */\n      gt\n        /* \"#utility.yul\":17186:17187   */\n      0x01\n        /* \"#utility.yul\":17181:17799   */\n      dup2\n      eq\n      tag_378\n      jumpi\n        /* \"#utility.yul\":17843:17844   */\n      0x00\n        /* \"#utility.yul\":17860:17866   */\n      dup5\n        /* \"#utility.yul\":17857:17934   */\n      iszero\n      tag_379\n      jumpi\n        /* \"#utility.yul\":17909:17918   */\n      dup3\n        /* \"#utility.yul\":17904:17907   */\n      dup8\n        /* \"#utility.yul\":17900:17919   */\n      add\n        /* \"#utility.yul\":17894:17920   */\n      mload\n        /* \"#utility.yul\":17885:17920   */\n      swap1\n      pop\n        /* \"#utility.yul\":17857:17934   */\n    tag_379:\n        /* \"#utility.yul\":17960:18027   */\n      tag_380\n        /* \"#utility.yul\":18020:18026   */\n      dup6\n        /* \"#utility.yul\":18013:18018   */\n      dup3\n        /* \"#utility.yul\":17960:18027   */\n      tag_178\n      jump\t// in\n    tag_380:\n        /* \"#utility.yul\":17954:17958   */\n      dup7\n        /* \"#utility.yul\":17947:18028   */\n      sstore\n        /* \"#utility.yul\":17816:18038   */\n      pop\n        /* \"#utility.yul\":17151:18038   */\n      jump(tag_377)\n        /* \"#utility.yul\":17181:17799   */\n    tag_378:\n        /* \"#utility.yul\":17233:17237   */\n      0x1f\n        /* \"#utility.yul\":17229:17238   */\n      not\n        /* \"#utility.yul\":17221:17227   */\n      dup5\n        /* \"#utility.yul\":17217:17239   */\n      and\n        /* \"#utility.yul\":17267:17304   */\n      tag_381\n        /* \"#utility.yul\":17299:17303   */\n      dup7\n        /* \"#utility.yul\":17267:17304   */\n      tag_164\n      jump\t// in\n    tag_381:\n        /* \"#utility.yul\":17326:17327   */\n      0x00\n        /* \"#utility.yul\":17340:17548   */\n    tag_382:\n        /* \"#utility.yul\":17354:17361   */\n      dup3\n        /* \"#utility.yul\":17351:17352   */\n      dup2\n        /* \"#utility.yul\":17348:17362   */\n      lt\n        /* \"#utility.yul\":17340:17548   */\n      iszero\n      tag_384\n      jumpi\n        /* \"#utility.yul\":17433:17442   */\n      dup5\n        /* \"#utility.yul\":17428:17431   */\n      dup10\n        /* \"#utility.yul\":17424:17443   */\n      add\n        /* \"#utility.yul\":17418:17444   */\n      mload\n        /* \"#utility.yul\":17410:17416   */\n      dup3\n        /* \"#utility.yul\":17403:17445   */\n      sstore\n        /* \"#utility.yul\":17484:17485   */\n      0x01\n        /* \"#utility.yul\":17476:17482   */\n      dup3\n        /* \"#utility.yul\":17472:17486   */\n      add\n        /* \"#utility.yul\":17462:17486   */\n      swap2\n      pop\n        /* \"#utility.yul\":17531:17533   */\n      0x20\n        /* \"#utility.yul\":17520:17529   */\n      dup6\n        /* \"#utility.yul\":17516:17534   */\n      add\n        /* \"#utility.yul\":17503:17534   */\n      swap5\n      pop\n        /* \"#utility.yul\":17377:17381   */\n      0x20\n        /* \"#utility.yul\":17374:17375   */\n      dup2\n        /* \"#utility.yul\":17370:17382   */\n      add\n        /* \"#utility.yul\":17365:17382   */\n      swap1\n      pop\n        /* \"#utility.yul\":17340:17548   */\n      jump(tag_382)\n    tag_384:\n        /* \"#utility.yul\":17576:17582   */\n      dup7\n        /* \"#utility.yul\":17567:17574   */\n      dup4\n        /* \"#utility.yul\":17564:17583   */\n      lt\n        /* \"#utility.yul\":17561:17740   */\n      iszero\n      tag_385\n      jumpi\n        /* \"#utility.yul\":17634:17643   */\n      dup5\n        /* \"#utility.yul\":17629:17632   */\n      dup10\n        /* \"#utility.yul\":17625:17644   */\n      add\n        /* \"#utility.yul\":17619:17645   */\n      mload\n        /* \"#utility.yul\":17677:17725   */\n      tag_386\n        /* \"#utility.yul\":17719:17723   */\n      0x1f\n        /* \"#utility.yul\":17711:17717   */\n      dup10\n        /* \"#utility.yul\":17707:17724   */\n      and\n        /* \"#utility.yul\":17696:17705   */\n      dup3\n        /* \"#utility.yul\":17677:17725   */\n      tag_177\n      jump\t// in\n    tag_386:\n        /* \"#utility.yul\":17669:17675   */\n      dup4\n        /* \"#utility.yul\":17662:17726   */\n      sstore\n        /* \"#utility.yul\":17584:17740   */\n      pop\n        /* \"#utility.yul\":17561:17740   */\n    tag_385:\n        /* \"#utility.yul\":17786:17787   */\n      0x01\n        /* \"#utility.yul\":17782:17783   */\n      0x02\n        /* \"#utility.yul\":17774:17780   */\n      dup9\n        /* \"#utility.yul\":17770:17784   */\n      mul\n        /* \"#utility.yul\":17766:17788   */\n      add\n        /* \"#utility.yul\":17760:17764   */\n      dup9\n        /* \"#utility.yul\":17753:17789   */\n      sstore\n        /* \"#utility.yul\":17188:17799   */\n      pop\n      pop\n      pop\n        /* \"#utility.yul\":17151:18038   */\n    tag_377:\n      pop\n        /* \"#utility.yul\":16741:18044   */\n      pop\n      pop\n      pop\n        /* \"#utility.yul\":16649:18044   */\n      pop\n      pop\n      jump\t// out\n        /* \"#utility.yul\":18050:18224   */\n    tag_179:\n        /* \"#utility.yul\":18190:18216   */\n      0x556e6971756520494420616c7265616479206578697374730000000000000000\n        /* \"#utility.yul\":18186:18187   */\n      0x00\n        /* \"#utility.yul\":18178:18184   */\n      dup3\n        /* \"#utility.yul\":18174:18188   */\n      add\n        /* \"#utility.yul\":18167:18217   */\n      mstore\n        /* \"#utility.yul\":18050:18224   */\n      pop\n      jump\t// out\n        /* \"#utility.yul\":18230:18596   */\n    tag_180:\n        /* \"#utility.yul\":18372:18375   */\n      0x00\n        /* \"#utility.yul\":18393:18460   */\n      tag_389\n        /* \"#utility.yul\":18457:18459   */\n      0x18\n        /* \"#utility.yul\":18452:18455   */\n      dup4\n        /* \"#utility.yul\":18393:18460   */\n      tag_139\n      jump\t// in\n    tag_389:\n        /* \"#utility.yul\":18386:18460   */\n      swap2\n      pop\n        /* \"#utility.yul\":18469:18562   */\n      tag_390\n        /* \"#utility.yul\":18558:18561   */\n      dup3\n        /* \"#utility.yul\":18469:18562   */\n      tag_179\n      jump\t// in\n    tag_390:\n        /* \"#utility.yul\":18587:18589   */\n      0x20\n        /* \"#utility.yul\":18582:18585   */\n      dup3\n        /* \"#utility.yul\":18578:18590   */\n      add\n        /* \"#utility.yul\":18571:18590   */\n      swap1\n      pop\n        /* \"#utility.yul\":18230:18596   */\n      swap2\n      swap1\n      pop\n      jump\t// out\n        /* \"#utility.yul\":18602:19021   */\n    tag_78:\n        /* \"#utility.yul\":18768:18772   */\n      0x00\n        /* \"#utility.yul\":18806:18808   */\n      0x20\n        /* \"#utility.yul\":18795:18804   */\n      dup3\n        /* \"#utility.yul\":18791:18809   */\n      add\n        /* \"#utility.yul\":18783:18809   */\n      swap1\n      pop\n        /* \"#utility.yul\":18855:18864   */\n      dup2\n        /* \"#utility.yul\":18849:18853   */\n      dup2\n        /* \"#utility.yul\":18845:18865   */\n      sub\n        /* \"#utility.yul\":18841:18842   */\n      0x00\n        /* \"#utility.yul\":18830:18839   */\n      dup4\n        /* \"#utility.yul\":18826:18843   */\n      add\n        /* \"#utility.yul\":18819:18866   */\n      mstore\n        /* \"#utility.yul\":18883:19014   */\n      tag_392\n        /* \"#utility.yul\":19009:19013   */\n      dup2\n        /* \"#utility.yul\":18883:19014   */\n      tag_180\n      jump\t// in\n    tag_392:\n        /* \"#utility.yul\":18875:19014   */\n      swap1\n      pop\n        /* \"#utility.yul\":18602:19021   */\n      swap2\n      swap1\n      pop\n      jump\t// out\n        /* \"#utility.yul\":19027:19207   */\n    tag_181:\n        /* \"#utility.yul\":19075:19152   */\n      0x4e487b7100000000000000000000000000000000000000000000000000000000\n        /* \"#utility.yul\":19072:19073   */\n      0x00\n        /* \"#utility.yul\":19065:19153   */\n      mstore\n        /* \"#utility.yul\":19172:19176   */\n      0x11\n        /* \"#utility.yul\":19169:19170   */\n      0x04\n        /* \"#utility.yul\":19162:19177   */\n      mstore\n        /* \"#utility.yul\":19196:19200   */\n      0x24\n        /* \"#utility.yul\":19193:19194   */\n      0x00\n        /* \"#utility.yul\":19186:19201   */\n      revert\n        /* \"#utility.yul\":19213:19446   */\n    tag_82:\n        /* \"#utility.yul\":19252:19255   */\n      0x00\n        /* \"#utility.yul\":19275:19299   */\n      tag_395\n        /* \"#utility.yul\":19293:19298   */\n      dup3\n        /* \"#utility.yul\":19275:19299   */\n      tag_143\n      jump\t// in\n    tag_395:\n        /* \"#utility.yul\":19266:19299   */\n      swap2\n      pop\n        /* \"#utility.yul\":19321:19387   */\n      0xffffffffffffffffffffffffffffffffffffffffffffffffffffffffffffffff\n        /* \"#utility.yul\":19314:19319   */\n      dup3\n        /* \"#utility.yul\":19311:19388   */\n      sub\n        /* \"#utility.yul\":19308:19411   */\n      tag_396\n      jumpi\n        /* \"#utility.yul\":19391:19409   */\n      tag_397\n      tag_181\n      jump\t// in\n    tag_397:\n        /* \"#utility.yul\":19308:19411   */\n    tag_396:\n        /* \"#utility.yul\":19438:19439   */\n      0x01\n        /* \"#utility.yul\":19431:19436   */\n      dup3\n        /* \"#utility.yul\":19427:19440   */\n      add\n        /* \"#utility.yul\":19420:19440   */\n      swap1\n      pop\n        /* \"#utility.yul\":19213:19446   */\n      swap2\n      swap1\n      pop\n      jump\t// out\n        /* \"#utility.yul\":19452:19618   */\n    tag_182:\n        /* \"#utility.yul\":19592:19610   */\n      0x446f63746f72206e6f7420666f756e6400000000000000000000000000000000\n        /* \"#utility.yul\":19588:19589   */\n      0x00\n        /* \"#utility.yul\":19580:19586   */\n      dup3\n        /* \"#utility.yul\":19576:19590   */\n      add\n        /* \"#utility.yul\":19569:19611   */\n      mstore\n        /* \"#utility.yul\":19452:19618   */\n      pop\n      jump\t// out\n        /* \"#utility.yul\":19624:19990   */\n    tag_183:\n        /* \"#utility.yul\":19766:19769   */\n      0x00\n        /* \"#utility.yul\":19787:19854   */\n      tag_400\n        /* \"#utility.yul\":19851:19853   */\n      0x10\n        /* \"#utility.yul\":19846:19849   */\n      dup4\n        /* \"#utility.yul\":19787:19854   */\n      tag_139\n      jump\t// in\n    tag_400:\n        /* \"#utility.yul\":19780:19854   */\n      swap2\n      pop\n        /* \"#utility.yul\":19863:19956   */\n      tag_401\n        /* \"#utility.yul\":19952:19955   */\n      dup3\n        /* \"#utility.yul\":19863:19956   */\n      tag_182\n      jump\t// in\n    tag_401:\n        /* \"#utility.yul\":19981:19983   */\n      0x20\n        /* \"#utility.yul\":19976:19979   */\n      dup3\n        /* \"#utility.yul\":19972:19984   */\n      add\n        /* \"#utility.yul\":19965:19984   */\n      swap1\n      pop\n        /* \"#utility.yul\":19624:19990   */\n      swap2\n      swap1\n      pop\n      jump\t// out\n        /* \"#utility.yul\":19996:20415   */\n    tag_86:\n        /* \"#utility.yul\":20162:20166   */\n      0x00\n        /* \"#utility.yul\":20200:20202   */\n      0x20\n        /* \"#utility.yul\":20189:20198   */\n      dup3\n        /* \"#utility.yul\":20185:20203   */\n      add\n        /* \"#utility.yul\":20177:20203   */\n      swap1\n      pop\n        /* \"#utility.yul\":20249:20258   */\n      dup2\n        /* \"#utility.yul\":20243:20247   */\n      dup2\n        /* \"#utility.yul\":20239:20259   */\n      sub\n        /* \"#utility.yul\":20235:20236   */\n      0x00\n        /* \"#utility.yul\":20224:20233   */\n      dup4\n        /* \"#utility.yul\":20220:20237   */\n      add\n        /* \"#utility.yul\":20213:20260   */\n      mstore\n        /* \"#utility.yul\":20277:20408   */\n      tag_403\n        /* \"#utility.yul\":20403:20407   */\n      dup2\n        /* \"#utility.yul\":20277:20408   */\n      tag_183\n      jump\t// in\n    tag_403:\n        /* \"#utility.yul\":20269:20408   */\n      swap1\n      pop\n        /* \"#utility.yul\":19996:20415   */\n      swap2\n      swap1\n      pop\n      jump\t// out\n        /* \"#utility.yul\":20421:20588   */\n    tag_184:\n        /* \"#utility.yul\":20561:20580   */\n      0x50617469656e74206e6f7420666f756e64000000000000000000000000000000\n        /* \"#utility.yul\":20557:20558   */\n      0x00\n        /* \"#utility.yul\":20549:20555   */\n      dup3\n        /* \"#utility.yul\":20545:20559   */\n      add\n        /* \"#utility.yul\":20538:20581   */\n      mstore\n        /* \"#utility.yul\":20421:20588   */\n      pop\n      jump\t// out\n        /* \"#utility.yul\":20594:20960   */\n    tag_185:\n        /* \"#utility.yul\":20736:20739   */\n      0x00\n        /* \"#utility.yul\":20757:20824   */\n      tag_406\n        /* \"#utility.yul\":20821:20823   */\n      0x11\n        /* \"#utility.yul\":20816:20819   */\n      dup4\n        /* \"#utility.yul\":20757:20824   */\n      tag_139\n      jump\t// in\n    tag_406:\n        /* \"#utility.yul\":20750:20824   */\n      swap2\n      pop\n        /* \"#utility.yul\":20833:20926   */\n      tag_407\n        /* \"#utility.yul\":20922:20925   */\n      dup3\n        /* \"#utility.yul\":20833:20926   */\n      tag_184\n      jump\t// in\n    tag_407:\n        /* \"#utility.yul\":20951:20953   */\n      0x20\n        /* \"#utility.yul\":20946:20949   */\n      dup3\n        /* \"#utility.yul\":20942:20954   */\n      add\n        /* \"#utility.yul\":20935:20954   */\n      swap1\n      pop\n        /* \"#utility.yul\":20594:20960   */\n      swap2\n      swap1\n      pop\n      jump\t// out\n        /* \"#utility.yul\":20966:21385   */\n    tag_110:\n        /* \"#utility.yul\":21132:21136   */\n      0x00\n        /* \"#utility.yul\":21170:21172   */\n      0x20\n        /* \"#utility.yul\":21159:21168   */\n      dup3\n        /* \"#utility.yul\":21155:21173   */\n      add\n        /* \"#utility.yul\":21147:21173   */\n      swap1\n      pop\n        /* \"#utility.yul\":21219:21228   */\n      dup2\n        /* \"#utility.yul\":21213:21217   */\n      dup2\n        /* \"#utility.yul\":21209:21229   */\n      sub\n        /* \"#utility.yul\":21205:21206   */\n      0x00\n        /* \"#utility.yul\":21194:21203   */\n      dup4\n        /* \"#utility.yul\":21190:21207   */\n      add\n        /* \"#utility.yul\":21183:21230   */\n      mstore\n        /* \"#utility.yul\":21247:21378   */\n      tag_409\n        /* \"#utility.yul\":21373:21377   */\n      dup2\n        /* \"#utility.yul\":21247:21378   */\n      tag_185\n      jump\t// in\n    tag_409:\n        /* \"#utility.yul\":21239:21378   */\n      swap1\n      pop\n        /* \"#utility.yul\":20966:21385   */\n      swap2\n      swap1\n      pop\n      jump\t// out\n        /* \"#utility.yul\":21391:21470   */\n    tag_186:\n        /* \"#utility.yul\":21430:21437   */\n      0x00\n        /* \"#utility.yul\":21459:21464   */\n      dup2\n        /* \"#utility.yul\":21448:21464   */\n      swap1\n      pop\n        /* \"#utility.yul\":21391:21470   */\n      swap2\n      swap1\n      pop\n      jump\t// out\n        /* \"#utility.yul\":21476:21633   */\n    tag_187:\n        /* \"#utility.yul\":21581:21626   */\n      tag_412\n        /* \"#utility.yul\":21601:21625   */\n      tag_413\n        /* \"#utility.yul\":21619:21624   */\n      dup3\n        /* \"#utility.yul\":21601:21625   */\n      tag_143\n      jump\t// in\n    tag_413:\n        /* \"#utility.yul\":21581:21626   */\n      tag_186\n      jump\t// in\n    tag_412:\n        /* \"#utility.yul\":21576:21579   */\n      dup3\n        /* \"#utility.yul\":21569:21627   */\n      mstore\n        /* \"#utility.yul\":21476:21633   */\n      pop\n      pop\n      jump\t// out\n        /* \"#utility.yul\":21639:21733   */\n    tag_188:\n        /* \"#utility.yul\":21672:21680   */\n      0x00\n        /* \"#utility.yul\":21720:21725   */\n      dup2\n        /* \"#utility.yul\":21716:21718   */\n      0x60\n        /* \"#utility.yul\":21712:21726   */\n      shl\n        /* \"#utility.yul\":21691:21726   */\n      swap1\n      pop\n        /* \"#utility.yul\":21639:21733   */\n      swap2\n      swap1\n      pop\n      jump\t// out\n        /* \"#utility.yul\":21739:21833   */\n    tag_189:\n        /* \"#utility.yul\":21778:21785   */\n      0x00\n        /* \"#utility.yul\":21807:21827   */\n      tag_416\n        /* \"#utility.yul\":21821:21826   */\n      dup3\n        /* \"#utility.yul\":21807:21827   */\n      tag_188\n      jump\t// in\n    tag_416:\n        /* \"#utility.yul\":21796:21827   */\n      swap1\n      pop\n        /* \"#utility.yul\":21739:21833   */\n      swap2\n      swap1\n      pop\n      jump\t// out\n        /* \"#utility.yul\":21839:21939   */\n    tag_190:\n        /* \"#utility.yul\":21878:21885   */\n      0x00\n        /* \"#utility.yul\":21907:21933   */\n      tag_418\n        /* \"#utility.yul\":21927:21932   */\n      dup3\n        /* \"#utility.yul\":21907:21933   */\n      tag_189\n      jump\t// in\n    tag_418:\n        /* \"#utility.yul\":21896:21933   */\n      swap1\n      pop\n        /* \"#utility.yul\":21839:21939   */\n      swap2\n      swap1\n      pop\n      jump\t// out\n        /* \"#utility.yul\":21945:22102   */\n    tag_191:\n        /* \"#utility.yul\":22050:22095   */\n      tag_420\n        /* \"#utility.yul\":22070:22094   */\n      tag_421\n        /* \"#utility.yul\":22088:22093   */\n      dup3\n        /* \"#utility.yul\":22070:22094   */\n      tag_146\n      jump\t// in\n    tag_421:\n        /* \"#utility.yul\":22050:22095   */\n      tag_190\n      jump\t// in\n    tag_420:\n        /* \"#utility.yul\":22045:22048   */\n      dup3\n        /* \"#utility.yul\":22038:22096   */\n      mstore\n        /* \"#utility.yul\":21945:22102   */\n      pop\n      pop\n      jump\t// out\n        /* \"#utility.yul\":22108:22646   */\n    tag_123:\n        /* \"#utility.yul\":22276:22279   */\n      0x00\n        /* \"#utility.yul\":22291:22366   */\n      tag_423\n        /* \"#utility.yul\":22362:22365   */\n      dup3\n        /* \"#utility.yul\":22353:22359   */\n      dup7\n        /* \"#utility.yul\":22291:22366   */\n      tag_187\n      jump\t// in\n    tag_423:\n        /* \"#utility.yul\":22391:22393   */\n      0x20\n        /* \"#utility.yul\":22386:22389   */\n      dup3\n        /* \"#utility.yul\":22382:22394   */\n      add\n        /* \"#utility.yul\":22375:22394   */\n      swap2\n      pop\n        /* \"#utility.yul\":22404:22479   */\n      tag_424\n        /* \"#utility.yul\":22475:22478   */\n      dup3\n        /* \"#utility.yul\":22466:22472   */\n      dup6\n        /* \"#utility.yul\":22404:22479   */\n      tag_187\n      jump\t// in\n    tag_424:\n        /* \"#utility.yul\":22504:22506   */\n      0x20\n        /* \"#utility.yul\":22499:22502   */\n      dup3\n        /* \"#utility.yul\":22495:22507   */\n      add\n        /* \"#utility.yul\":22488:22507   */\n      swap2\n      pop\n        /* \"#utility.yul\":22517:22592   */\n      tag_425\n        /* \"#utility.yul\":22588:22591   */\n      dup3\n        /* \"#utility.yul\":22579:22585   */\n      dup5\n        /* \"#utility.yul\":22517:22592   */\n      tag_191\n      jump\t// in\n    tag_425:\n        /* \"#utility.yul\":22617:22619   */\n      0x14\n        /* \"#utility.yul\":22612:22615   */\n      dup3\n        /* \"#utility.yul\":22608:22620   */\n      add\n        /* \"#utility.yul\":22601:22620   */\n      swap2\n      pop\n        /* \"#utility.yul\":22637:22640   */\n      dup2\n        /* \"#utility.yul\":22630:22640   */\n      swap1\n      pop\n        /* \"#utility.yul\":22108:22646   */\n      swap5\n      swap4\n      pop\n      pop\n      pop\n      pop\n      jump\t// out\n        /* \"#utility.yul\":22652:22750   */\n    tag_192:\n        /* \"#utility.yul\":22703:22709   */\n      0x00\n        /* \"#utility.yul\":22737:22742   */\n      dup2\n        /* \"#utility.yul\":22731:22743   */\n      mload\n        /* \"#utility.yul\":22721:22743   */\n      swap1\n      pop\n        /* \"#utility.yul\":22652:22750   */\n      swap2\n      swap1\n      pop\n      jump\t// out\n        /* \"#utility.yul\":22756:22903   */\n    tag_193:\n        /* \"#utility.yul\":22857:22868   */\n      0x00\n        /* \"#utility.yul\":22894:22897   */\n      dup2\n        /* \"#utility.yul\":22879:22897   */\n      swap1\n      pop\n        /* \"#utility.yul\":22756:22903   */\n      swap3\n      swap2\n      pop\n      pop\n      jump\t// out\n        /* \"#utility.yul\":22909:23295   */\n    tag_194:\n        /* \"#utility.yul\":23013:23016   */\n      0x00\n        /* \"#utility.yul\":23041:23079   */\n      tag_429\n        /* \"#utility.yul\":23073:23078   */\n      dup3\n        /* \"#utility.yul\":23041:23079   */\n      tag_192\n      jump\t// in\n    tag_429:\n        /* \"#utility.yul\":23095:23183   */\n      tag_430\n        /* \"#utility.yul\":23176:23182   */\n      dup2\n        /* \"#utility.yul\":23171:23174   */\n      dup6\n        /* \"#utility.yul\":23095:23183   */\n      tag_193\n      jump\t// in\n    tag_430:\n        /* \"#utility.yul\":23088:23183   */\n      swap4\n      pop\n        /* \"#utility.yul\":23192:23257   */\n      tag_431\n        /* \"#utility.yul\":23250:23256   */\n      dup2\n        /* \"#utility.yul\":23245:23248   */\n      dup6\n        /* \"#utility.yul\":23238:23242   */\n      0x20\n        /* \"#utility.yul\":23231:23236   */\n      dup7\n        /* \"#utility.yul\":23227:23243   */\n      add\n        /* \"#utility.yul\":23192:23257   */\n      tag_140\n      jump\t// in\n    tag_431:\n        /* \"#utility.yul\":23282:23288   */\n      dup1\n        /* \"#utility.yul\":23277:23280   */\n      dup5\n        /* \"#utility.yul\":23273:23289   */\n      add\n        /* \"#utility.yul\":23266:23289   */\n      swap2\n      pop\n        /* \"#utility.yul\":23017:23295   */\n      pop\n        /* \"#utility.yul\":22909:23295   */\n      swap3\n      swap2\n      pop\n      pop\n      jump\t// out\n        /* \"#utility.yul\":23301:23572   */\n    tag_125:\n        /* \"#utility.yul\":23431:23434   */\n      0x00\n        /* \"#utility.yul\":23453:23546   */\n      tag_433\n        /* \"#utility.yul\":23542:23545   */\n      dup3\n        /* \"#utility.yul\":23533:23539   */\n      dup5\n        /* \"#utility.yul\":23453:23546   */\n      tag_194\n      jump\t// in\n    tag_433:\n        /* \"#utility.yul\":23446:23546   */\n      swap2\n      pop\n        /* \"#utility.yul\":23563:23566   */\n      dup2\n        /* \"#utility.yul\":23556:23566   */\n      swap1\n      pop\n        /* \"#utility.yul\":23301:23572   */\n      swap3\n      swap2\n      pop\n      pop\n      jump\t// out\n        /* \"#utility.yul\":23578:23721   */\n    tag_195:\n        /* \"#utility.yul\":23635:23640   */\n      0x00\n        /* \"#utility.yul\":23666:23672   */\n      dup2\n        /* \"#utility.yul\":23660:23673   */\n      mload\n        /* \"#utility.yul\":23651:23673   */\n      swap1\n      pop\n        /* \"#utility.yul\":23682:23715   */\n      tag_435\n        /* \"#utility.yul\":23709:23714   */\n      dup2\n        /* \"#utility.yul\":23682:23715   */\n      tag_134\n      jump\t// in\n    tag_435:\n        /* \"#utility.yul\":23578:23721   */\n      swap3\n      swap2\n      pop\n      pop\n      jump\t// out\n        /* \"#utility.yul\":23727:24078   */\n    tag_129:\n        /* \"#utility.yul\":23797:23803   */\n      0x00\n        /* \"#utility.yul\":23846:23848   */\n      0x20\n        /* \"#utility.yul\":23834:23843   */\n      dup3\n        /* \"#utility.yul\":23825:23832   */\n      dup5\n        /* \"#utility.yul\":23821:23844   */\n      sub\n        /* \"#utility.yul\":23817:23849   */\n      slt\n        /* \"#utility.yul\":23814:23933   */\n      iszero\n      tag_437\n      jumpi\n        /* \"#utility.yul\":23852:23931   */\n      tag_438\n      tag_131\n      jump\t// in\n    tag_438:\n        /* \"#utility.yul\":23814:23933   */\n    tag_437:\n        /* \"#utility.yul\":23972:23973   */\n      0x00\n        /* \"#utility.yul\":23997:24061   */\n      tag_439\n        /* \"#utility.yul\":24053:24060   */\n      dup5\n        /* \"#utility.yul\":24044:24050   */\n      dup3\n        /* \"#utility.yul\":24033:24042   */\n      dup6\n        /* \"#utility.yul\":24029:24051   */\n      add\n        /* \"#utility.yul\":23997:24061   */\n      tag_195\n      jump\t// in\n    tag_439:\n        /* \"#utility.yul\":23987:24061   */\n      swap2\n      pop\n        /* \"#utility.yul\":23943:24071   */\n      pop\n        /* \"#utility.yul\":23727:24078   */\n      swap3\n      swap2\n      pop\n      pop\n      jump\t// out\n\n    auxdata: 0xa264697066735822122099d4d3c649bd7e71e296e89be72b76b68c6b7c509c1b3b91af1209d81ffc356b64736f6c634300081a0033\n}\n",
				"bytecode": {
					"linkReferences": {},
					"object": "6080604052348015600e575f80fd5b506118728061001c5f395ff3fe608060405234801561000f575f80fd5b5060043610610091575f3560e01c8063a0303c4111610064578063a0303c4114610133578063bab90dbd14610151578063bf94effa14610182578063ea88629c146101b4578063eadb6252146101e957610091565b8063354d52ac1461009557806353d08ef4146100cb57806361da081d146100e75780636f8de43814610117575b5f80fd5b6100af60048036038101906100aa9190610c54565b610219565b6040516100c29796959493929190610d21565b60405180910390f35b6100e560048036038101906100e09190610f22565b61036f565b005b61010160048036038101906100fc9190610fd4565b6104a8565b60405161010e919061100e565b60405180910390f35b610131600480360381019061012c9190611027565b6104bd565b005b61013b61060e565b60405161014891906110fc565b60405180910390f35b61016b60048036038101906101669190611115565b610613565b604051610179929190611140565b60405180910390f35b61019c60048036038101906101979190611115565b61083e565b6040516101ab93929190611175565b60405180910390f35b6101ce60048036038101906101c99190610c54565b61097c565b6040516101e0969594939291906111b8565b60405180910390f35b61020360048036038101906101fe9190610fd4565b610b97565b604051610210919061100e565b60405180910390f35b6002602052805f5260405f205f91509050805f015f9054906101000a900460ff169080600101805461024a90611252565b80601f016020809104026020016040519081016040528092919081815260200182805461027690611252565b80156102c15780601f10610298576101008083540402835291602001916102c1565b820191905f5260205f20905b8154815290600101906020018083116102a457829003601f168201915b5050505050908060020154908060030180546102dc90611252565b80601f016020809104026020016040519081016040528092919081815260200182805461030890611252565b80156103535780601f1061032a57610100808354040283529160200191610353565b820191905f5260205f20905b81548152906001019060200180831161033657829003601f168201915b5050505050908060040154908060050154908060060154905087565b60015f8473ffffffffffffffffffffffffffffffffffffffff1673ffffffffffffffffffffffffffffffffffffffff1681526020019081526020015f206002015f9054906101000a900460ff16156103fc576040517f08c379a00000000000000000000000000000000000000000000000000000000081526004016103f3906112cc565b60405180910390fd5b60405180606001604052808381526020018281526020016001151581525060015f8573ffffffffffffffffffffffffffffffffffffffff1673ffffffffffffffffffffffffffffffffffffffff1681526020019081526020015f205f820151815f01908161046a9190611487565b5060208201518160010190816104809190611487565b506040820151816002015f6101000a81548160ff021916908315150217905550905050505050565b6003602052805f5260405f205f915090505481565b60025f8881526020019081526020015f205f015f9054906101000a900460ff161561051d576040517f08c379a0000000000000000000000000000000000000000000000000000000008152600401610514906115a0565b60405180910390fd5b6040518060e001604052806001151581526020018781526020018681526020018581526020018481526020018381526020018281525060025f8981526020019081526020015f205f820151815f015f6101000a81548160ff02191690831515021790555060208201518160010190816105969190611487565b506040820151816002015560608201518160030190816105b69190611487565b506080820151816004015560a0820151816005015560c082015181600601559050508660035f805481526020019081526020015f20819055505f80815480929190610600906115eb565b919050555050505050505050565b5f5481565b60608060015f8473ffffffffffffffffffffffffffffffffffffffff1673ffffffffffffffffffffffffffffffffffffffff1681526020019081526020015f206002015f9054906101000a900460ff166106a2576040517f08c379a00000000000000000000000000000000000000000000000000000000081526004016106999061167c565b60405180910390fd5b60015f8473ffffffffffffffffffffffffffffffffffffffff1673ffffffffffffffffffffffffffffffffffffffff1681526020019081526020015f205f0160015f8573ffffffffffffffffffffffffffffffffffffffff1673ffffffffffffffffffffffffffffffffffffffff1681526020019081526020015f2060010181805461072d90611252565b80601f016020809104026020016040519081016040528092919081815260200182805461075990611252565b80156107a45780601f1061077b576101008083540402835291602001916107a4565b820191905f5260205f20905b81548152906001019060200180831161078757829003601f168201915b505050505091508080546107b790611252565b80601f01602080910402602001604051908101604052809291908181526020018280546107e390611252565b801561082e5780601f106108055761010080835404028352916020019161082e565b820191905f5260205f20905b81548152906001019060200180831161081157829003601f168201915b5050505050905091509150915091565b6001602052805f5260405f205f91509050805f01805461085d90611252565b80601f016020809104026020016040519081016040528092919081815260200182805461088990611252565b80156108d45780601f106108ab576101008083540402835291602001916108d4565b820191905f5260205f20905b8154815290600101906020018083116108b757829003601f168201915b5050505050908060010180546108e990611252565b80601f016020809104026020016040519081016040528092919081815260200182805461091590611252565b80156109605780601f1061093757610100808354040283529160200191610960565b820191905f5260205f20905b81548152906001019060200180831161094357829003601f168201915b505050505090806002015f9054906101000a900460ff16905083565b60605f60605f805f60025f8881526020019081526020015f205f015f9054906101000a900460ff166109e3576040517f08c379a00000000000000000000000000000000000000000000000000000000081526004016109da906116e4565b60405180910390fd5b5f60025f8981526020019081526020015f206040518060e00160405290815f82015f9054906101000a900460ff16151515158152602001600182018054610a2990611252565b80601f0160208091040260200160405190810160405280929190818152602001828054610a5590611252565b8015610aa05780601f10610a7757610100808354040283529160200191610aa0565b820191905f5260205f20905b815481529060010190602001808311610a8357829003601f168201915b5050505050815260200160028201548152602001600382018054610ac390611252565b80601f0160208091040260200160405190810160405280929190818152602001828054610aef90611252565b8015610b3a5780601f10610b1157610100808354040283529160200191610b3a565b820191905f5260205f20905b815481529060010190602001808311610b1d57829003601f168201915b505050505081526020016004820154815260200160058201548152602001600682015481525050905080602001518160400151826060015183608001518460a001518560c001519650965096509650965096505091939550919395565b5f6002824233604051602001610baf93929190611767565b604051602081830303815290604052604051610bcb91906117e7565b602060405180830381855afa158015610be6573d5f803e3d5ffd5b5050506040513d601f19601f82011682018060405250810190610c099190611811565b9050919050565b5f604051905090565b5f80fd5b5f80fd5b5f819050919050565b610c3381610c21565b8114610c3d575f80fd5b50565b5f81359050610c4e81610c2a565b92915050565b5f60208284031215610c6957610c68610c19565b5b5f610c7684828501610c40565b91505092915050565b5f8115159050919050565b610c9381610c7f565b82525050565b5f81519050919050565b5f82825260208201905092915050565b8281835e5f83830152505050565b5f601f19601f8301169050919050565b5f610cdb82610c99565b610ce58185610ca3565b9350610cf5818560208601610cb3565b610cfe81610cc1565b840191505092915050565b5f819050919050565b610d1b81610d09565b82525050565b5f60e082019050610d345f83018a610c8a565b8181036020830152610d468189610cd1565b9050610d556040830188610d12565b8181036060830152610d678187610cd1565b9050610d766080830186610d12565b610d8360a0830185610d12565b610d9060c0830184610d12565b98975050505050505050565b5f73ffffffffffffffffffffffffffffffffffffffff82169050919050565b5f610dc582610d9c565b9050919050565b610dd581610dbb565b8114610ddf575f80fd5b50565b5f81359050610df081610dcc565b92915050565b5f80fd5b5f80fd5b7f4e487b71000000000000000000000000000000000000000000000000000000005f52604160045260245ffd5b610e3482610cc1565b810181811067ffffffffffffffff82111715610e5357610e52610dfe565b5b80604052505050565b5f610e65610c10565b9050610e718282610e2b565b919050565b5f67ffffffffffffffff821115610e9057610e8f610dfe565b5b610e9982610cc1565b9050602081019050919050565b828183375f83830152505050565b5f610ec6610ec184610e76565b610e5c565b905082815260208101848484011115610ee257610ee1610dfa565b5b610eed848285610ea6565b509392505050565b5f82601f830112610f0957610f08610df6565b5b8135610f19848260208601610eb4565b91505092915050565b5f805f60608486031215610f3957610f38610c19565b5b5f610f4686828701610de2565b935050602084013567ffffffffffffffff811115610f6757610f66610c1d565b5b610f7386828701610ef5565b925050604084013567ffffffffffffffff811115610f9457610f93610c1d565b5b610fa086828701610ef5565b9150509250925092565b610fb381610d09565b8114610fbd575f80fd5b50565b5f81359050610fce81610faa565b92915050565b5f60208284031215610fe957610fe8610c19565b5b5f610ff684828501610fc0565b91505092915050565b61100881610c21565b82525050565b5f6020820190506110215f830184610fff565b92915050565b5f805f805f805f60e0888a03121561104257611041610c19565b5b5f61104f8a828b01610c40565b975050602088013567ffffffffffffffff8111156110705761106f610c1d565b5b61107c8a828b01610ef5565b965050604061108d8a828b01610fc0565b955050606088013567ffffffffffffffff8111156110ae576110ad610c1d565b5b6110ba8a828b01610ef5565b94505060806110cb8a828b01610fc0565b93505060a06110dc8a828b01610fc0565b92505060c06110ed8a828b01610fc0565b91505092959891949750929550565b5f60208201905061110f5f830184610d12565b92915050565b5f6020828403121561112a57611129610c19565b5b5f61113784828501610de2565b91505092915050565b5f6040820190508181035f8301526111588185610cd1565b9050818103602083015261116c8184610cd1565b90509392505050565b5f6060820190508181035f83015261118d8186610cd1565b905081810360208301526111a18185610cd1565b90506111b06040830184610c8a565b949350505050565b5f60c0820190508181035f8301526111d08189610cd1565b90506111df6020830188610d12565b81810360408301526111f18187610cd1565b90506112006060830186610d12565b61120d6080830185610d12565b61121a60a0830184610d12565b979650505050505050565b7f4e487b71000000000000000000000000000000000000000000000000000000005f52602260045260245ffd5b5f600282049050600182168061126957607f821691505b60208210810361127c5761127b611225565b5b50919050565b7f446f63746f7220616c72656164792072656769737465726564000000000000005f82015250565b5f6112b6601983610ca3565b91506112c182611282565b602082019050919050565b5f6020820190508181035f8301526112e3816112aa565b9050919050565b5f819050815f5260205f209050919050565b5f6020601f8301049050919050565b5f82821b905092915050565b5f600883026113467fffffffffffffffffffffffffffffffffffffffffffffffffffffffffffffffff8261130b565b611350868361130b565b95508019841693508086168417925050509392505050565b5f819050919050565b5f61138b61138661138184610d09565b611368565b610d09565b9050919050565b5f819050919050565b6113a483611371565b6113b86113b082611392565b848454611317565b825550505050565b5f90565b6113cc6113c0565b6113d781848461139b565b505050565b5b818110156113fa576113ef5f826113c4565b6001810190506113dd565b5050565b601f82111561143f57611410816112ea565b611419846112fc565b81016020851015611428578190505b61143c611434856112fc565b8301826113dc565b50505b505050565b5f82821c905092915050565b5f61145f5f1984600802611444565b1980831691505092915050565b5f6114778383611450565b9150826002028217905092915050565b61149082610c99565b67ffffffffffffffff8111156114a9576114a8610dfe565b5b6114b38254611252565b6114be8282856113fe565b5f60209050601f8311600181146114ef575f84156114dd578287015190505b6114e7858261146c565b86555061154e565b601f1984166114fd866112ea565b5f5b82811015611524578489015182556001820191506020850194506020810190506114ff565b86831015611541578489015161153d601f891682611450565b8355505b6001600288020188555050505b505050505050565b7f556e6971756520494420616c72656164792065786973747300000000000000005f82015250565b5f61158a601883610ca3565b915061159582611556565b602082019050919050565b5f6020820190508181035f8301526115b78161157e565b9050919050565b7f4e487b71000000000000000000000000000000000000000000000000000000005f52601160045260245ffd5b5f6115f582610d09565b91507fffffffffffffffffffffffffffffffffffffffffffffffffffffffffffffffff8203611627576116266115be565b5b600182019050919050565b7f446f63746f72206e6f7420666f756e64000000000000000000000000000000005f82015250565b5f611666601083610ca3565b915061167182611632565b602082019050919050565b5f6020820190508181035f8301526116938161165a565b9050919050565b7f50617469656e74206e6f7420666f756e640000000000000000000000000000005f82015250565b5f6116ce601183610ca3565b91506116d98261169a565b602082019050919050565b5f6020820190508181035f8301526116fb816116c2565b9050919050565b5f819050919050565b61171c61171782610d09565b611702565b82525050565b5f8160601b9050919050565b5f61173882611722565b9050919050565b5f6117498261172e565b9050919050565b61176161175c82610dbb565b61173f565b82525050565b5f611772828661170b565b602082019150611782828561170b565b6020820191506117928284611750565b601482019150819050949350505050565b5f81519050919050565b5f81905092915050565b5f6117c1826117a3565b6117cb81856117ad565b93506117db818560208601610cb3565b80840191505092915050565b5f6117f282846117b7565b915081905092915050565b5f8151905061180b81610c2a565b92915050565b5f6020828403121561182657611825610c19565b5b5f611833848285016117fd565b9150509291505056fea264697066735822122099d4d3c649bd7e71e296e89be72b76b68c6b7c509c1b3b91af1209d81ffc356b64736f6c634300081a0033",
					"opcodes": "PUSH1 0x80 PUSH1 0x40 MSTORE CALLVALUE DUP1 ISZERO PUSH1 0xE JUMPI PUSH0 DUP1 REVERT JUMPDEST POP PUSH2 0x1872 DUP1 PUSH2 0x1C PUSH0 CODECOPY PUSH0 RETURN INVALID PUSH1 0x80 PUSH1 0x40 MSTORE CALLVALUE DUP1 ISZERO PUSH2 0xF JUMPI PUSH0 DUP1 REVERT JUMPDEST POP PUSH1 0x4 CALLDATASIZE LT PUSH2 0x91 JUMPI PUSH0 CALLDATALOAD PUSH1 0xE0 SHR DUP1 PUSH4 0xA0303C41 GT PUSH2 0x64 JUMPI DUP1 PUSH4 0xA0303C41 EQ PUSH2 0x133 JUMPI DUP1 PUSH4 0xBAB90DBD EQ PUSH2 0x151 JUMPI DUP1 PUSH4 0xBF94EFFA EQ PUSH2 0x182 JUMPI DUP1 PUSH4 0xEA88629C EQ PUSH2 0x1B4 JUMPI DUP1 PUSH4 0xEADB6252 EQ PUSH2 0x1E9 JUMPI PUSH2 0x91 JUMP JUMPDEST DUP1 PUSH4 0x354D52AC EQ PUSH2 0x95 JUMPI DUP1 PUSH4 0x53D08EF4 EQ PUSH2 0xCB JUMPI DUP1 PUSH4 0x61DA081D EQ PUSH2 0xE7 JUMPI DUP1 PUSH4 0x6F8DE438 EQ PUSH2 0x117 JUMPI JUMPDEST PUSH0 DUP1 REVERT JUMPDEST PUSH2 0xAF PUSH1 0x4 DUP1 CALLDATASIZE SUB DUP2 ADD SWAP1 PUSH2 0xAA SWAP2 SWAP1 PUSH2 0xC54 JUMP JUMPDEST PUSH2 0x219 JUMP JUMPDEST PUSH1 0x40 MLOAD PUSH2 0xC2 SWAP8 SWAP7 SWAP6 SWAP5 SWAP4 SWAP3 SWAP2 SWAP1 PUSH2 0xD21 JUMP JUMPDEST PUSH1 0x40 MLOAD DUP1 SWAP2 SUB SWAP1 RETURN JUMPDEST PUSH2 0xE5 PUSH1 0x4 DUP1 CALLDATASIZE SUB DUP2 ADD SWAP1 PUSH2 0xE0 SWAP2 SWAP1 PUSH2 0xF22 JUMP JUMPDEST PUSH2 0x36F JUMP JUMPDEST STOP JUMPDEST PUSH2 0x101 PUSH1 0x4 DUP1 CALLDATASIZE SUB DUP2 ADD SWAP1 PUSH2 0xFC SWAP2 SWAP1 PUSH2 0xFD4 JUMP JUMPDEST PUSH2 0x4A8 JUMP JUMPDEST PUSH1 0x40 MLOAD PUSH2 0x10E SWAP2 SWAP1 PUSH2 0x100E JUMP JUMPDEST PUSH1 0x40 MLOAD DUP1 SWAP2 SUB SWAP1 RETURN JUMPDEST PUSH2 0x131 PUSH1 0x4 DUP1 CALLDATASIZE SUB DUP2 ADD SWAP1 PUSH2 0x12C SWAP2 SWAP1 PUSH2 0x1027 JUMP JUMPDEST PUSH2 0x4BD JUMP JUMPDEST STOP JUMPDEST PUSH2 0x13B PUSH2 0x60E JUMP JUMPDEST PUSH1 0x40 MLOAD PUSH2 0x148 SWAP2 SWAP1 PUSH2 0x10FC JUMP JUMPDEST PUSH1 0x40 MLOAD DUP1 SWAP2 SUB SWAP1 RETURN JUMPDEST PUSH2 0x16B PUSH1 0x4 DUP1 CALLDATASIZE SUB DUP2 ADD SWAP1 PUSH2 0x166 SWAP2 SWAP1 PUSH2 0x1115 JUMP JUMPDEST PUSH2 0x613 JUMP JUMPDEST PUSH1 0x40 MLOAD PUSH2 0x179 SWAP3 SWAP2 SWAP1 PUSH2 0x1140 JUMP JUMPDEST PUSH1 0x40 MLOAD DUP1 SWAP2 SUB SWAP1 RETURN JUMPDEST PUSH2 0x19C PUSH1 0x4 DUP1 CALLDATASIZE SUB DUP2 ADD SWAP1 PUSH2 0x197 SWAP2 SWAP1 PUSH2 0x1115 JUMP JUMPDEST PUSH2 0x83E JUMP JUMPDEST PUSH1 0x40 MLOAD PUSH2 0x1AB SWAP4 SWAP3 SWAP2 SWAP1 PUSH2 0x1175 JUMP JUMPDEST PUSH1 0x40 MLOAD DUP1 SWAP2 SUB SWAP1 RETURN JUMPDEST PUSH2 0x1CE PUSH1 0x4 DUP1 CALLDATASIZE SUB DUP2 ADD SWAP1 PUSH2 0x1C9 SWAP2 SWAP1 PUSH2 0xC54 JUMP JUMPDEST PUSH2 0x97C JUMP JUMPDEST PUSH1 0x40 MLOAD PUSH2 0x1E0 SWAP7 SWAP6 SWAP5 SWAP4 SWAP3 SWAP2 SWAP1 PUSH2 0x11B8 JUMP JUMPDEST PUSH1 0x40 MLOAD DUP1 SWAP2 SUB SWAP1 RETURN JUMPDEST PUSH2 0x203 PUSH1 0x4 DUP1 CALLDATASIZE SUB DUP2 ADD SWAP1 PUSH2 0x1FE SWAP2 SWAP1 PUSH2 0xFD4 JUMP JUMPDEST PUSH2 0xB97 JUMP JUMPDEST PUSH1 0x40 MLOAD PUSH2 0x210 SWAP2 SWAP1 PUSH2 0x100E JUMP JUMPDEST PUSH1 0x40 MLOAD DUP1 SWAP2 SUB SWAP1 RETURN JUMPDEST PUSH1 0x2 PUSH1 0x20 MSTORE DUP1 PUSH0 MSTORE PUSH1 0x40 PUSH0 KECCAK256 PUSH0 SWAP2 POP SWAP1 POP DUP1 PUSH0 ADD PUSH0 SWAP1 SLOAD SWAP1 PUSH2 0x100 EXP SWAP1 DIV PUSH1 0xFF AND SWAP1 DUP1 PUSH1 0x1 ADD DUP1 SLOAD PUSH2 0x24A SWAP1 PUSH2 0x1252 JUMP JUMPDEST DUP1 PUSH1 0x1F ADD PUSH1 0x20 DUP1 SWAP2 DIV MUL PUSH1 0x20 ADD PUSH1 0x40 MLOAD SWAP1 DUP2 ADD PUSH1 0x40 MSTORE DUP1 SWAP3 SWAP2 SWAP1 DUP2 DUP2 MSTORE PUSH1 0x20 ADD DUP3 DUP1 SLOAD PUSH2 0x276 SWAP1 PUSH2 0x1252 JUMP JUMPDEST DUP1 ISZERO PUSH2 0x2C1 JUMPI DUP1 PUSH1 0x1F LT PUSH2 0x298 JUMPI PUSH2 0x100 DUP1 DUP4 SLOAD DIV MUL DUP4 MSTORE SWAP2 PUSH1 0x20 ADD SWAP2 PUSH2 0x2C1 JUMP JUMPDEST DUP3 ADD SWAP2 SWAP1 PUSH0 MSTORE PUSH1 0x20 PUSH0 KECCAK256 SWAP1 JUMPDEST DUP2 SLOAD DUP2 MSTORE SWAP1 PUSH1 0x1 ADD SWAP1 PUSH1 0x20 ADD DUP1 DUP4 GT PUSH2 0x2A4 JUMPI DUP3 SWAP1 SUB PUSH1 0x1F AND DUP3 ADD SWAP2 JUMPDEST POP POP POP POP POP SWAP1 DUP1 PUSH1 0x2 ADD SLOAD SWAP1 DUP1 PUSH1 0x3 ADD DUP1 SLOAD PUSH2 0x2DC SWAP1 PUSH2 0x1252 JUMP JUMPDEST DUP1 PUSH1 0x1F ADD PUSH1 0x20 DUP1 SWAP2 DIV MUL PUSH1 0x20 ADD PUSH1 0x40 MLOAD SWAP1 DUP2 ADD PUSH1 0x40 MSTORE DUP1 SWAP3 SWAP2 SWAP1 DUP2 DUP2 MSTORE PUSH1 0x20 ADD DUP3 DUP1 SLOAD PUSH2 0x308 SWAP1 PUSH2 0x1252 JUMP JUMPDEST DUP1 ISZERO PUSH2 0x353 JUMPI DUP1 PUSH1 0x1F LT PUSH2 0x32A JUMPI PUSH2 0x100 DUP1 DUP4 SLOAD DIV MUL DUP4 MSTORE SWAP2 PUSH1 0x20 ADD SWAP2 PUSH2 0x353 JUMP JUMPDEST DUP3 ADD SWAP2 SWAP1 PUSH0 MSTORE PUSH1 0x20 PUSH0 KECCAK256 SWAP1 JUMPDEST DUP2 SLOAD DUP2 MSTORE SWAP1 PUSH1 0x1 ADD SWAP1 PUSH1 0x20 ADD DUP1 DUP4 GT PUSH2 0x336 JUMPI DUP3 SWAP1 SUB PUSH1 0x1F AND DUP3 ADD SWAP2 JUMPDEST POP POP POP POP POP SWAP1 DUP1 PUSH1 0x4 ADD SLOAD SWAP1 DUP1 PUSH1 0x5 ADD SLOAD SWAP1 DUP1 PUSH1 0x6 ADD SLOAD SWAP1 POP DUP8 JUMP JUMPDEST PUSH1 0x1 PUSH0 DUP5 PUSH20 0xFFFFFFFFFFFFFFFFFFFFFFFFFFFFFFFFFFFFFFFF AND PUSH20 0xFFFFFFFFFFFFFFFFFFFFFFFFFFFFFFFFFFFFFFFF AND DUP2 MSTORE PUSH1 0x20 ADD SWAP1 DUP2 MSTORE PUSH1 0x20 ADD PUSH0 KECCAK256 PUSH1 0x2 ADD PUSH0 SWAP1 SLOAD SWAP1 PUSH2 0x100 EXP SWAP1 DIV PUSH1 0xFF AND ISZERO PUSH2 0x3FC JUMPI PUSH1 0x40 MLOAD PUSH32 0x8C379A000000000000000000000000000000000000000000000000000000000 DUP2 MSTORE PUSH1 0x4 ADD PUSH2 0x3F3 SWAP1 PUSH2 0x12CC JUMP JUMPDEST PUSH1 0x40 MLOAD DUP1 SWAP2 SUB SWAP1 REVERT JUMPDEST PUSH1 0x40 MLOAD DUP1 PUSH1 0x60 ADD PUSH1 0x40 MSTORE DUP1 DUP4 DUP2 MSTORE PUSH1 0x20 ADD DUP3 DUP2 MSTORE PUSH1 0x20 ADD PUSH1 0x1 ISZERO ISZERO DUP2 MSTORE POP PUSH1 0x1 PUSH0 DUP6 PUSH20 0xFFFFFFFFFFFFFFFFFFFFFFFFFFFFFFFFFFFFFFFF AND PUSH20 0xFFFFFFFFFFFFFFFFFFFFFFFFFFFFFFFFFFFFFFFF AND DUP2 MSTORE PUSH1 0x20 ADD SWAP1 DUP2 MSTORE PUSH1 0x20 ADD PUSH0 KECCAK256 PUSH0 DUP3 ADD MLOAD DUP2 PUSH0 ADD SWAP1 DUP2 PUSH2 0x46A SWAP2 SWAP1 PUSH2 0x1487 JUMP JUMPDEST POP PUSH1 0x20 DUP3 ADD MLOAD DUP2 PUSH1 0x1 ADD SWAP1 DUP2 PUSH2 0x480 SWAP2 SWAP1 PUSH2 0x1487 JUMP JUMPDEST POP PUSH1 0x40 DUP3 ADD MLOAD DUP2 PUSH1 0x2 ADD PUSH0 PUSH2 0x100 EXP DUP2 SLOAD DUP2 PUSH1 0xFF MUL NOT AND SWAP1 DUP4 ISZERO ISZERO MUL OR SWAP1 SSTORE POP SWAP1 POP POP POP POP POP JUMP JUMPDEST PUSH1 0x3 PUSH1 0x20 MSTORE DUP1 PUSH0 MSTORE PUSH1 0x40 PUSH0 KECCAK256 PUSH0 SWAP2 POP SWAP1 POP SLOAD DUP2 JUMP JUMPDEST PUSH1 0x2 PUSH0 DUP9 DUP2 MSTORE PUSH1 0x20 ADD SWAP1 DUP2 MSTORE PUSH1 0x20 ADD PUSH0 KECCAK256 PUSH0 ADD PUSH0 SWAP1 SLOAD SWAP1 PUSH2 0x100 EXP SWAP1 DIV PUSH1 0xFF AND ISZERO PUSH2 0x51D JUMPI PUSH1 0x40 MLOAD PUSH32 0x8C379A000000000000000000000000000000000000000000000000000000000 DUP2 MSTORE PUSH1 0x4 ADD PUSH2 0x514 SWAP1 PUSH2 0x15A0 JUMP JUMPDEST PUSH1 0x40 MLOAD DUP1 SWAP2 SUB SWAP1 REVERT JUMPDEST PUSH1 0x40 MLOAD DUP1 PUSH1 0xE0 ADD PUSH1 0x40 MSTORE DUP1 PUSH1 0x1 ISZERO ISZERO DUP2 MSTORE PUSH1 0x20 ADD DUP8 DUP2 MSTORE PUSH1 0x20 ADD DUP7 DUP2 MSTORE PUSH1 0x20 ADD DUP6 DUP2 MSTORE PUSH1 0x20 ADD DUP5 DUP2 MSTORE PUSH1 0x20 ADD DUP4 DUP2 MSTORE PUSH1 0x20 ADD DUP3 DUP2 MSTORE POP PUSH1 0x2 PUSH0 DUP10 DUP2 MSTORE PUSH1 0x20 ADD SWAP1 DUP2 MSTORE PUSH1 0x20 ADD PUSH0 KECCAK256 PUSH0 DUP3 ADD MLOAD DUP2 PUSH0 ADD PUSH0 PUSH2 0x100 EXP DUP2 SLOAD DUP2 PUSH1 0xFF MUL NOT AND SWAP1 DUP4 ISZERO ISZERO MUL OR SWAP1 SSTORE POP PUSH1 0x20 DUP3 ADD MLOAD DUP2 PUSH1 0x1 ADD SWAP1 DUP2 PUSH2 0x596 SWAP2 SWAP1 PUSH2 0x1487 JUMP JUMPDEST POP PUSH1 0x40 DUP3 ADD MLOAD DUP2 PUSH1 0x2 ADD SSTORE PUSH1 0x60 DUP3 ADD MLOAD DUP2 PUSH1 0x3 ADD SWAP1 DUP2 PUSH2 0x5B6 SWAP2 SWAP1 PUSH2 0x1487 JUMP JUMPDEST POP PUSH1 0x80 DUP3 ADD MLOAD DUP2 PUSH1 0x4 ADD SSTORE PUSH1 0xA0 DUP3 ADD MLOAD DUP2 PUSH1 0x5 ADD SSTORE PUSH1 0xC0 DUP3 ADD MLOAD DUP2 PUSH1 0x6 ADD SSTORE SWAP1 POP POP DUP7 PUSH1 0x3 PUSH0 DUP1 SLOAD DUP2 MSTORE PUSH1 0x20 ADD SWAP1 DUP2 MSTORE PUSH1 0x20 ADD PUSH0 KECCAK256 DUP2 SWAP1 SSTORE POP PUSH0 DUP1 DUP2 SLOAD DUP1 SWAP3 SWAP2 SWAP1 PUSH2 0x600 SWAP1 PUSH2 0x15EB JUMP JUMPDEST SWAP2 SWAP1 POP SSTORE POP POP POP POP POP POP POP POP JUMP JUMPDEST PUSH0 SLOAD DUP2 JUMP JUMPDEST PUSH1 0x60 DUP1 PUSH1 0x1 PUSH0 DUP5 PUSH20 0xFFFFFFFFFFFFFFFFFFFFFFFFFFFFFFFFFFFFFFFF AND PUSH20 0xFFFFFFFFFFFFFFFFFFFFFFFFFFFFFFFFFFFFFFFF AND DUP2 MSTORE PUSH1 0x20 ADD SWAP1 DUP2 MSTORE PUSH1 0x20 ADD PUSH0 KECCAK256 PUSH1 0x2 ADD PUSH0 SWAP1 SLOAD SWAP1 PUSH2 0x100 EXP SWAP1 DIV PUSH1 0xFF AND PUSH2 0x6A2 JUMPI PUSH1 0x40 MLOAD PUSH32 0x8C379A000000000000000000000000000000000000000000000000000000000 DUP2 MSTORE PUSH1 0x4 ADD PUSH2 0x699 SWAP1 PUSH2 0x167C JUMP JUMPDEST PUSH1 0x40 MLOAD DUP1 SWAP2 SUB SWAP1 REVERT JUMPDEST PUSH1 0x1 PUSH0 DUP5 PUSH20 0xFFFFFFFFFFFFFFFFFFFFFFFFFFFFFFFFFFFFFFFF AND PUSH20 0xFFFFFFFFFFFFFFFFFFFFFFFFFFFFFFFFFFFFFFFF AND DUP2 MSTORE PUSH1 0x20 ADD SWAP1 DUP2 MSTORE PUSH1 0x20 ADD PUSH0 KECCAK256 PUSH0 ADD PUSH1 0x1 PUSH0 DUP6 PUSH20 0xFFFFFFFFFFFFFFFFFFFFFFFFFFFFFFFFFFFFFFFF AND PUSH20 0xFFFFFFFFFFFFFFFFFFFFFFFFFFFFFFFFFFFFFFFF AND DUP2 MSTORE PUSH1 0x20 ADD SWAP1 DUP2 MSTORE PUSH1 0x20 ADD PUSH0 KECCAK256 PUSH1 0x1 ADD DUP2 DUP1 SLOAD PUSH2 0x72D SWAP1 PUSH2 0x1252 JUMP JUMPDEST DUP1 PUSH1 0x1F ADD PUSH1 0x20 DUP1 SWAP2 DIV MUL PUSH1 0x20 ADD PUSH1 0x40 MLOAD SWAP1 DUP2 ADD PUSH1 0x40 MSTORE DUP1 SWAP3 SWAP2 SWAP1 DUP2 DUP2 MSTORE PUSH1 0x20 ADD DUP3 DUP1 SLOAD PUSH2 0x759 SWAP1 PUSH2 0x1252 JUMP JUMPDEST DUP1 ISZERO PUSH2 0x7A4 JUMPI DUP1 PUSH1 0x1F LT PUSH2 0x77B JUMPI PUSH2 0x100 DUP1 DUP4 SLOAD DIV MUL DUP4 MSTORE SWAP2 PUSH1 0x20 ADD SWAP2 PUSH2 0x7A4 JUMP JUMPDEST DUP3 ADD SWAP2 SWAP1 PUSH0 MSTORE PUSH1 0x20 PUSH0 KECCAK256 SWAP1 JUMPDEST DUP2 SLOAD DUP2 MSTORE SWAP1 PUSH1 0x1 ADD SWAP1 PUSH1 0x20 ADD DUP1 DUP4 GT PUSH2 0x787 JUMPI DUP3 SWAP1 SUB PUSH1 0x1F AND DUP3 ADD SWAP2 JUMPDEST POP POP POP POP POP SWAP2 POP DUP1 DUP1 SLOAD PUSH2 0x7B7 SWAP1 PUSH2 0x1252 JUMP JUMPDEST DUP1 PUSH1 0x1F ADD PUSH1 0x20 DUP1 SWAP2 DIV MUL PUSH1 0x20 ADD PUSH1 0x40 MLOAD SWAP1 DUP2 ADD PUSH1 0x40 MSTORE DUP1 SWAP3 SWAP2 SWAP1 DUP2 DUP2 MSTORE PUSH1 0x20 ADD DUP3 DUP1 SLOAD PUSH2 0x7E3 SWAP1 PUSH2 0x1252 JUMP JUMPDEST DUP1 ISZERO PUSH2 0x82E JUMPI DUP1 PUSH1 0x1F LT PUSH2 0x805 JUMPI PUSH2 0x100 DUP1 DUP4 SLOAD DIV MUL DUP4 MSTORE SWAP2 PUSH1 0x20 ADD SWAP2 PUSH2 0x82E JUMP JUMPDEST DUP3 ADD SWAP2 SWAP1 PUSH0 MSTORE PUSH1 0x20 PUSH0 KECCAK256 SWAP1 JUMPDEST DUP2 SLOAD DUP2 MSTORE SWAP1 PUSH1 0x1 ADD SWAP1 PUSH1 0x20 ADD DUP1 DUP4 GT PUSH2 0x811 JUMPI DUP3 SWAP1 SUB PUSH1 0x1F AND DUP3 ADD SWAP2 JUMPDEST POP POP POP POP POP SWAP1 POP SWAP2 POP SWAP2 POP SWAP2 POP SWAP2 JUMP JUMPDEST PUSH1 0x1 PUSH1 0x20 MSTORE DUP1 PUSH0 MSTORE PUSH1 0x40 PUSH0 KECCAK256 PUSH0 SWAP2 POP SWAP1 POP DUP1 PUSH0 ADD DUP1 SLOAD PUSH2 0x85D SWAP1 PUSH2 0x1252 JUMP JUMPDEST DUP1 PUSH1 0x1F ADD PUSH1 0x20 DUP1 SWAP2 DIV MUL PUSH1 0x20 ADD PUSH1 0x40 MLOAD SWAP1 DUP2 ADD PUSH1 0x40 MSTORE DUP1 SWAP3 SWAP2 SWAP1 DUP2 DUP2 MSTORE PUSH1 0x20 ADD DUP3 DUP1 SLOAD PUSH2 0x889 SWAP1 PUSH2 0x1252 JUMP JUMPDEST DUP1 ISZERO PUSH2 0x8D4 JUMPI DUP1 PUSH1 0x1F LT PUSH2 0x8AB JUMPI PUSH2 0x100 DUP1 DUP4 SLOAD DIV MUL DUP4 MSTORE SWAP2 PUSH1 0x20 ADD SWAP2 PUSH2 0x8D4 JUMP JUMPDEST DUP3 ADD SWAP2 SWAP1 PUSH0 MSTORE PUSH1 0x20 PUSH0 KECCAK256 SWAP1 JUMPDEST DUP2 SLOAD DUP2 MSTORE SWAP1 PUSH1 0x1 ADD SWAP1 PUSH1 0x20 ADD DUP1 DUP4 GT PUSH2 0x8B7 JUMPI DUP3 SWAP1 SUB PUSH1 0x1F AND DUP3 ADD SWAP2 JUMPDEST POP POP POP POP POP SWAP1 DUP1 PUSH1 0x1 ADD DUP1 SLOAD PUSH2 0x8E9 SWAP1 PUSH2 0x1252 JUMP JUMPDEST DUP1 PUSH1 0x1F ADD PUSH1 0x20 DUP1 SWAP2 DIV MUL PUSH1 0x20 ADD PUSH1 0x40 MLOAD SWAP1 DUP2 ADD PUSH1 0x40 MSTORE DUP1 SWAP3 SWAP2 SWAP1 DUP2 DUP2 MSTORE PUSH1 0x20 ADD DUP3 DUP1 SLOAD PUSH2 0x915 SWAP1 PUSH2 0x1252 JUMP JUMPDEST DUP1 ISZERO PUSH2 0x960 JUMPI DUP1 PUSH1 0x1F LT PUSH2 0x937 JUMPI PUSH2 0x100 DUP1 DUP4 SLOAD DIV MUL DUP4 MSTORE SWAP2 PUSH1 0x20 ADD SWAP2 PUSH2 0x960 JUMP JUMPDEST DUP3 ADD SWAP2 SWAP1 PUSH0 MSTORE PUSH1 0x20 PUSH0 KECCAK256 SWAP1 JUMPDEST DUP2 SLOAD DUP2 MSTORE SWAP1 PUSH1 0x1 ADD SWAP1 PUSH1 0x20 ADD DUP1 DUP4 GT PUSH2 0x943 JUMPI DUP3 SWAP1 SUB PUSH1 0x1F AND DUP3 ADD SWAP2 JUMPDEST POP POP POP POP POP SWAP1 DUP1 PUSH1 0x2 ADD PUSH0 SWAP1 SLOAD SWAP1 PUSH2 0x100 EXP SWAP1 DIV PUSH1 0xFF AND SWAP1 POP DUP4 JUMP JUMPDEST PUSH1 0x60 PUSH0 PUSH1 0x60 PUSH0 DUP1 PUSH0 PUSH1 0x2 PUSH0 DUP9 DUP2 MSTORE PUSH1 0x20 ADD SWAP1 DUP2 MSTORE PUSH1 0x20 ADD PUSH0 KECCAK256 PUSH0 ADD PUSH0 SWAP1 SLOAD SWAP1 PUSH2 0x100 EXP SWAP1 DIV PUSH1 0xFF AND PUSH2 0x9E3 JUMPI PUSH1 0x40 MLOAD PUSH32 0x8C379A000000000000000000000000000000000000000000000000000000000 DUP2 MSTORE PUSH1 0x4 ADD PUSH2 0x9DA SWAP1 PUSH2 0x16E4 JUMP JUMPDEST PUSH1 0x40 MLOAD DUP1 SWAP2 SUB SWAP1 REVERT JUMPDEST PUSH0 PUSH1 0x2 PUSH0 DUP10 DUP2 MSTORE PUSH1 0x20 ADD SWAP1 DUP2 MSTORE PUSH1 0x20 ADD PUSH0 KECCAK256 PUSH1 0x40 MLOAD DUP1 PUSH1 0xE0 ADD PUSH1 0x40 MSTORE SWAP1 DUP2 PUSH0 DUP3 ADD PUSH0 SWAP1 SLOAD SWAP1 PUSH2 0x100 EXP SWAP1 DIV PUSH1 0xFF AND ISZERO ISZERO ISZERO ISZERO DUP2 MSTORE PUSH1 0x20 ADD PUSH1 0x1 DUP3 ADD DUP1 SLOAD PUSH2 0xA29 SWAP1 PUSH2 0x1252 JUMP JUMPDEST DUP1 PUSH1 0x1F ADD PUSH1 0x20 DUP1 SWAP2 DIV MUL PUSH1 0x20 ADD PUSH1 0x40 MLOAD SWAP1 DUP2 ADD PUSH1 0x40 MSTORE DUP1 SWAP3 SWAP2 SWAP1 DUP2 DUP2 MSTORE PUSH1 0x20 ADD DUP3 DUP1 SLOAD PUSH2 0xA55 SWAP1 PUSH2 0x1252 JUMP JUMPDEST DUP1 ISZERO PUSH2 0xAA0 JUMPI DUP1 PUSH1 0x1F LT PUSH2 0xA77 JUMPI PUSH2 0x100 DUP1 DUP4 SLOAD DIV MUL DUP4 MSTORE SWAP2 PUSH1 0x20 ADD SWAP2 PUSH2 0xAA0 JUMP JUMPDEST DUP3 ADD SWAP2 SWAP1 PUSH0 MSTORE PUSH1 0x20 PUSH0 KECCAK256 SWAP1 JUMPDEST DUP2 SLOAD DUP2 MSTORE SWAP1 PUSH1 0x1 ADD SWAP1 PUSH1 0x20 ADD DUP1 DUP4 GT PUSH2 0xA83 JUMPI DUP3 SWAP1 SUB PUSH1 0x1F AND DUP3 ADD SWAP2 JUMPDEST POP POP POP POP POP DUP2 MSTORE PUSH1 0x20 ADD PUSH1 0x2 DUP3 ADD SLOAD DUP2 MSTORE PUSH1 0x20 ADD PUSH1 0x3 DUP3 ADD DUP1 SLOAD PUSH2 0xAC3 SWAP1 PUSH2 0x1252 JUMP JUMPDEST DUP1 PUSH1 0x1F ADD PUSH1 0x20 DUP1 SWAP2 DIV MUL PUSH1 0x20 ADD PUSH1 0x40 MLOAD SWAP1 DUP2 ADD PUSH1 0x40 MSTORE DUP1 SWAP3 SWAP2 SWAP1 DUP2 DUP2 MSTORE PUSH1 0x20 ADD DUP3 DUP1 SLOAD PUSH2 0xAEF SWAP1 PUSH2 0x1252 JUMP JUMPDEST DUP1 ISZERO PUSH2 0xB3A JUMPI DUP1 PUSH1 0x1F LT PUSH2 0xB11 JUMPI PUSH2 0x100 DUP1 DUP4 SLOAD DIV MUL DUP4 MSTORE SWAP2 PUSH1 0x20 ADD SWAP2 PUSH2 0xB3A JUMP JUMPDEST DUP3 ADD SWAP2 SWAP1 PUSH0 MSTORE PUSH1 0x20 PUSH0 KECCAK256 SWAP1 JUMPDEST DUP2 SLOAD DUP2 MSTORE SWAP1 PUSH1 0x1 ADD SWAP1 PUSH1 0x20 ADD DUP1 DUP4 GT PUSH2 0xB1D JUMPI DUP3 SWAP1 SUB PUSH1 0x1F AND DUP3 ADD SWAP2 JUMPDEST POP POP POP POP POP DUP2 MSTORE PUSH1 0x20 ADD PUSH1 0x4 DUP3 ADD SLOAD DUP2 MSTORE PUSH1 0x20 ADD PUSH1 0x5 DUP3 ADD SLOAD DUP2 MSTORE PUSH1 0x20 ADD PUSH1 0x6 DUP3 ADD SLOAD DUP2 MSTORE POP POP SWAP1 POP DUP1 PUSH1 0x20 ADD MLOAD DUP2 PUSH1 0x40 ADD MLOAD DUP3 PUSH1 0x60 ADD MLOAD DUP4 PUSH1 0x80 ADD MLOAD DUP5 PUSH1 0xA0 ADD MLOAD DUP6 PUSH1 0xC0 ADD MLOAD SWAP7 POP SWAP7 POP SWAP7 POP SWAP7 POP SWAP7 POP SWAP7 POP POP SWAP2 SWAP4 SWAP6 POP SWAP2 SWAP4 SWAP6 JUMP JUMPDEST PUSH0 PUSH1 0x2 DUP3 TIMESTAMP CALLER PUSH1 0x40 MLOAD PUSH1 0x20 ADD PUSH2 0xBAF SWAP4 SWAP3 SWAP2 SWAP1 PUSH2 0x1767 JUMP JUMPDEST PUSH1 0x40 MLOAD PUSH1 0x20 DUP2 DUP4 SUB SUB DUP2 MSTORE SWAP1 PUSH1 0x40 MSTORE PUSH1 0x40 MLOAD PUSH2 0xBCB SWAP2 SWAP1 PUSH2 0x17E7 JUMP JUMPDEST PUSH1 0x20 PUSH1 0x40 MLOAD DUP1 DUP4 SUB DUP2 DUP6 GAS STATICCALL ISZERO DUP1 ISZERO PUSH2 0xBE6 JUMPI RETURNDATASIZE PUSH0 DUP1 RETURNDATACOPY RETURNDATASIZE PUSH0 REVERT JUMPDEST POP POP POP PUSH1 0x40 MLOAD RETURNDATASIZE PUSH1 0x1F NOT PUSH1 0x1F DUP3 ADD AND DUP3 ADD DUP1 PUSH1 0x40 MSTORE POP DUP2 ADD SWAP1 PUSH2 0xC09 SWAP2 SWAP1 PUSH2 0x1811 JUMP JUMPDEST SWAP1 POP SWAP2 SWAP1 POP JUMP JUMPDEST PUSH0 PUSH1 0x40 MLOAD SWAP1 POP SWAP1 JUMP JUMPDEST PUSH0 DUP1 REVERT JUMPDEST PUSH0 DUP1 REVERT JUMPDEST PUSH0 DUP2 SWAP1 POP SWAP2 SWAP1 POP JUMP JUMPDEST PUSH2 0xC33 DUP2 PUSH2 0xC21 JUMP JUMPDEST DUP2 EQ PUSH2 0xC3D JUMPI PUSH0 DUP1 REVERT JUMPDEST POP JUMP JUMPDEST PUSH0 DUP2 CALLDATALOAD SWAP1 POP PUSH2 0xC4E DUP2 PUSH2 0xC2A JUMP JUMPDEST SWAP3 SWAP2 POP POP JUMP JUMPDEST PUSH0 PUSH1 0x20 DUP3 DUP5 SUB SLT ISZERO PUSH2 0xC69 JUMPI PUSH2 0xC68 PUSH2 0xC19 JUMP JUMPDEST JUMPDEST PUSH0 PUSH2 0xC76 DUP5 DUP3 DUP6 ADD PUSH2 0xC40 JUMP JUMPDEST SWAP2 POP POP SWAP3 SWAP2 POP POP JUMP JUMPDEST PUSH0 DUP2 ISZERO ISZERO SWAP1 POP SWAP2 SWAP1 POP JUMP JUMPDEST PUSH2 0xC93 DUP2 PUSH2 0xC7F JUMP JUMPDEST DUP3 MSTORE POP POP JUMP JUMPDEST PUSH0 DUP2 MLOAD SWAP1 POP SWAP2 SWAP1 POP JUMP JUMPDEST PUSH0 DUP3 DUP3 MSTORE PUSH1 0x20 DUP3 ADD SWAP1 POP SWAP3 SWAP2 POP POP JUMP JUMPDEST DUP3 DUP2 DUP4 MCOPY PUSH0 DUP4 DUP4 ADD MSTORE POP POP POP JUMP JUMPDEST PUSH0 PUSH1 0x1F NOT PUSH1 0x1F DUP4 ADD AND SWAP1 POP SWAP2 SWAP1 POP JUMP JUMPDEST PUSH0 PUSH2 0xCDB DUP3 PUSH2 0xC99 JUMP JUMPDEST PUSH2 0xCE5 DUP2 DUP6 PUSH2 0xCA3 JUMP JUMPDEST SWAP4 POP PUSH2 0xCF5 DUP2 DUP6 PUSH1 0x20 DUP7 ADD PUSH2 0xCB3 JUMP JUMPDEST PUSH2 0xCFE DUP2 PUSH2 0xCC1 JUMP JUMPDEST DUP5 ADD SWAP2 POP POP SWAP3 SWAP2 POP POP JUMP JUMPDEST PUSH0 DUP2 SWAP1 POP SWAP2 SWAP1 POP JUMP JUMPDEST PUSH2 0xD1B DUP2 PUSH2 0xD09 JUMP JUMPDEST DUP3 MSTORE POP POP JUMP JUMPDEST PUSH0 PUSH1 0xE0 DUP3 ADD SWAP1 POP PUSH2 0xD34 PUSH0 DUP4 ADD DUP11 PUSH2 0xC8A JUMP JUMPDEST DUP2 DUP2 SUB PUSH1 0x20 DUP4 ADD MSTORE PUSH2 0xD46 DUP2 DUP10 PUSH2 0xCD1 JUMP JUMPDEST SWAP1 POP PUSH2 0xD55 PUSH1 0x40 DUP4 ADD DUP9 PUSH2 0xD12 JUMP JUMPDEST DUP2 DUP2 SUB PUSH1 0x60 DUP4 ADD MSTORE PUSH2 0xD67 DUP2 DUP8 PUSH2 0xCD1 JUMP JUMPDEST SWAP1 POP PUSH2 0xD76 PUSH1 0x80 DUP4 ADD DUP7 PUSH2 0xD12 JUMP JUMPDEST PUSH2 0xD83 PUSH1 0xA0 DUP4 ADD DUP6 PUSH2 0xD12 JUMP JUMPDEST PUSH2 0xD90 PUSH1 0xC0 DUP4 ADD DUP5 PUSH2 0xD12 JUMP JUMPDEST SWAP9 SWAP8 POP POP POP POP POP POP POP POP JUMP JUMPDEST PUSH0 PUSH20 0xFFFFFFFFFFFFFFFFFFFFFFFFFFFFFFFFFFFFFFFF DUP3 AND SWAP1 POP SWAP2 SWAP1 POP JUMP JUMPDEST PUSH0 PUSH2 0xDC5 DUP3 PUSH2 0xD9C JUMP JUMPDEST SWAP1 POP SWAP2 SWAP1 POP JUMP JUMPDEST PUSH2 0xDD5 DUP2 PUSH2 0xDBB JUMP JUMPDEST DUP2 EQ PUSH2 0xDDF JUMPI PUSH0 DUP1 REVERT JUMPDEST POP JUMP JUMPDEST PUSH0 DUP2 CALLDATALOAD SWAP1 POP PUSH2 0xDF0 DUP2 PUSH2 0xDCC JUMP JUMPDEST SWAP3 SWAP2 POP POP JUMP JUMPDEST PUSH0 DUP1 REVERT JUMPDEST PUSH0 DUP1 REVERT JUMPDEST PUSH32 0x4E487B7100000000000000000000000000000000000000000000000000000000 PUSH0 MSTORE PUSH1 0x41 PUSH1 0x4 MSTORE PUSH1 0x24 PUSH0 REVERT JUMPDEST PUSH2 0xE34 DUP3 PUSH2 0xCC1 JUMP JUMPDEST DUP2 ADD DUP2 DUP2 LT PUSH8 0xFFFFFFFFFFFFFFFF DUP3 GT OR ISZERO PUSH2 0xE53 JUMPI PUSH2 0xE52 PUSH2 0xDFE JUMP JUMPDEST JUMPDEST DUP1 PUSH1 0x40 MSTORE POP POP POP JUMP JUMPDEST PUSH0 PUSH2 0xE65 PUSH2 0xC10 JUMP JUMPDEST SWAP1 POP PUSH2 0xE71 DUP3 DUP3 PUSH2 0xE2B JUMP JUMPDEST SWAP2 SWAP1 POP JUMP JUMPDEST PUSH0 PUSH8 0xFFFFFFFFFFFFFFFF DUP3 GT ISZERO PUSH2 0xE90 JUMPI PUSH2 0xE8F PUSH2 0xDFE JUMP JUMPDEST JUMPDEST PUSH2 0xE99 DUP3 PUSH2 0xCC1 JUMP JUMPDEST SWAP1 POP PUSH1 0x20 DUP2 ADD SWAP1 POP SWAP2 SWAP1 POP JUMP JUMPDEST DUP3 DUP2 DUP4 CALLDATACOPY PUSH0 DUP4 DUP4 ADD MSTORE POP POP POP JUMP JUMPDEST PUSH0 PUSH2 0xEC6 PUSH2 0xEC1 DUP5 PUSH2 0xE76 JUMP JUMPDEST PUSH2 0xE5C JUMP JUMPDEST SWAP1 POP DUP3 DUP2 MSTORE PUSH1 0x20 DUP2 ADD DUP5 DUP5 DUP5 ADD GT ISZERO PUSH2 0xEE2 JUMPI PUSH2 0xEE1 PUSH2 0xDFA JUMP JUMPDEST JUMPDEST PUSH2 0xEED DUP5 DUP3 DUP6 PUSH2 0xEA6 JUMP JUMPDEST POP SWAP4 SWAP3 POP POP POP JUMP JUMPDEST PUSH0 DUP3 PUSH1 0x1F DUP4 ADD SLT PUSH2 0xF09 JUMPI PUSH2 0xF08 PUSH2 0xDF6 JUMP JUMPDEST JUMPDEST DUP2 CALLDATALOAD PUSH2 0xF19 DUP5 DUP3 PUSH1 0x20 DUP7 ADD PUSH2 0xEB4 JUMP JUMPDEST SWAP2 POP POP SWAP3 SWAP2 POP POP JUMP JUMPDEST PUSH0 DUP1 PUSH0 PUSH1 0x60 DUP5 DUP7 SUB SLT ISZERO PUSH2 0xF39 JUMPI PUSH2 0xF38 PUSH2 0xC19 JUMP JUMPDEST JUMPDEST PUSH0 PUSH2 0xF46 DUP7 DUP3 DUP8 ADD PUSH2 0xDE2 JUMP JUMPDEST SWAP4 POP POP PUSH1 0x20 DUP5 ADD CALLDATALOAD PUSH8 0xFFFFFFFFFFFFFFFF DUP2 GT ISZERO PUSH2 0xF67 JUMPI PUSH2 0xF66 PUSH2 0xC1D JUMP JUMPDEST JUMPDEST PUSH2 0xF73 DUP7 DUP3 DUP8 ADD PUSH2 0xEF5 JUMP JUMPDEST SWAP3 POP POP PUSH1 0x40 DUP5 ADD CALLDATALOAD PUSH8 0xFFFFFFFFFFFFFFFF DUP2 GT ISZERO PUSH2 0xF94 JUMPI PUSH2 0xF93 PUSH2 0xC1D JUMP JUMPDEST JUMPDEST PUSH2 0xFA0 DUP7 DUP3 DUP8 ADD PUSH2 0xEF5 JUMP JUMPDEST SWAP2 POP POP SWAP3 POP SWAP3 POP SWAP3 JUMP JUMPDEST PUSH2 0xFB3 DUP2 PUSH2 0xD09 JUMP JUMPDEST DUP2 EQ PUSH2 0xFBD JUMPI PUSH0 DUP1 REVERT JUMPDEST POP JUMP JUMPDEST PUSH0 DUP2 CALLDATALOAD SWAP1 POP PUSH2 0xFCE DUP2 PUSH2 0xFAA JUMP JUMPDEST SWAP3 SWAP2 POP POP JUMP JUMPDEST PUSH0 PUSH1 0x20 DUP3 DUP5 SUB SLT ISZERO PUSH2 0xFE9 JUMPI PUSH2 0xFE8 PUSH2 0xC19 JUMP JUMPDEST JUMPDEST PUSH0 PUSH2 0xFF6 DUP5 DUP3 DUP6 ADD PUSH2 0xFC0 JUMP JUMPDEST SWAP2 POP POP SWAP3 SWAP2 POP POP JUMP JUMPDEST PUSH2 0x1008 DUP2 PUSH2 0xC21 JUMP JUMPDEST DUP3 MSTORE POP POP JUMP JUMPDEST PUSH0 PUSH1 0x20 DUP3 ADD SWAP1 POP PUSH2 0x1021 PUSH0 DUP4 ADD DUP5 PUSH2 0xFFF JUMP JUMPDEST SWAP3 SWAP2 POP POP JUMP JUMPDEST PUSH0 DUP1 PUSH0 DUP1 PUSH0 DUP1 PUSH0 PUSH1 0xE0 DUP9 DUP11 SUB SLT ISZERO PUSH2 0x1042 JUMPI PUSH2 0x1041 PUSH2 0xC19 JUMP JUMPDEST JUMPDEST PUSH0 PUSH2 0x104F DUP11 DUP3 DUP12 ADD PUSH2 0xC40 JUMP JUMPDEST SWAP8 POP POP PUSH1 0x20 DUP9 ADD CALLDATALOAD PUSH8 0xFFFFFFFFFFFFFFFF DUP2 GT ISZERO PUSH2 0x1070 JUMPI PUSH2 0x106F PUSH2 0xC1D JUMP JUMPDEST JUMPDEST PUSH2 0x107C DUP11 DUP3 DUP12 ADD PUSH2 0xEF5 JUMP JUMPDEST SWAP7 POP POP PUSH1 0x40 PUSH2 0x108D DUP11 DUP3 DUP12 ADD PUSH2 0xFC0 JUMP JUMPDEST SWAP6 POP POP PUSH1 0x60 DUP9 ADD CALLDATALOAD PUSH8 0xFFFFFFFFFFFFFFFF DUP2 GT ISZERO PUSH2 0x10AE JUMPI PUSH2 0x10AD PUSH2 0xC1D JUMP JUMPDEST JUMPDEST PUSH2 0x10BA DUP11 DUP3 DUP12 ADD PUSH2 0xEF5 JUMP JUMPDEST SWAP5 POP POP PUSH1 0x80 PUSH2 0x10CB DUP11 DUP3 DUP12 ADD PUSH2 0xFC0 JUMP JUMPDEST SWAP4 POP POP PUSH1 0xA0 PUSH2 0x10DC DUP11 DUP3 DUP12 ADD PUSH2 0xFC0 JUMP JUMPDEST SWAP3 POP POP PUSH1 0xC0 PUSH2 0x10ED DUP11 DUP3 DUP12 ADD PUSH2 0xFC0 JUMP JUMPDEST SWAP2 POP POP SWAP3 SWAP6 SWAP9 SWAP2 SWAP5 SWAP8 POP SWAP3 SWAP6 POP JUMP JUMPDEST PUSH0 PUSH1 0x20 DUP3 ADD SWAP1 POP PUSH2 0x110F PUSH0 DUP4 ADD DUP5 PUSH2 0xD12 JUMP JUMPDEST SWAP3 SWAP2 POP POP JUMP JUMPDEST PUSH0 PUSH1 0x20 DUP3 DUP5 SUB SLT ISZERO PUSH2 0x112A JUMPI PUSH2 0x1129 PUSH2 0xC19 JUMP JUMPDEST JUMPDEST PUSH0 PUSH2 0x1137 DUP5 DUP3 DUP6 ADD PUSH2 0xDE2 JUMP JUMPDEST SWAP2 POP POP SWAP3 SWAP2 POP POP JUMP JUMPDEST PUSH0 PUSH1 0x40 DUP3 ADD SWAP1 POP DUP2 DUP2 SUB PUSH0 DUP4 ADD MSTORE PUSH2 0x1158 DUP2 DUP6 PUSH2 0xCD1 JUMP JUMPDEST SWAP1 POP DUP2 DUP2 SUB PUSH1 0x20 DUP4 ADD MSTORE PUSH2 0x116C DUP2 DUP5 PUSH2 0xCD1 JUMP JUMPDEST SWAP1 POP SWAP4 SWAP3 POP POP POP JUMP JUMPDEST PUSH0 PUSH1 0x60 DUP3 ADD SWAP1 POP DUP2 DUP2 SUB PUSH0 DUP4 ADD MSTORE PUSH2 0x118D DUP2 DUP7 PUSH2 0xCD1 JUMP JUMPDEST SWAP1 POP DUP2 DUP2 SUB PUSH1 0x20 DUP4 ADD MSTORE PUSH2 0x11A1 DUP2 DUP6 PUSH2 0xCD1 JUMP JUMPDEST SWAP1 POP PUSH2 0x11B0 PUSH1 0x40 DUP4 ADD DUP5 PUSH2 0xC8A JUMP JUMPDEST SWAP5 SWAP4 POP POP POP POP JUMP JUMPDEST PUSH0 PUSH1 0xC0 DUP3 ADD SWAP1 POP DUP2 DUP2 SUB PUSH0 DUP4 ADD MSTORE PUSH2 0x11D0 DUP2 DUP10 PUSH2 0xCD1 JUMP JUMPDEST SWAP1 POP PUSH2 0x11DF PUSH1 0x20 DUP4 ADD DUP9 PUSH2 0xD12 JUMP JUMPDEST DUP2 DUP2 SUB PUSH1 0x40 DUP4 ADD MSTORE PUSH2 0x11F1 DUP2 DUP8 PUSH2 0xCD1 JUMP JUMPDEST SWAP1 POP PUSH2 0x1200 PUSH1 0x60 DUP4 ADD DUP7 PUSH2 0xD12 JUMP JUMPDEST PUSH2 0x120D PUSH1 0x80 DUP4 ADD DUP6 PUSH2 0xD12 JUMP JUMPDEST PUSH2 0x121A PUSH1 0xA0 DUP4 ADD DUP5 PUSH2 0xD12 JUMP JUMPDEST SWAP8 SWAP7 POP POP POP POP POP POP POP JUMP JUMPDEST PUSH32 0x4E487B7100000000000000000000000000000000000000000000000000000000 PUSH0 MSTORE PUSH1 0x22 PUSH1 0x4 MSTORE PUSH1 0x24 PUSH0 REVERT JUMPDEST PUSH0 PUSH1 0x2 DUP3 DIV SWAP1 POP PUSH1 0x1 DUP3 AND DUP1 PUSH2 0x1269 JUMPI PUSH1 0x7F DUP3 AND SWAP2 POP JUMPDEST PUSH1 0x20 DUP3 LT DUP2 SUB PUSH2 0x127C JUMPI PUSH2 0x127B PUSH2 0x1225 JUMP JUMPDEST JUMPDEST POP SWAP2 SWAP1 POP JUMP JUMPDEST PUSH32 0x446F63746F7220616C7265616479207265676973746572656400000000000000 PUSH0 DUP3 ADD MSTORE POP JUMP JUMPDEST PUSH0 PUSH2 0x12B6 PUSH1 0x19 DUP4 PUSH2 0xCA3 JUMP JUMPDEST SWAP2 POP PUSH2 0x12C1 DUP3 PUSH2 0x1282 JUMP JUMPDEST PUSH1 0x20 DUP3 ADD SWAP1 POP SWAP2 SWAP1 POP JUMP JUMPDEST PUSH0 PUSH1 0x20 DUP3 ADD SWAP1 POP DUP2 DUP2 SUB PUSH0 DUP4 ADD MSTORE PUSH2 0x12E3 DUP2 PUSH2 0x12AA JUMP JUMPDEST SWAP1 POP SWAP2 SWAP1 POP JUMP JUMPDEST PUSH0 DUP2 SWAP1 POP DUP2 PUSH0 MSTORE PUSH1 0x20 PUSH0 KECCAK256 SWAP1 POP SWAP2 SWAP1 POP JUMP JUMPDEST PUSH0 PUSH1 0x20 PUSH1 0x1F DUP4 ADD DIV SWAP1 POP SWAP2 SWAP1 POP JUMP JUMPDEST PUSH0 DUP3 DUP3 SHL SWAP1 POP SWAP3 SWAP2 POP POP JUMP JUMPDEST PUSH0 PUSH1 0x8 DUP4 MUL PUSH2 0x1346 PUSH32 0xFFFFFFFFFFFFFFFFFFFFFFFFFFFFFFFFFFFFFFFFFFFFFFFFFFFFFFFFFFFFFFFF DUP3 PUSH2 0x130B JUMP JUMPDEST PUSH2 0x1350 DUP7 DUP4 PUSH2 0x130B JUMP JUMPDEST SWAP6 POP DUP1 NOT DUP5 AND SWAP4 POP DUP1 DUP7 AND DUP5 OR SWAP3 POP POP POP SWAP4 SWAP3 POP POP POP JUMP JUMPDEST PUSH0 DUP2 SWAP1 POP SWAP2 SWAP1 POP JUMP JUMPDEST PUSH0 PUSH2 0x138B PUSH2 0x1386 PUSH2 0x1381 DUP5 PUSH2 0xD09 JUMP JUMPDEST PUSH2 0x1368 JUMP JUMPDEST PUSH2 0xD09 JUMP JUMPDEST SWAP1 POP SWAP2 SWAP1 POP JUMP JUMPDEST PUSH0 DUP2 SWAP1 POP SWAP2 SWAP1 POP JUMP JUMPDEST PUSH2 0x13A4 DUP4 PUSH2 0x1371 JUMP JUMPDEST PUSH2 0x13B8 PUSH2 0x13B0 DUP3 PUSH2 0x1392 JUMP JUMPDEST DUP5 DUP5 SLOAD PUSH2 0x1317 JUMP JUMPDEST DUP3 SSTORE POP POP POP POP JUMP JUMPDEST PUSH0 SWAP1 JUMP JUMPDEST PUSH2 0x13CC PUSH2 0x13C0 JUMP JUMPDEST PUSH2 0x13D7 DUP2 DUP5 DUP5 PUSH2 0x139B JUMP JUMPDEST POP POP POP JUMP JUMPDEST JUMPDEST DUP2 DUP2 LT ISZERO PUSH2 0x13FA JUMPI PUSH2 0x13EF PUSH0 DUP3 PUSH2 0x13C4 JUMP JUMPDEST PUSH1 0x1 DUP2 ADD SWAP1 POP PUSH2 0x13DD JUMP JUMPDEST POP POP JUMP JUMPDEST PUSH1 0x1F DUP3 GT ISZERO PUSH2 0x143F JUMPI PUSH2 0x1410 DUP2 PUSH2 0x12EA JUMP JUMPDEST PUSH2 0x1419 DUP5 PUSH2 0x12FC JUMP JUMPDEST DUP2 ADD PUSH1 0x20 DUP6 LT ISZERO PUSH2 0x1428 JUMPI DUP2 SWAP1 POP JUMPDEST PUSH2 0x143C PUSH2 0x1434 DUP6 PUSH2 0x12FC JUMP JUMPDEST DUP4 ADD DUP3 PUSH2 0x13DC JUMP JUMPDEST POP POP JUMPDEST POP POP POP JUMP JUMPDEST PUSH0 DUP3 DUP3 SHR SWAP1 POP SWAP3 SWAP2 POP POP JUMP JUMPDEST PUSH0 PUSH2 0x145F PUSH0 NOT DUP5 PUSH1 0x8 MUL PUSH2 0x1444 JUMP JUMPDEST NOT DUP1 DUP4 AND SWAP2 POP POP SWAP3 SWAP2 POP POP JUMP JUMPDEST PUSH0 PUSH2 0x1477 DUP4 DUP4 PUSH2 0x1450 JUMP JUMPDEST SWAP2 POP DUP3 PUSH1 0x2 MUL DUP3 OR SWAP1 POP SWAP3 SWAP2 POP POP JUMP JUMPDEST PUSH2 0x1490 DUP3 PUSH2 0xC99 JUMP JUMPDEST PUSH8 0xFFFFFFFFFFFFFFFF DUP2 GT ISZERO PUSH2 0x14A9 JUMPI PUSH2 0x14A8 PUSH2 0xDFE JUMP JUMPDEST JUMPDEST PUSH2 0x14B3 DUP3 SLOAD PUSH2 0x1252 JUMP JUMPDEST PUSH2 0x14BE DUP3 DUP3 DUP6 PUSH2 0x13FE JUMP JUMPDEST PUSH0 PUSH1 0x20 SWAP1 POP PUSH1 0x1F DUP4 GT PUSH1 0x1 DUP2 EQ PUSH2 0x14EF JUMPI PUSH0 DUP5 ISZERO PUSH2 0x14DD JUMPI DUP3 DUP8 ADD MLOAD SWAP1 POP JUMPDEST PUSH2 0x14E7 DUP6 DUP3 PUSH2 0x146C JUMP JUMPDEST DUP7 SSTORE POP PUSH2 0x154E JUMP JUMPDEST PUSH1 0x1F NOT DUP5 AND PUSH2 0x14FD DUP7 PUSH2 0x12EA JUMP JUMPDEST PUSH0 JUMPDEST DUP3 DUP2 LT ISZERO PUSH2 0x1524 JUMPI DUP5 DUP10 ADD MLOAD DUP3 SSTORE PUSH1 0x1 DUP3 ADD SWAP2 POP PUSH1 0x20 DUP6 ADD SWAP5 POP PUSH1 0x20 DUP2 ADD SWAP1 POP PUSH2 0x14FF JUMP JUMPDEST DUP7 DUP4 LT ISZERO PUSH2 0x1541 JUMPI DUP5 DUP10 ADD MLOAD PUSH2 0x153D PUSH1 0x1F DUP10 AND DUP3 PUSH2 0x1450 JUMP JUMPDEST DUP4 SSTORE POP JUMPDEST PUSH1 0x1 PUSH1 0x2 DUP9 MUL ADD DUP9 SSTORE POP POP POP JUMPDEST POP POP POP POP POP POP JUMP JUMPDEST PUSH32 0x556E6971756520494420616C7265616479206578697374730000000000000000 PUSH0 DUP3 ADD MSTORE POP JUMP JUMPDEST PUSH0 PUSH2 0x158A PUSH1 0x18 DUP4 PUSH2 0xCA3 JUMP JUMPDEST SWAP2 POP PUSH2 0x1595 DUP3 PUSH2 0x1556 JUMP JUMPDEST PUSH1 0x20 DUP3 ADD SWAP1 POP SWAP2 SWAP1 POP JUMP JUMPDEST PUSH0 PUSH1 0x20 DUP3 ADD SWAP1 POP DUP2 DUP2 SUB PUSH0 DUP4 ADD MSTORE PUSH2 0x15B7 DUP2 PUSH2 0x157E JUMP JUMPDEST SWAP1 POP SWAP2 SWAP1 POP JUMP JUMPDEST PUSH32 0x4E487B7100000000000000000000000000000000000000000000000000000000 PUSH0 MSTORE PUSH1 0x11 PUSH1 0x4 MSTORE PUSH1 0x24 PUSH0 REVERT JUMPDEST PUSH0 PUSH2 0x15F5 DUP3 PUSH2 0xD09 JUMP JUMPDEST SWAP2 POP PUSH32 0xFFFFFFFFFFFFFFFFFFFFFFFFFFFFFFFFFFFFFFFFFFFFFFFFFFFFFFFFFFFFFFFF DUP3 SUB PUSH2 0x1627 JUMPI PUSH2 0x1626 PUSH2 0x15BE JUMP JUMPDEST JUMPDEST PUSH1 0x1 DUP3 ADD SWAP1 POP SWAP2 SWAP1 POP JUMP JUMPDEST PUSH32 0x446F63746F72206E6F7420666F756E6400000000000000000000000000000000 PUSH0 DUP3 ADD MSTORE POP JUMP JUMPDEST PUSH0 PUSH2 0x1666 PUSH1 0x10 DUP4 PUSH2 0xCA3 JUMP JUMPDEST SWAP2 POP PUSH2 0x1671 DUP3 PUSH2 0x1632 JUMP JUMPDEST PUSH1 0x20 DUP3 ADD SWAP1 POP SWAP2 SWAP1 POP JUMP JUMPDEST PUSH0 PUSH1 0x20 DUP3 ADD SWAP1 POP DUP2 DUP2 SUB PUSH0 DUP4 ADD MSTORE PUSH2 0x1693 DUP2 PUSH2 0x165A JUMP JUMPDEST SWAP1 POP SWAP2 SWAP1 POP JUMP JUMPDEST PUSH32 0x50617469656E74206E6F7420666F756E64000000000000000000000000000000 PUSH0 DUP3 ADD MSTORE POP JUMP JUMPDEST PUSH0 PUSH2 0x16CE PUSH1 0x11 DUP4 PUSH2 0xCA3 JUMP JUMPDEST SWAP2 POP PUSH2 0x16D9 DUP3 PUSH2 0x169A JUMP JUMPDEST PUSH1 0x20 DUP3 ADD SWAP1 POP SWAP2 SWAP1 POP JUMP JUMPDEST PUSH0 PUSH1 0x20 DUP3 ADD SWAP1 POP DUP2 DUP2 SUB PUSH0 DUP4 ADD MSTORE PUSH2 0x16FB DUP2 PUSH2 0x16C2 JUMP JUMPDEST SWAP1 POP SWAP2 SWAP1 POP JUMP JUMPDEST PUSH0 DUP2 SWAP1 POP SWAP2 SWAP1 POP JUMP JUMPDEST PUSH2 0x171C PUSH2 0x1717 DUP3 PUSH2 0xD09 JUMP JUMPDEST PUSH2 0x1702 JUMP JUMPDEST DUP3 MSTORE POP POP JUMP JUMPDEST PUSH0 DUP2 PUSH1 0x60 SHL SWAP1 POP SWAP2 SWAP1 POP JUMP JUMPDEST PUSH0 PUSH2 0x1738 DUP3 PUSH2 0x1722 JUMP JUMPDEST SWAP1 POP SWAP2 SWAP1 POP JUMP JUMPDEST PUSH0 PUSH2 0x1749 DUP3 PUSH2 0x172E JUMP JUMPDEST SWAP1 POP SWAP2 SWAP1 POP JUMP JUMPDEST PUSH2 0x1761 PUSH2 0x175C DUP3 PUSH2 0xDBB JUMP JUMPDEST PUSH2 0x173F JUMP JUMPDEST DUP3 MSTORE POP POP JUMP JUMPDEST PUSH0 PUSH2 0x1772 DUP3 DUP7 PUSH2 0x170B JUMP JUMPDEST PUSH1 0x20 DUP3 ADD SWAP2 POP PUSH2 0x1782 DUP3 DUP6 PUSH2 0x170B JUMP JUMPDEST PUSH1 0x20 DUP3 ADD SWAP2 POP PUSH2 0x1792 DUP3 DUP5 PUSH2 0x1750 JUMP JUMPDEST PUSH1 0x14 DUP3 ADD SWAP2 POP DUP2 SWAP1 POP SWAP5 SWAP4 POP POP POP POP JUMP JUMPDEST PUSH0 DUP2 MLOAD SWAP1 POP SWAP2 SWAP1 POP JUMP JUMPDEST PUSH0 DUP2 SWAP1 POP SWAP3 SWAP2 POP POP JUMP JUMPDEST PUSH0 PUSH2 0x17C1 DUP3 PUSH2 0x17A3 JUMP JUMPDEST PUSH2 0x17CB DUP2 DUP6 PUSH2 0x17AD JUMP JUMPDEST SWAP4 POP PUSH2 0x17DB DUP2 DUP6 PUSH1 0x20 DUP7 ADD PUSH2 0xCB3 JUMP JUMPDEST DUP1 DUP5 ADD SWAP2 POP POP SWAP3 SWAP2 POP POP JUMP JUMPDEST PUSH0 PUSH2 0x17F2 DUP3 DUP5 PUSH2 0x17B7 JUMP JUMPDEST SWAP2 POP DUP2 SWAP1 POP SWAP3 SWAP2 POP POP JUMP JUMPDEST PUSH0 DUP2 MLOAD SWAP1 POP PUSH2 0x180B DUP2 PUSH2 0xC2A JUMP JUMPDEST SWAP3 SWAP2 POP POP JUMP JUMPDEST PUSH0 PUSH1 0x20 DUP3 DUP5 SUB SLT ISZERO PUSH2 0x1826 JUMPI PUSH2 0x1825 PUSH2 0xC19 JUMP JUMPDEST JUMPDEST PUSH0 PUSH2 0x1833 DUP5 DUP3 DUP6 ADD PUSH2 0x17FD JUMP JUMPDEST SWAP2 POP POP SWAP3 SWAP2 POP POP JUMP INVALID LOG2 PUSH5 0x6970667358 0x22 SLT KECCAK256 SWAP10 0xD4 0xD3 0xC6 BLOBHASH 0xBD PUSH31 0x71E296E89BE72B76B68C6B7C509C1B3B91AF1209D81FFC356B64736F6C6343 STOP ADDMOD BYTE STOP CALLER "
				},
				"gasEstimates": {
					"creation": {
						"codeDepositCost": "1251600",
						"executionCost": "1300",
						"totalCost": "1252900"
					},
					"external": {
						"doctorMapping(address)": "infinite",
						"generateUniqueID(uint256)": "infinite",
						"getDoctorDetails(address)": "infinite",
						"getPatientDetails(bytes32)": "infinite",
						"patientCount()": "2424",
						"patientMapping(bytes32)": "infinite",
						"pid(uint256)": "2799",
						"registerDoctor(address,string,string)": "infinite",
						"registerPatient(bytes32,string,uint256,string,uint256,uint256,uint256)": "infinite"
					}
				},
				"methodIdentifiers": {
					"doctorMapping(address)": "bf94effa",
					"generateUniqueID(uint256)": "eadb6252",
					"getDoctorDetails(address)": "bab90dbd",
					"getPatientDetails(bytes32)": "ea88629c",
					"patientCount()": "a0303c41",
					"patientMapping(bytes32)": "354d52ac",
					"pid(uint256)": "61da081d",
					"registerDoctor(address,string,string)": "53d08ef4",
					"registerPatient(bytes32,string,uint256,string,uint256,uint256,uint256)": "6f8de438"
				}
			},
			"storageLayout": {
				"storage": [
					{
						"astId": 3,
						"contract": "bharani.sol:BlockchainBasedHealthcare",
						"label": "patientCount",
						"offset": 0,
						"slot": "0",
						"type": "t_uint256"
					},
					{
						"astId": 30,
						"contract": "bharani.sol:BlockchainBasedHealthcare",
						"label": "doctorMapping",
						"offset": 0,
						"slot": "1",
						"type": "t_mapping(t_address,t_struct(Doctor)10_storage)"
					},
					{
						"astId": 35,
						"contract": "bharani.sol:BlockchainBasedHealthcare",
						"label": "patientMapping",
						"offset": 0,
						"slot": "2",
						"type": "t_mapping(t_bytes32,t_struct(Patient)25_storage)"
					},
					{
						"astId": 39,
						"contract": "bharani.sol:BlockchainBasedHealthcare",
						"label": "pid",
						"offset": 0,
						"slot": "3",
						"type": "t_mapping(t_uint256,t_bytes32)"
					}
				],
				"types": {
					"t_address": {
						"encoding": "inplace",
						"label": "address",
						"numberOfBytes": "20"
					},
					"t_bool": {
						"encoding": "inplace",
						"label": "bool",
						"numberOfBytes": "1"
					},
					"t_bytes32": {
						"encoding": "inplace",
						"label": "bytes32",
						"numberOfBytes": "32"
					},
					"t_mapping(t_address,t_struct(Doctor)10_storage)": {
						"encoding": "mapping",
						"key": "t_address",
						"label": "mapping(address => struct BlockchainBasedHealthcare.Doctor)",
						"numberOfBytes": "32",
						"value": "t_struct(Doctor)10_storage"
					},
					"t_mapping(t_bytes32,t_struct(Patient)25_storage)": {
						"encoding": "mapping",
						"key": "t_bytes32",
						"label": "mapping(bytes32 => struct BlockchainBasedHealthcare.Patient)",
						"numberOfBytes": "32",
						"value": "t_struct(Patient)25_storage"
					},
					"t_mapping(t_uint256,t_bytes32)": {
						"encoding": "mapping",
						"key": "t_uint256",
						"label": "mapping(uint256 => bytes32)",
						"numberOfBytes": "32",
						"value": "t_bytes32"
					},
					"t_string_storage": {
						"encoding": "bytes",
						"label": "string",
						"numberOfBytes": "32"
					},
					"t_struct(Doctor)10_storage": {
						"encoding": "inplace",
						"label": "struct BlockchainBasedHealthcare.Doctor",
						"members": [
							{
								"astId": 5,
								"contract": "bharani.sol:BlockchainBasedHealthcare",
								"label": "name",
								"offset": 0,
								"slot": "0",
								"type": "t_string_storage"
							},
							{
								"astId": 7,
								"contract": "bharani.sol:BlockchainBasedHealthcare",
								"label": "designation",
								"offset": 0,
								"slot": "1",
								"type": "t_string_storage"
							},
							{
								"astId": 9,
								"contract": "bharani.sol:BlockchainBasedHealthcare",
								"label": "isRegistered",
								"offset": 0,
								"slot": "2",
								"type": "t_bool"
							}
						],
						"numberOfBytes": "96"
					},
					"t_struct(Patient)25_storage": {
						"encoding": "inplace",
						"label": "struct BlockchainBasedHealthcare.Patient",
						"members": [
							{
								"astId": 12,
								"contract": "bharani.sol:BlockchainBasedHealthcare",
								"label": "isUIDGenerated",
								"offset": 0,
								"slot": "0",
								"type": "t_bool"
							},
							{
								"astId": 14,
								"contract": "bharani.sol:BlockchainBasedHealthcare",
								"label": "name",
								"offset": 0,
								"slot": "1",
								"type": "t_string_storage"
							},
							{
								"astId": 16,
								"contract": "bharani.sol:BlockchainBasedHealthcare",
								"label": "age",
								"offset": 0,
								"slot": "2",
								"type": "t_uint256"
							},
							{
								"astId": 18,
								"contract": "bharani.sol:BlockchainBasedHealthcare",
								"label": "dob",
								"offset": 0,
								"slot": "3",
								"type": "t_string_storage"
							},
							{
								"astId": 20,
								"contract": "bharani.sol:BlockchainBasedHealthcare",
								"label": "cholesterol",
								"offset": 0,
								"slot": "4",
								"type": "t_uint256"
							},
							{
								"astId": 22,
								"contract": "bharani.sol:BlockchainBasedHealthcare",
								"label": "restECG",
								"offset": 0,
								"slot": "5",
								"type": "t_uint256"
							},
							{
								"astId": 24,
								"contract": "bharani.sol:BlockchainBasedHealthcare",
								"label": "bloodPressure",
								"offset": 0,
								"slot": "6",
								"type": "t_uint256"
							}
						],
						"numberOfBytes": "224"
					},
					"t_uint256": {
						"encoding": "inplace",
						"label": "uint256",
						"numberOfBytes": "32"
					}
				}
			},
			"userdoc": {
				"kind": "user",
				"methods": {},
				"version": 1
			}
		}
	}
}